{
  "contractName": "MentaportMint",
  "abi": [
    {
      "inputs": [
        {
          "internalType": "string",
          "name": "_name",
          "type": "string"
        },
        {
          "internalType": "string",
          "name": "_symbol",
          "type": "string"
        },
        {
          "internalType": "string",
          "name": "_initNotRevealedUri",
          "type": "string"
        },
        {
          "internalType": "uint256[]",
          "name": "_mintTrulesS",
          "type": "uint256[]"
        },
        {
          "internalType": "uint256[]",
          "name": "_mintTrulesE",
          "type": "uint256[]"
        }
      ],
      "stateMutability": "nonpayable",
      "type": "constructor"
    },
    {
      "anonymous": false,
      "inputs": [
        {
          "indexed": true,
          "internalType": "address",
          "name": "owner",
          "type": "address"
        },
        {
          "indexed": true,
          "internalType": "address",
          "name": "approved",
          "type": "address"
        },
        {
          "indexed": true,
          "internalType": "uint256",
          "name": "tokenId",
          "type": "uint256"
        }
      ],
      "name": "Approval",
      "type": "event"
    },
    {
      "anonymous": false,
      "inputs": [
        {
          "indexed": true,
          "internalType": "address",
          "name": "owner",
          "type": "address"
        },
        {
          "indexed": true,
          "internalType": "address",
          "name": "operator",
          "type": "address"
        },
        {
          "indexed": false,
          "internalType": "bool",
          "name": "approved",
          "type": "bool"
        }
      ],
      "name": "ApprovalForAll",
      "type": "event"
    },
    {
      "anonymous": false,
      "inputs": [
        {
          "indexed": true,
          "internalType": "address",
          "name": "previousOwner",
          "type": "address"
        },
        {
          "indexed": true,
          "internalType": "address",
          "name": "newOwner",
          "type": "address"
        }
      ],
      "name": "OwnershipTransferred",
      "type": "event"
    },
    {
      "anonymous": false,
      "inputs": [
        {
          "indexed": true,
          "internalType": "address",
          "name": "from",
          "type": "address"
        },
        {
          "indexed": true,
          "internalType": "address",
          "name": "to",
          "type": "address"
        },
        {
          "indexed": true,
          "internalType": "uint256",
          "name": "tokenId",
          "type": "uint256"
        }
      ],
      "name": "Transfer",
      "type": "event"
    },
    {
      "inputs": [
        {
          "internalType": "address",
          "name": "to",
          "type": "address"
        },
        {
          "internalType": "uint256",
          "name": "tokenId",
          "type": "uint256"
        }
      ],
      "name": "approve",
      "outputs": [],
      "stateMutability": "nonpayable",
      "type": "function"
    },
    {
      "inputs": [
        {
          "internalType": "address",
          "name": "owner",
          "type": "address"
        }
      ],
      "name": "balanceOf",
      "outputs": [
        {
          "internalType": "uint256",
          "name": "",
          "type": "uint256"
        }
      ],
      "stateMutability": "view",
      "type": "function"
    },
    {
      "inputs": [],
      "name": "baseExtension",
      "outputs": [
        {
          "internalType": "string",
          "name": "",
          "type": "string"
        }
      ],
      "stateMutability": "view",
      "type": "function"
    },
    {
      "inputs": [],
      "name": "baseURI",
      "outputs": [
        {
          "internalType": "string",
          "name": "",
          "type": "string"
        }
      ],
      "stateMutability": "view",
      "type": "function"
    },
    {
      "inputs": [
        {
          "internalType": "address",
          "name": "_newAddress",
          "type": "address"
        }
      ],
      "name": "changeMentaportAccount",
      "outputs": [],
      "stateMutability": "nonpayable",
      "type": "function"
    },
    {
      "inputs": [],
      "name": "cost",
      "outputs": [
        {
          "internalType": "uint256",
          "name": "",
          "type": "uint256"
        }
      ],
      "stateMutability": "view",
      "type": "function"
    },
    {
      "inputs": [
        {
          "internalType": "uint256",
          "name": "tokenId",
          "type": "uint256"
        }
      ],
      "name": "getApproved",
      "outputs": [
        {
          "internalType": "address",
          "name": "",
          "type": "address"
        }
      ],
      "stateMutability": "view",
      "type": "function"
    },
    {
      "inputs": [
        {
          "internalType": "address",
          "name": "owner",
          "type": "address"
        },
        {
          "internalType": "address",
          "name": "operator",
          "type": "address"
        }
      ],
      "name": "isApprovedForAll",
      "outputs": [
        {
          "internalType": "bool",
          "name": "",
          "type": "bool"
        }
      ],
      "stateMutability": "view",
      "type": "function"
    },
    {
      "inputs": [
        {
          "internalType": "address",
          "name": "_address",
          "type": "address"
        },
        {
          "internalType": "uint256",
          "name": "_timestamp",
          "type": "uint256"
        },
        {
          "internalType": "uint256",
          "name": "_token",
          "type": "uint256"
        },
        {
          "internalType": "uint8",
          "name": "_v",
          "type": "uint8"
        },
        {
          "internalType": "bytes32",
          "name": "_r",
          "type": "bytes32"
        },
        {
          "internalType": "bytes32",
          "name": "_s",
          "type": "bytes32"
        }
      ],
      "name": "isValidAccessMessage",
      "outputs": [
        {
          "internalType": "bool",
          "name": "",
          "type": "bool"
        }
      ],
      "stateMutability": "view",
      "type": "function"
    },
    {
      "inputs": [],
      "name": "maxMintAmount",
      "outputs": [
        {
          "internalType": "uint256",
          "name": "",
          "type": "uint256"
        }
      ],
      "stateMutability": "view",
      "type": "function"
    },
    {
      "inputs": [],
      "name": "maxSupply",
      "outputs": [
        {
          "internalType": "uint256",
          "name": "",
          "type": "uint256"
        }
      ],
      "stateMutability": "view",
      "type": "function"
    },
    {
      "inputs": [
        {
          "internalType": "uint256",
          "name": "_mintAmount",
          "type": "uint256"
        },
        {
          "internalType": "address",
          "name": "_receiver",
          "type": "address"
        }
      ],
      "name": "mintForAddress",
      "outputs": [],
      "stateMutability": "nonpayable",
      "type": "function"
    },
    {
      "inputs": [],
      "name": "name",
      "outputs": [
        {
          "internalType": "string",
          "name": "",
          "type": "string"
        }
      ],
      "stateMutability": "view",
      "type": "function"
    },
    {
      "inputs": [],
      "name": "notRevealedUri",
      "outputs": [
        {
          "internalType": "string",
          "name": "",
          "type": "string"
        }
      ],
      "stateMutability": "view",
      "type": "function"
    },
    {
      "inputs": [],
      "name": "owner",
      "outputs": [
        {
          "internalType": "address",
          "name": "",
          "type": "address"
        }
      ],
      "stateMutability": "view",
      "type": "function"
    },
    {
      "inputs": [
        {
          "internalType": "uint256",
          "name": "tokenId",
          "type": "uint256"
        }
      ],
      "name": "ownerOf",
      "outputs": [
        {
          "internalType": "address",
          "name": "",
          "type": "address"
        }
      ],
      "stateMutability": "view",
      "type": "function"
    },
    {
      "inputs": [
        {
          "internalType": "bool",
          "name": "_state",
          "type": "bool"
        }
      ],
      "name": "pause",
      "outputs": [],
      "stateMutability": "nonpayable",
      "type": "function"
    },
    {
      "inputs": [],
      "name": "paused",
      "outputs": [
        {
          "internalType": "bool",
          "name": "",
          "type": "bool"
        }
      ],
      "stateMutability": "view",
      "type": "function"
    },
    {
      "inputs": [],
      "name": "renounceOwnership",
      "outputs": [],
      "stateMutability": "nonpayable",
      "type": "function"
    },
    {
      "inputs": [],
      "name": "reveal",
      "outputs": [],
      "stateMutability": "nonpayable",
      "type": "function"
    },
    {
      "inputs": [],
      "name": "revealed",
      "outputs": [
        {
          "internalType": "bool",
          "name": "",
          "type": "bool"
        }
      ],
      "stateMutability": "view",
      "type": "function"
    },
    {
      "inputs": [
        {
          "internalType": "address",
          "name": "from",
          "type": "address"
        },
        {
          "internalType": "address",
          "name": "to",
          "type": "address"
        },
        {
          "internalType": "uint256",
          "name": "tokenId",
          "type": "uint256"
        }
      ],
      "name": "safeTransferFrom",
      "outputs": [],
      "stateMutability": "nonpayable",
      "type": "function"
    },
    {
      "inputs": [
        {
          "internalType": "address",
          "name": "from",
          "type": "address"
        },
        {
          "internalType": "address",
          "name": "to",
          "type": "address"
        },
        {
          "internalType": "uint256",
          "name": "tokenId",
          "type": "uint256"
        },
        {
          "internalType": "bytes",
          "name": "data",
          "type": "bytes"
        }
      ],
      "name": "safeTransferFrom",
      "outputs": [],
      "stateMutability": "nonpayable",
      "type": "function"
    },
    {
      "inputs": [
        {
          "internalType": "address",
          "name": "operator",
          "type": "address"
        },
        {
          "internalType": "bool",
          "name": "approved",
          "type": "bool"
        }
      ],
      "name": "setApprovalForAll",
      "outputs": [],
      "stateMutability": "nonpayable",
      "type": "function"
    },
    {
      "inputs": [
        {
          "internalType": "string",
          "name": "_newBaseExtension",
          "type": "string"
        }
      ],
      "name": "setBaseExtension",
      "outputs": [],
      "stateMutability": "nonpayable",
      "type": "function"
    },
    {
      "inputs": [
        {
          "internalType": "string",
          "name": "_newBaseURI",
          "type": "string"
        }
      ],
      "name": "setBaseURI",
      "outputs": [],
      "stateMutability": "nonpayable",
      "type": "function"
    },
    {
      "inputs": [
        {
          "internalType": "uint256",
          "name": "_newCost",
          "type": "uint256"
        }
      ],
      "name": "setCost",
      "outputs": [],
      "stateMutability": "nonpayable",
      "type": "function"
    },
    {
      "inputs": [
        {
          "internalType": "string",
          "name": "_notRevealedURI",
          "type": "string"
        }
      ],
      "name": "setNotRevealedURI",
      "outputs": [],
      "stateMutability": "nonpayable",
      "type": "function"
    },
    {
      "inputs": [
        {
          "internalType": "uint256",
          "name": "_newmaxMintAmount",
          "type": "uint256"
        }
      ],
      "name": "setmaxMintAmount",
      "outputs": [],
      "stateMutability": "nonpayable",
      "type": "function"
    },
    {
      "inputs": [
        {
          "internalType": "bytes4",
          "name": "interfaceId",
          "type": "bytes4"
        }
      ],
      "name": "supportsInterface",
      "outputs": [
        {
          "internalType": "bool",
          "name": "",
          "type": "bool"
        }
      ],
      "stateMutability": "view",
      "type": "function"
    },
    {
      "inputs": [],
      "name": "symbol",
      "outputs": [
        {
          "internalType": "string",
          "name": "",
          "type": "string"
        }
      ],
      "stateMutability": "view",
      "type": "function"
    },
    {
      "inputs": [
        {
          "internalType": "uint256",
          "name": "tokenId",
          "type": "uint256"
        }
      ],
      "name": "tokenURI",
      "outputs": [
        {
          "internalType": "string",
          "name": "",
          "type": "string"
        }
      ],
      "stateMutability": "view",
      "type": "function"
    },
    {
      "inputs": [],
      "name": "totalSupply",
      "outputs": [
        {
          "internalType": "uint256",
          "name": "",
          "type": "uint256"
        }
      ],
      "stateMutability": "view",
      "type": "function"
    },
    {
      "inputs": [
        {
          "internalType": "address",
          "name": "from",
          "type": "address"
        },
        {
          "internalType": "address",
          "name": "to",
          "type": "address"
        },
        {
          "internalType": "uint256",
          "name": "tokenId",
          "type": "uint256"
        }
      ],
      "name": "transferFrom",
      "outputs": [],
      "stateMutability": "nonpayable",
      "type": "function"
    },
    {
      "inputs": [
        {
          "internalType": "address",
          "name": "newOwner",
          "type": "address"
        }
      ],
      "name": "transferOwnership",
      "outputs": [],
      "stateMutability": "nonpayable",
      "type": "function"
    },
    {
      "inputs": [],
      "name": "useMintRules",
      "outputs": [
        {
          "internalType": "bool",
          "name": "",
          "type": "bool"
        }
      ],
      "stateMutability": "view",
      "type": "function"
    },
    {
      "inputs": [
        {
          "internalType": "address",
          "name": "_owner",
          "type": "address"
        }
      ],
      "name": "walletOfOwner",
      "outputs": [
        {
          "internalType": "uint256[]",
          "name": "",
          "type": "uint256[]"
        }
      ],
      "stateMutability": "view",
      "type": "function"
    },
    {
      "inputs": [],
      "name": "withdraw",
      "outputs": [],
      "stateMutability": "payable",
      "type": "function"
    },
    {
      "inputs": [
        {
          "internalType": "uint256",
          "name": "_mintAmount",
          "type": "uint256"
        }
      ],
      "name": "mint",
      "outputs": [],
      "stateMutability": "payable",
      "type": "function"
    },
    {
      "inputs": [
        {
          "internalType": "uint256",
          "name": "_mintAmount",
          "type": "uint256"
        },
        {
          "internalType": "uint256",
          "name": "_rule",
          "type": "uint256"
        },
        {
          "internalType": "uint256",
          "name": "_timestamp",
          "type": "uint256"
        },
        {
          "internalType": "uint8",
          "name": "_v",
          "type": "uint8"
        },
        {
          "internalType": "bytes32",
          "name": "_r",
          "type": "bytes32"
        },
        {
          "internalType": "bytes32",
          "name": "_s",
          "type": "bytes32"
        }
      ],
      "name": "mintMenta",
      "outputs": [],
      "stateMutability": "payable",
      "type": "function"
    },
    {
      "inputs": [
        {
          "internalType": "uint256",
          "name": "_index",
          "type": "uint256"
        }
      ],
      "name": "mintTimeRule",
      "outputs": [
        {
          "components": [
            {
              "internalType": "bool",
              "name": "set",
              "type": "bool"
            },
            {
              "internalType": "bool",
              "name": "useTime",
              "type": "bool"
            },
            {
              "internalType": "uint256",
              "name": "startTime",
              "type": "uint256"
            },
            {
              "internalType": "uint256",
              "name": "endTime",
              "type": "uint256"
            }
          ],
          "internalType": "struct MentaportMint.Time",
          "name": "",
          "type": "tuple"
        }
      ],
      "stateMutability": "view",
      "type": "function"
    },
    {
      "inputs": [
        {
          "internalType": "uint256",
          "name": "_index",
          "type": "uint256"
        }
      ],
      "name": "checkMintTimeRules",
      "outputs": [
        {
          "internalType": "bool",
          "name": "",
          "type": "bool"
        }
      ],
      "stateMutability": "view",
      "type": "function"
    },
    {
      "inputs": [
        {
          "internalType": "uint256[]",
          "name": "_newTimesS",
          "type": "uint256[]"
        },
        {
          "internalType": "uint256[]",
          "name": "_newTimesE",
          "type": "uint256[]"
        }
      ],
      "name": "updateMintRules",
      "outputs": [],
      "stateMutability": "nonpayable",
      "type": "function"
    },
    {
      "inputs": [
        {
          "internalType": "uint256",
          "name": "_index",
          "type": "uint256"
        },
        {
          "internalType": "bool",
          "name": "_set",
          "type": "bool"
        },
        {
          "internalType": "bool",
          "name": "_useTime",
          "type": "bool"
        },
        {
          "internalType": "uint256",
          "name": "_newTimeS",
          "type": "uint256"
        },
        {
          "internalType": "uint256",
          "name": "_newTimE",
          "type": "uint256"
        }
      ],
      "name": "updateMintRule",
      "outputs": [],
      "stateMutability": "nonpayable",
      "type": "function"
    },
    {
      "inputs": [
        {
          "internalType": "bool",
          "name": "_state",
          "type": "bool"
        }
      ],
      "name": "useUseMintRules",
      "outputs": [],
      "stateMutability": "nonpayable",
      "type": "function"
    }
  ],
  "bytecode": "0x60806040526040518060400160405280600581526020017f2e6a736f6e000000000000000000000000000000000000000000000000000000815250600b90816200004a9190620007bb565b5066038d7ea4c68000600c556103e8600d556002600e556001600f60006101000a81548160ff0219169083151502179055506000600f60016101000a81548160ff021916908315150217905550733bd3b2d1c0cd18ed91779356702e9b5b1f1bbfb4600f60026101000a81548173ffffffffffffffffffffffffffffffffffffffff021916908373ffffffffffffffffffffffffffffffffffffffff1602179055506001601160006101000a81548160ff0219169083151502179055503480156200011457600080fd5b50604051620063133803806200631383398181016040528101906200013a919062000b1c565b84848482828160009081620001509190620007bb565b508060019081620001629190620007bb565b50505062000185620001796200036e60201b60201c565b6200037660201b60201c565b60016007819055506200019e816200043c60201b60201c565b620001af816200046160201b60201c565b5050506101f4600d81905550805182511462000202576040517f08c379a0000000000000000000000000000000000000000000000000000000008152600401620001f99062000ca0565b60405180910390fd5b6000825103620002705760016010600080815260200190815260200160002060000160006101000a81548160ff02191690831515021790555060006010600080815260200190815260200160002060000160016101000a81548160ff02191690831515021790555062000363565b60005b8251811015620003615760016010600083815260200190815260200160002060000160006101000a81548160ff02191690831515021790555060016010600083815260200190815260200160002060000160016101000a81548160ff021916908315150217905550828181518110620002f157620002f062000cc2565b5b6020026020010151601060008381526020019081526020016000206001018190555081818151811062000329576200032862000cc2565b5b602002602001015160106000838152602001908152602001600020600201819055508080620003589062000d20565b91505062000273565b505b505050505062000ddf565b600033905090565b6000600660009054906101000a900473ffffffffffffffffffffffffffffffffffffffff16905081600660006101000a81548173ffffffffffffffffffffffffffffffffffffffff021916908373ffffffffffffffffffffffffffffffffffffffff1602179055508173ffffffffffffffffffffffffffffffffffffffff168173ffffffffffffffffffffffffffffffffffffffff167f8be0079c531659141344cd1fd0a4f28419497f9722a3daafe3b4186f6b6457e060405160405180910390a35050565b6200044c6200048660201b60201c565b80600a90816200045d9190620007bb565b5050565b620004716200048660201b60201c565b8060099081620004829190620007bb565b5050565b620004966200036e60201b60201c565b73ffffffffffffffffffffffffffffffffffffffff16620004bc6200051760201b60201c565b73ffffffffffffffffffffffffffffffffffffffff161462000515576040517f08c379a00000000000000000000000000000000000000000000000000000000081526004016200050c9062000dbd565b60405180910390fd5b565b6000600660009054906101000a900473ffffffffffffffffffffffffffffffffffffffff16905090565b600081519050919050565b7f4e487b7100000000000000000000000000000000000000000000000000000000600052604160045260246000fd5b7f4e487b7100000000000000000000000000000000000000000000000000000000600052602260045260246000fd5b60006002820490506001821680620005c357607f821691505b602082108103620005d957620005d86200057b565b5b50919050565b60008190508160005260206000209050919050565b60006020601f8301049050919050565b600082821b905092915050565b600060088302620006437fffffffffffffffffffffffffffffffffffffffffffffffffffffffffffffffff8262000604565b6200064f868362000604565b95508019841693508086168417925050509392505050565b6000819050919050565b6000819050919050565b60006200069c62000696620006908462000667565b62000671565b62000667565b9050919050565b6000819050919050565b620006b8836200067b565b620006d0620006c782620006a3565b84845462000611565b825550505050565b600090565b620006e7620006d8565b620006f4818484620006ad565b505050565b5b818110156200071c5762000710600082620006dd565b600181019050620006fa565b5050565b601f8211156200076b576200073581620005df565b6200074084620005f4565b8101602085101562000750578190505b620007686200075f85620005f4565b830182620006f9565b50505b505050565b600082821c905092915050565b6000620007906000198460080262000770565b1980831691505092915050565b6000620007ab83836200077d565b9150826002028217905092915050565b620007c68262000541565b67ffffffffffffffff811115620007e257620007e16200054c565b5b620007ee8254620005aa565b620007fb82828562000720565b600060209050601f8311600181146200083357600084156200081e578287015190505b6200082a85826200079d565b8655506200089a565b601f1984166200084386620005df565b60005b828110156200086d5784890151825560018201915060208501945060208101905062000846565b868310156200088d578489015162000889601f8916826200077d565b8355505b6001600288020188555050505b505050505050565b6000604051905090565b600080fd5b600080fd5b600080fd5b600080fd5b6000601f19601f8301169050919050565b620008dc82620008c0565b810181811067ffffffffffffffff82111715620008fe57620008fd6200054c565b5b80604052505050565b600062000913620008a2565b9050620009218282620008d1565b919050565b600067ffffffffffffffff8211156200094457620009436200054c565b5b6200094f82620008c0565b9050602081019050919050565b60005b838110156200097c5780820151818401526020810190506200095f565b838111156200098c576000848401525b50505050565b6000620009a9620009a38462000926565b62000907565b905082815260208101848484011115620009c857620009c7620008bb565b5b620009d58482856200095c565b509392505050565b600082601f830112620009f557620009f4620008b6565b5b815162000a0784826020860162000992565b91505092915050565b600067ffffffffffffffff82111562000a2e5762000a2d6200054c565b5b602082029050602081019050919050565b600080fd5b62000a4f8162000667565b811462000a5b57600080fd5b50565b60008151905062000a6f8162000a44565b92915050565b600062000a8c62000a868462000a10565b62000907565b9050808382526020820190506020840283018581111562000ab25762000ab162000a3f565b5b835b8181101562000adf578062000aca888262000a5e565b84526020840193505060208101905062000ab4565b5050509392505050565b600082601f83011262000b015762000b00620008b6565b5b815162000b1384826020860162000a75565b91505092915050565b600080600080600060a0868803121562000b3b5762000b3a620008ac565b5b600086015167ffffffffffffffff81111562000b5c5762000b5b620008b1565b5b62000b6a88828901620009dd565b955050602086015167ffffffffffffffff81111562000b8e5762000b8d620008b1565b5b62000b9c88828901620009dd565b945050604086015167ffffffffffffffff81111562000bc05762000bbf620008b1565b5b62000bce88828901620009dd565b935050606086015167ffffffffffffffff81111562000bf25762000bf1620008b1565b5b62000c008882890162000ae9565b925050608086015167ffffffffffffffff81111562000c245762000c23620008b1565b5b62000c328882890162000ae9565b9150509295509295909350565b600082825260208201905092915050565b7f57726f6e67206461746121000000000000000000000000000000000000000000600082015250565b600062000c88600b8362000c3f565b915062000c958262000c50565b602082019050919050565b6000602082019050818103600083015262000cbb8162000c79565b9050919050565b7f4e487b7100000000000000000000000000000000000000000000000000000000600052603260045260246000fd5b7f4e487b7100000000000000000000000000000000000000000000000000000000600052601160045260246000fd5b600062000d2d8262000667565b91507fffffffffffffffffffffffffffffffffffffffffffffffffffffffffffffffff820362000d625762000d6162000cf1565b5b600182019050919050565b7f4f776e61626c653a2063616c6c6572206973206e6f7420746865206f776e6572600082015250565b600062000da560208362000c3f565b915062000db28262000d6d565b602082019050919050565b6000602082019050818103600083015262000dd88162000d96565b9050919050565b6155248062000def6000396000f3fe6080604052600436106102725760003560e01c806370a082311161014f578063b88d4fde116100c1578063df6de9af1161007a578063df6de9af14610934578063e985e9c51461095d578063efbd73f41461099a578063f2c4ce1e146109c3578063f2fde38b146109ec578063fcfb770b14610a1557610272565b8063b88d4fde14610826578063c66828621461084f578063c87b56dd1461087a578063d0f0d2ac146108b7578063d5abeb01146108e0578063da3ef23f1461090b57610272565b8063921c1b6c11610113578063921c1b6c14610737578063937cf5ac1461076257806395d89b411461079f578063a0712d68146107ca578063a22cb465146107e6578063a475b5dd1461080f57610272565b806370a0823114610666578063715018a6146106a35780637e2d92da146106ba5780637f00c7a6146106e35780638da5cb5b1461070c57610272565b80633ccfd60b116101e857806355f804b3116101ac57806355f804b3146105445780635c975abb1461056d5780635d4b0bc01461059857806361a873bb146105d55780636352211e146105fe5780636c0360eb1461063b57610272565b80633ccfd60b1461048057806342842e0e1461048a578063438b6300146104b357806344a0d68a146104f0578063518302271461051957610272565b8063095ea7b31161023a578063095ea7b31461037057806313faede614610399578063180acece146103c457806318160ddd14610401578063239c70ae1461042c57806323b872dd1461045757610272565b806301ffc9a71461027757806302329a29146102b457806306fdde03146102dd578063081812fc14610308578063081c8c4414610345575b600080fd5b34801561028357600080fd5b5061029e600480360381019061029991906133f1565b610a31565b6040516102ab9190613439565b60405180910390f35b3480156102c057600080fd5b506102db60048036038101906102d69190613480565b610b13565b005b3480156102e957600080fd5b506102f2610b38565b6040516102ff9190613546565b60405180910390f35b34801561031457600080fd5b5061032f600480360381019061032a919061359e565b610bca565b60405161033c919061360c565b60405180910390f35b34801561035157600080fd5b5061035a610c10565b6040516103679190613546565b60405180910390f35b34801561037c57600080fd5b5061039760048036038101906103929190613653565b610c9e565b005b3480156103a557600080fd5b506103ae610db5565b6040516103bb91906136a2565b60405180910390f35b3480156103d057600080fd5b506103eb60048036038101906103e6919061372c565b610dbb565b6040516103f89190613439565b60405180910390f35b34801561040d57600080fd5b50610416610f01565b60405161042391906136a2565b60405180910390f35b34801561043857600080fd5b50610441610f12565b60405161044e91906136a2565b60405180910390f35b34801561046357600080fd5b5061047e600480360381019061047991906137b9565b610f18565b005b610488610f78565b005b34801561049657600080fd5b506104b160048036038101906104ac91906137b9565b6110b2565b005b3480156104bf57600080fd5b506104da60048036038101906104d5919061380c565b6110d2565b6040516104e791906138f7565b60405180910390f35b3480156104fc57600080fd5b506105176004803603810190610512919061359e565b6111dc565b005b34801561052557600080fd5b5061052e6111ee565b60405161053b9190613439565b60405180910390f35b34801561055057600080fd5b5061056b60048036038101906105669190613a4e565b611201565b005b34801561057957600080fd5b5061058261121c565b60405161058f9190613439565b60405180910390f35b3480156105a457600080fd5b506105bf60048036038101906105ba919061359e565b61122f565b6040516105cc9190613afb565b60405180910390f35b3480156105e157600080fd5b506105fc60048036038101906105f79190613b16565b611309565b005b34801561060a57600080fd5b506106256004803603810190610620919061359e565b6113f9565b604051610632919061360c565b60405180910390f35b34801561064757600080fd5b506106506114aa565b60405161065d9190613546565b60405180910390f35b34801561067257600080fd5b5061068d6004803603810190610688919061380c565b611538565b60405161069a91906136a2565b60405180910390f35b3480156106af57600080fd5b506106b86115ef565b005b3480156106c657600080fd5b506106e160048036038101906106dc9190613c59565b611603565b005b3480156106ef57600080fd5b5061070a6004803603810190610705919061359e565b6117e1565b005b34801561071857600080fd5b506107216117f3565b60405161072e919061360c565b60405180910390f35b34801561074357600080fd5b5061074c61181d565b6040516107599190613439565b60405180910390f35b34801561076e57600080fd5b506107896004803603810190610784919061359e565b611830565b6040516107969190613439565b60405180910390f35b3480156107ab57600080fd5b506107b461194f565b6040516107c19190613546565b60405180910390f35b6107e460048036038101906107df919061359e565b6119e1565b005b3480156107f257600080fd5b5061080d60048036038101906108089190613cd1565b611bdf565b005b34801561081b57600080fd5b50610824611bf5565b005b34801561083257600080fd5b5061084d60048036038101906108489190613db2565b611c1a565b005b34801561085b57600080fd5b50610864611c7c565b6040516108719190613546565b60405180910390f35b34801561088657600080fd5b506108a1600480360381019061089c919061359e565b611d0a565b6040516108ae9190613546565b60405180910390f35b3480156108c357600080fd5b506108de60048036038101906108d99190613480565b611e62565b005b3480156108ec57600080fd5b506108f5611e87565b60405161090291906136a2565b60405180910390f35b34801561091757600080fd5b50610932600480360381019061092d9190613a4e565b611e8d565b005b34801561094057600080fd5b5061095b6004803603810190610956919061380c565b611ea8565b005b34801561096957600080fd5b50610984600480360381019061097f9190613e35565b611f49565b6040516109919190613439565b60405180910390f35b3480156109a657600080fd5b506109c160048036038101906109bc9190613e75565b611fdd565b005b3480156109cf57600080fd5b506109ea60048036038101906109e59190613a4e565b612144565b005b3480156109f857600080fd5b50610a136004803603810190610a0e919061380c565b61215f565b005b610a2f6004803603810190610a2a9190613eb5565b6121e2565b005b60007f80ac58cd000000000000000000000000000000000000000000000000000000007bffffffffffffffffffffffffffffffffffffffffffffffffffffffff1916827bffffffffffffffffffffffffffffffffffffffffffffffffffffffff19161480610afc57507f5b5e139f000000000000000000000000000000000000000000000000000000007bffffffffffffffffffffffffffffffffffffffffffffffffffffffff1916827bffffffffffffffffffffffffffffffffffffffffffffffffffffffff1916145b80610b0c5750610b0b8261248a565b5b9050919050565b610b1b6124f4565b80600f60006101000a81548160ff02191690831515021790555050565b606060008054610b4790613f71565b80601f0160208091040260200160405190810160405280929190818152602001828054610b7390613f71565b8015610bc05780601f10610b9557610100808354040283529160200191610bc0565b820191906000526020600020905b815481529060010190602001808311610ba357829003601f168201915b5050505050905090565b6000610bd582612572565b6004600083815260200190815260200160002060009054906101000a900473ffffffffffffffffffffffffffffffffffffffff169050919050565b60098054610c1d90613f71565b80601f0160208091040260200160405190810160405280929190818152602001828054610c4990613f71565b8015610c965780601f10610c6b57610100808354040283529160200191610c96565b820191906000526020600020905b815481529060010190602001808311610c7957829003601f168201915b505050505081565b6000610ca9826113f9565b90508073ffffffffffffffffffffffffffffffffffffffff168373ffffffffffffffffffffffffffffffffffffffff1603610d19576040517f08c379a0000000000000000000000000000000000000000000000000000000008152600401610d1090614014565b60405180910390fd5b8073ffffffffffffffffffffffffffffffffffffffff16610d386125bd565b73ffffffffffffffffffffffffffffffffffffffff161480610d675750610d6681610d616125bd565b611f49565b5b610da6576040517f08c379a0000000000000000000000000000000000000000000000000000000008152600401610d9d906140a6565b60405180910390fd5b610db083836125c5565b505050565b600c5481565b60008030888888604051602001610dd5949392919061412f565b60405160208183030381529060405280519060200120905060006040518060400160405280601c81526020017f19457468657265756d205369676e6564204d6573736167653a0a333200000000815250905060008183604051602001610e3c9291906141e5565b604051602081830303815290604052805190602001209050600060018289898960405160008152602001604052604051610e79949392919061422b565b6020604051602081039080840390855afa158015610e9b573d6000803e3d6000fd5b505050602060405103519050610eaf6117f3565b73ffffffffffffffffffffffffffffffffffffffff168173ffffffffffffffffffffffffffffffffffffffff1603610eee576001945050505050610ef7565b60009450505050505b9695505050505050565b6000610f0d600861267e565b905090565b600e5481565b610f29610f236125bd565b8261268c565b610f68576040517f08c379a0000000000000000000000000000000000000000000000000000000008152600401610f5f906142e2565b60405180910390fd5b610f73838383612721565b505050565b610f806124f4565b6000600f60029054906101000a900473ffffffffffffffffffffffffffffffffffffffff1673ffffffffffffffffffffffffffffffffffffffff166103e8601947610fcb9190614331565b610fd591906143ba565b604051610fe190614411565b60006040518083038185875af1925050503d806000811461101e576040519150601f19603f3d011682016040523d82523d6000602084013e611023565b606091505b505090508061103157600080fd5b600061103b6117f3565b73ffffffffffffffffffffffffffffffffffffffff164760405161105e90614411565b60006040518083038185875af1925050503d806000811461109b576040519150601f19603f3d011682016040523d82523d6000602084013e6110a0565b606091505b50509050806110ae57600080fd5b5050565b6110cd83838360405180602001604052806000815250611c1a565b505050565b606060006110df83611538565b905060008167ffffffffffffffff8111156110fd576110fc613923565b5b60405190808252806020026020018201604052801561112b5781602001602082028036833780820191505090505b50905060006001905060005b83811080156111485750600d548211155b156111d0576000611158836113f9565b90508673ffffffffffffffffffffffffffffffffffffffff168173ffffffffffffffffffffffffffffffffffffffff16036111bc57828483815181106111a1576111a0614426565b5b60200260200101818152505081806111b890614455565b9250505b82806111c790614455565b93505050611137565b82945050505050919050565b6111e46124f4565b80600c8190555050565b600f60019054906101000a900460ff1681565b6112096124f4565b80600a90816112189190614649565b5050565b600f60009054906101000a900460ff1681565b611237613359565b6010600083815260200190815260200160002060000160009054906101000a900460ff1661129a576040517f08c379a000000000000000000000000000000000000000000000000000000000815260040161129190614767565b60405180910390fd5b601060008381526020019081526020016000206040518060800160405290816000820160009054906101000a900460ff161515151581526020016000820160019054906101000a900460ff16151515158152602001600182015481526020016002820154815250509050919050565b6113116124f4565b600f60009054906101000a900460ff16611360576040517f08c379a0000000000000000000000000000000000000000000000000000000008152600401611357906147d3565b60405180910390fd5b836010600087815260200190815260200160002060000160006101000a81548160ff021916908315150217905550826010600087815260200190815260200160002060000160016101000a81548160ff0219169083151502179055508160106000878152602001908152602001600020600101819055508060106000878152602001908152602001600020600201819055505050505050565b6000806002600084815260200190815260200160002060009054906101000a900473ffffffffffffffffffffffffffffffffffffffff169050600073ffffffffffffffffffffffffffffffffffffffff168173ffffffffffffffffffffffffffffffffffffffff16036114a1576040517f08c379a00000000000000000000000000000000000000000000000000000000081526004016114989061483f565b60405180910390fd5b80915050919050565b600a80546114b790613f71565b80601f01602080910402602001604051908101604052809291908181526020018280546114e390613f71565b80156115305780601f1061150557610100808354040283529160200191611530565b820191906000526020600020905b81548152906001019060200180831161151357829003601f168201915b505050505081565b60008073ffffffffffffffffffffffffffffffffffffffff168273ffffffffffffffffffffffffffffffffffffffff16036115a8576040517f08c379a000000000000000000000000000000000000000000000000000000000815260040161159f906148d1565b60405180910390fd5b600360008373ffffffffffffffffffffffffffffffffffffffff1673ffffffffffffffffffffffffffffffffffffffff168152602001908152602001600020549050919050565b6115f76124f4565b6116016000612987565b565b61160b6124f4565b600f60009054906101000a900460ff1661165a576040517f08c379a0000000000000000000000000000000000000000000000000000000008152600401611651906147d3565b60405180910390fd5b805182511461169e576040517f08c379a00000000000000000000000000000000000000000000000000000000081526004016116959061493d565b60405180910390fd5b60005b82518110156117dc5760016010600083815260200190815260200160002060000160006101000a81548160ff02191690831515021790555060008382815181106116ee576116ed614426565b5b60200260200101510361172f5760006010600083815260200190815260200160002060000160016101000a81548160ff02191690831515021790555061175f565b60016010600083815260200190815260200160002060000160016101000a81548160ff0219169083151502179055505b82818151811061177257611771614426565b5b602002602001015160106000838152602001908152602001600020600101819055508181815181106117a7576117a6614426565b5b6020026020010151601060008381526020019081526020016000206002018190555080806117d490614455565b9150506116a1565b505050565b6117e96124f4565b80600e8190555050565b6000600660009054906101000a900473ffffffffffffffffffffffffffffffffffffffff16905090565b601160009054906101000a900460ff1681565b60006010600083815260200190815260200160002060000160009054906101000a900460ff16611895576040517f08c379a000000000000000000000000000000000000000000000000000000000815260040161188c90614767565b60405180910390fd5b600015156010600084815260200190815260200160002060000160019054906101000a900460ff16151514806119375750611936601060008481526020019081526020016000206040518060800160405290816000820160009054906101000a900460ff161515151581526020016000820160019054906101000a900460ff1615151515815260200160018201548152602001600282015481525050612a4d565b5b15611945576001905061194a565b600090505b919050565b60606001805461195e90613f71565b80601f016020809104026020016040519081016040528092919081815260200182805461198a90613f71565b80156119d75780601f106119ac576101008083540402835291602001916119d7565b820191906000526020600020905b8154815290600101906020018083116119ba57829003601f168201915b5050505050905090565b600260075403611a26576040517f08c379a0000000000000000000000000000000000000000000000000000000008152600401611a1d906149a9565b60405180910390fd5b600260078190555080600f60009054906101000a900460ff1615611a7f576040517f08c379a0000000000000000000000000000000000000000000000000000000008152600401611a7690614a15565b60405180910390fd5b600081118015611a915750600e548111155b611ad0576040517f08c379a0000000000000000000000000000000000000000000000000000000008152600401611ac790614a81565b60405180910390fd5b600d5481611ade600861267e565b611ae89190614aa1565b1115611b29576040517f08c379a0000000000000000000000000000000000000000000000000000000008152600401611b2090614b43565b60405180910390fd5b81600c54611b379190614331565b341015611b79576040517f08c379a0000000000000000000000000000000000000000000000000000000008152600401611b7090614baf565b60405180910390fd5b601160009054906101000a900460ff1615611bc9576040517f08c379a0000000000000000000000000000000000000000000000000000000008152600401611bc090614c41565b60405180910390fd5b611bd33383612ad7565b50600160078190555050565b611bf1611bea6125bd565b8383612b17565b5050565b611bfd6124f4565b6001600f60016101000a81548160ff021916908315150217905550565b611c2b611c256125bd565b8361268c565b611c6a576040517f08c379a0000000000000000000000000000000000000000000000000000000008152600401611c61906142e2565b60405180910390fd5b611c7684848484612c83565b50505050565b600b8054611c8990613f71565b80601f0160208091040260200160405190810160405280929190818152602001828054611cb590613f71565b8015611d025780601f10611cd757610100808354040283529160200191611d02565b820191906000526020600020905b815481529060010190602001808311611ce557829003601f168201915b505050505081565b6060611d1582612cdf565b611d54576040517f08c379a0000000000000000000000000000000000000000000000000000000008152600401611d4b90614cd3565b60405180910390fd5b60001515600f60019054906101000a900460ff16151503611e015760098054611d7c90613f71565b80601f0160208091040260200160405190810160405280929190818152602001828054611da890613f71565b8015611df55780601f10611dca57610100808354040283529160200191611df5565b820191906000526020600020905b815481529060010190602001808311611dd857829003601f168201915b50505050509050611e5d565b6000611e0b612d4b565b90506000815111611e2b5760405180602001604052806000815250611e59565b80611e3584612ddd565b600b604051602001611e4993929190614db2565b6040516020818303038152906040525b9150505b919050565b611e6a6124f4565b80601160006101000a81548160ff02191690831515021790555050565b600d5481565b611e956124f4565b80600b9081611ea49190614649565b5050565b600260075403611eed576040517f08c379a0000000000000000000000000000000000000000000000000000000008152600401611ee4906149a9565b60405180910390fd5b6002600781905550611efd6124f4565b80600f60026101000a81548173ffffffffffffffffffffffffffffffffffffffff021916908373ffffffffffffffffffffffffffffffffffffffff160217905550600160078190555050565b6000600560008473ffffffffffffffffffffffffffffffffffffffff1673ffffffffffffffffffffffffffffffffffffffff16815260200190815260200160002060008373ffffffffffffffffffffffffffffffffffffffff1673ffffffffffffffffffffffffffffffffffffffff16815260200190815260200160002060009054906101000a900460ff16905092915050565b600260075403612022576040517f08c379a0000000000000000000000000000000000000000000000000000000008152600401612019906149a9565b60405180910390fd5b600260078190555081600f60009054906101000a900460ff161561207b576040517f08c379a000000000000000000000000000000000000000000000000000000000815260040161207290614a15565b60405180910390fd5b60008111801561208d5750600e548111155b6120cc576040517f08c379a00000000000000000000000000000000000000000000000000000000081526004016120c390614a81565b60405180910390fd5b600d54816120da600861267e565b6120e49190614aa1565b1115612125576040517f08c379a000000000000000000000000000000000000000000000000000000000815260040161211c90614b43565b60405180910390fd5b61212d6124f4565b6121378284612ad7565b5060016007819055505050565b61214c6124f4565b806009908161215b9190614649565b5050565b6121676124f4565b600073ffffffffffffffffffffffffffffffffffffffff168173ffffffffffffffffffffffffffffffffffffffff16036121d6576040517f08c379a00000000000000000000000000000000000000000000000000000000081526004016121cd90614e55565b60405180910390fd5b6121df81612987565b50565b600260075403612227576040517f08c379a000000000000000000000000000000000000000000000000000000000815260040161221e906149a9565b60405180910390fd5b600260078190555085600f60009054906101000a900460ff1615612280576040517f08c379a000000000000000000000000000000000000000000000000000000000815260040161227790614a15565b60405180910390fd5b6000811180156122925750600e548111155b6122d1576040517f08c379a00000000000000000000000000000000000000000000000000000000081526004016122c890614a81565b60405180910390fd5b600d54816122df600861267e565b6122e99190614aa1565b111561232a576040517f08c379a000000000000000000000000000000000000000000000000000000000815260040161232190614b43565b60405180910390fd5b84612333610f01565b858585612344338686868686610dbb565b612383576040517f08c379a000000000000000000000000000000000000000000000000000000000815260040161237a90614ec1565b60405180910390fd5b601160009054906101000a900460ff166123d2576040517f08c379a00000000000000000000000000000000000000000000000000000000081526004016123c990614f53565b60405180910390fd5b6123db8b611830565b61241a576040517f08c379a000000000000000000000000000000000000000000000000000000000815260040161241190614fbf565b60405180910390fd5b8b600c546124289190614331565b34101561246a576040517f08c379a000000000000000000000000000000000000000000000000000000000815260040161246190614baf565b60405180910390fd5b612474338d612ad7565b5050505050506001600781905550505050505050565b60007f01ffc9a7000000000000000000000000000000000000000000000000000000007bffffffffffffffffffffffffffffffffffffffffffffffffffffffff1916827bffffffffffffffffffffffffffffffffffffffffffffffffffffffff1916149050919050565b6124fc6125bd565b73ffffffffffffffffffffffffffffffffffffffff1661251a6117f3565b73ffffffffffffffffffffffffffffffffffffffff1614612570576040517f08c379a00000000000000000000000000000000000000000000000000000000081526004016125679061502b565b60405180910390fd5b565b61257b81612cdf565b6125ba576040517f08c379a00000000000000000000000000000000000000000000000000000000081526004016125b19061483f565b60405180910390fd5b50565b600033905090565b816004600083815260200190815260200160002060006101000a81548173ffffffffffffffffffffffffffffffffffffffff021916908373ffffffffffffffffffffffffffffffffffffffff160217905550808273ffffffffffffffffffffffffffffffffffffffff16612638836113f9565b73ffffffffffffffffffffffffffffffffffffffff167f8c5be1e5ebec7d5bd14f71427d1e84f3dd0314c0f7b2291e5b200ac8c7c3b92560405160405180910390a45050565b600081600001549050919050565b600080612698836113f9565b90508073ffffffffffffffffffffffffffffffffffffffff168473ffffffffffffffffffffffffffffffffffffffff1614806126da57506126d98185611f49565b5b8061271857508373ffffffffffffffffffffffffffffffffffffffff1661270084610bca565b73ffffffffffffffffffffffffffffffffffffffff16145b91505092915050565b8273ffffffffffffffffffffffffffffffffffffffff16612741826113f9565b73ffffffffffffffffffffffffffffffffffffffff1614612797576040517f08c379a000000000000000000000000000000000000000000000000000000000815260040161278e906150bd565b60405180910390fd5b600073ffffffffffffffffffffffffffffffffffffffff168273ffffffffffffffffffffffffffffffffffffffff1603612806576040517f08c379a00000000000000000000000000000000000000000000000000000000081526004016127fd9061514f565b60405180910390fd5b612811838383612f3d565b61281c6000826125c5565b6001600360008573ffffffffffffffffffffffffffffffffffffffff1673ffffffffffffffffffffffffffffffffffffffff168152602001908152602001600020600082825461286c919061516f565b925050819055506001600360008473ffffffffffffffffffffffffffffffffffffffff1673ffffffffffffffffffffffffffffffffffffffff16815260200190815260200160002060008282546128c39190614aa1565b92505081905550816002600083815260200190815260200160002060006101000a81548173ffffffffffffffffffffffffffffffffffffffff021916908373ffffffffffffffffffffffffffffffffffffffff160217905550808273ffffffffffffffffffffffffffffffffffffffff168473ffffffffffffffffffffffffffffffffffffffff167fddf252ad1be2c89b69c2b068fc378daa952ba7f163c4a11628f55a4df523b3ef60405160405180910390a4612982838383612f42565b505050565b6000600660009054906101000a900473ffffffffffffffffffffffffffffffffffffffff16905081600660006101000a81548173ffffffffffffffffffffffffffffffffffffffff021916908373ffffffffffffffffffffffffffffffffffffffff1602179055508173ffffffffffffffffffffffffffffffffffffffff168173ffffffffffffffffffffffffffffffffffffffff167f8be0079c531659141344cd1fd0a4f28419497f9722a3daafe3b4186f6b6457e060405160405180910390a35050565b600080826040015111612a95576040517f08c379a0000000000000000000000000000000000000000000000000000000008152600401612a8c906151ef565b60405180910390fd5b8160400151421015612aaa5760009050612ad2565b600082606001511115612acd574282606001511015612acc5760009050612ad2565b5b600190505b919050565b60005b81811015612b1257612aec6008612f47565b612aff83612afa600861267e565b612f5d565b8080612b0a90614455565b915050612ada565b505050565b8173ffffffffffffffffffffffffffffffffffffffff168373ffffffffffffffffffffffffffffffffffffffff1603612b85576040517f08c379a0000000000000000000000000000000000000000000000000000000008152600401612b7c9061525b565b60405180910390fd5b80600560008573ffffffffffffffffffffffffffffffffffffffff1673ffffffffffffffffffffffffffffffffffffffff16815260200190815260200160002060008473ffffffffffffffffffffffffffffffffffffffff1673ffffffffffffffffffffffffffffffffffffffff16815260200190815260200160002060006101000a81548160ff0219169083151502179055508173ffffffffffffffffffffffffffffffffffffffff168373ffffffffffffffffffffffffffffffffffffffff167f17307eab39ab6107e8899845ad3d59bd9653f200f220920489ca2b5937696c3183604051612c769190613439565b60405180910390a3505050565b612c8e848484612721565b612c9a84848484612f7b565b612cd9576040517f08c379a0000000000000000000000000000000000000000000000000000000008152600401612cd0906152ed565b60405180910390fd5b50505050565b60008073ffffffffffffffffffffffffffffffffffffffff166002600084815260200190815260200160002060009054906101000a900473ffffffffffffffffffffffffffffffffffffffff1673ffffffffffffffffffffffffffffffffffffffff1614159050919050565b6060600a8054612d5a90613f71565b80601f0160208091040260200160405190810160405280929190818152602001828054612d8690613f71565b8015612dd35780601f10612da857610100808354040283529160200191612dd3565b820191906000526020600020905b815481529060010190602001808311612db657829003601f168201915b5050505050905090565b606060008203612e24576040518060400160405280600181526020017f30000000000000000000000000000000000000000000000000000000000000008152509050612f38565b600082905060005b60008214612e56578080612e3f90614455565b915050600a82612e4f91906143ba565b9150612e2c565b60008167ffffffffffffffff811115612e7257612e71613923565b5b6040519080825280601f01601f191660200182016040528015612ea45781602001600182028036833780820191505090505b5090505b60008514612f3157600182612ebd919061516f565b9150600a85612ecc919061530d565b6030612ed89190614aa1565b60f81b818381518110612eee57612eed614426565b5b60200101907effffffffffffffffffffffffffffffffffffffffffffffffffffffffffffff1916908160001a905350600a85612f2a91906143ba565b9450612ea8565b8093505050505b919050565b505050565b505050565b6001816000016000828254019250508190555050565b612f77828260405180602001604052806000815250613102565b5050565b6000612f9c8473ffffffffffffffffffffffffffffffffffffffff1661315d565b156130f5578373ffffffffffffffffffffffffffffffffffffffff1663150b7a02612fc56125bd565b8786866040518563ffffffff1660e01b8152600401612fe79493929190615388565b6020604051808303816000875af192505050801561302357506040513d601f19601f8201168201806040525081019061302091906153e9565b60015b6130a5573d8060008114613053576040519150601f19603f3d011682016040523d82523d6000602084013e613058565b606091505b50600081510361309d576040517f08c379a0000000000000000000000000000000000000000000000000000000008152600401613094906152ed565b60405180910390fd5b805181602001fd5b63150b7a0260e01b7bffffffffffffffffffffffffffffffffffffffffffffffffffffffff1916817bffffffffffffffffffffffffffffffffffffffffffffffffffffffff1916149150506130fa565b600190505b949350505050565b61310c8383613180565b6131196000848484612f7b565b613158576040517f08c379a000000000000000000000000000000000000000000000000000000000815260040161314f906152ed565b60405180910390fd5b505050565b6000808273ffffffffffffffffffffffffffffffffffffffff163b119050919050565b600073ffffffffffffffffffffffffffffffffffffffff168273ffffffffffffffffffffffffffffffffffffffff16036131ef576040517f08c379a00000000000000000000000000000000000000000000000000000000081526004016131e690615462565b60405180910390fd5b6131f881612cdf565b15613238576040517f08c379a000000000000000000000000000000000000000000000000000000000815260040161322f906154ce565b60405180910390fd5b61324460008383612f3d565b6001600360008473ffffffffffffffffffffffffffffffffffffffff1673ffffffffffffffffffffffffffffffffffffffff16815260200190815260200160002060008282546132949190614aa1565b92505081905550816002600083815260200190815260200160002060006101000a81548173ffffffffffffffffffffffffffffffffffffffff021916908373ffffffffffffffffffffffffffffffffffffffff160217905550808273ffffffffffffffffffffffffffffffffffffffff16600073ffffffffffffffffffffffffffffffffffffffff167fddf252ad1be2c89b69c2b068fc378daa952ba7f163c4a11628f55a4df523b3ef60405160405180910390a461335560008383612f42565b5050565b604051806080016040528060001515815260200160001515815260200160008152602001600081525090565b6000604051905090565b600080fd5b600080fd5b60007fffffffff0000000000000000000000000000000000000000000000000000000082169050919050565b6133ce81613399565b81146133d957600080fd5b50565b6000813590506133eb816133c5565b92915050565b6000602082840312156134075761340661338f565b5b6000613415848285016133dc565b91505092915050565b60008115159050919050565b6134338161341e565b82525050565b600060208201905061344e600083018461342a565b92915050565b61345d8161341e565b811461346857600080fd5b50565b60008135905061347a81613454565b92915050565b6000602082840312156134965761349561338f565b5b60006134a48482850161346b565b91505092915050565b600081519050919050565b600082825260208201905092915050565b60005b838110156134e75780820151818401526020810190506134cc565b838111156134f6576000848401525b50505050565b6000601f19601f8301169050919050565b6000613518826134ad565b61352281856134b8565b93506135328185602086016134c9565b61353b816134fc565b840191505092915050565b60006020820190508181036000830152613560818461350d565b905092915050565b6000819050919050565b61357b81613568565b811461358657600080fd5b50565b60008135905061359881613572565b92915050565b6000602082840312156135b4576135b361338f565b5b60006135c284828501613589565b91505092915050565b600073ffffffffffffffffffffffffffffffffffffffff82169050919050565b60006135f6826135cb565b9050919050565b613606816135eb565b82525050565b600060208201905061362160008301846135fd565b92915050565b613630816135eb565b811461363b57600080fd5b50565b60008135905061364d81613627565b92915050565b6000806040838503121561366a5761366961338f565b5b60006136788582860161363e565b925050602061368985828601613589565b9150509250929050565b61369c81613568565b82525050565b60006020820190506136b76000830184613693565b92915050565b600060ff82169050919050565b6136d3816136bd565b81146136de57600080fd5b50565b6000813590506136f0816136ca565b92915050565b6000819050919050565b613709816136f6565b811461371457600080fd5b50565b60008135905061372681613700565b92915050565b60008060008060008060c087890312156137495761374861338f565b5b600061375789828a0161363e565b965050602061376889828a01613589565b955050604061377989828a01613589565b945050606061378a89828a016136e1565b935050608061379b89828a01613717565b92505060a06137ac89828a01613717565b9150509295509295509295565b6000806000606084860312156137d2576137d161338f565b5b60006137e08682870161363e565b93505060206137f18682870161363e565b925050604061380286828701613589565b9150509250925092565b6000602082840312156138225761382161338f565b5b60006138308482850161363e565b91505092915050565b600081519050919050565b600082825260208201905092915050565b6000819050602082019050919050565b61386e81613568565b82525050565b60006138808383613865565b60208301905092915050565b6000602082019050919050565b60006138a482613839565b6138ae8185613844565b93506138b983613855565b8060005b838110156138ea5781516138d18882613874565b97506138dc8361388c565b9250506001810190506138bd565b5085935050505092915050565b600060208201905081810360008301526139118184613899565b905092915050565b600080fd5b600080fd5b7f4e487b7100000000000000000000000000000000000000000000000000000000600052604160045260246000fd5b61395b826134fc565b810181811067ffffffffffffffff8211171561397a57613979613923565b5b80604052505050565b600061398d613385565b90506139998282613952565b919050565b600067ffffffffffffffff8211156139b9576139b8613923565b5b6139c2826134fc565b9050602081019050919050565b82818337600083830152505050565b60006139f16139ec8461399e565b613983565b905082815260208101848484011115613a0d57613a0c61391e565b5b613a188482856139cf565b509392505050565b600082601f830112613a3557613a34613919565b5b8135613a458482602086016139de565b91505092915050565b600060208284031215613a6457613a6361338f565b5b600082013567ffffffffffffffff811115613a8257613a81613394565b5b613a8e84828501613a20565b91505092915050565b613aa08161341e565b82525050565b608082016000820151613abc6000850182613a97565b506020820151613acf6020850182613a97565b506040820151613ae26040850182613865565b506060820151613af56060850182613865565b50505050565b6000608082019050613b106000830184613aa6565b92915050565b600080600080600060a08688031215613b3257613b3161338f565b5b6000613b4088828901613589565b9550506020613b518882890161346b565b9450506040613b628882890161346b565b9350506060613b7388828901613589565b9250506080613b8488828901613589565b9150509295509295909350565b600067ffffffffffffffff821115613bac57613bab613923565b5b602082029050602081019050919050565b600080fd5b6000613bd5613bd084613b91565b613983565b90508083825260208201905060208402830185811115613bf857613bf7613bbd565b5b835b81811015613c215780613c0d8882613589565b845260208401935050602081019050613bfa565b5050509392505050565b600082601f830112613c4057613c3f613919565b5b8135613c50848260208601613bc2565b91505092915050565b60008060408385031215613c7057613c6f61338f565b5b600083013567ffffffffffffffff811115613c8e57613c8d613394565b5b613c9a85828601613c2b565b925050602083013567ffffffffffffffff811115613cbb57613cba613394565b5b613cc785828601613c2b565b9150509250929050565b60008060408385031215613ce857613ce761338f565b5b6000613cf68582860161363e565b9250506020613d078582860161346b565b9150509250929050565b600067ffffffffffffffff821115613d2c57613d2b613923565b5b613d35826134fc565b9050602081019050919050565b6000613d55613d5084613d11565b613983565b905082815260208101848484011115613d7157613d7061391e565b5b613d7c8482856139cf565b509392505050565b600082601f830112613d9957613d98613919565b5b8135613da9848260208601613d42565b91505092915050565b60008060008060808587031215613dcc57613dcb61338f565b5b6000613dda8782880161363e565b9450506020613deb8782880161363e565b9350506040613dfc87828801613589565b925050606085013567ffffffffffffffff811115613e1d57613e1c613394565b5b613e2987828801613d84565b91505092959194509250565b60008060408385031215613e4c57613e4b61338f565b5b6000613e5a8582860161363e565b9250506020613e6b8582860161363e565b9150509250929050565b60008060408385031215613e8c57613e8b61338f565b5b6000613e9a85828601613589565b9250506020613eab8582860161363e565b9150509250929050565b60008060008060008060c08789031215613ed257613ed161338f565b5b6000613ee089828a01613589565b9650506020613ef189828a01613589565b9550506040613f0289828a01613589565b9450506060613f1389828a016136e1565b9350506080613f2489828a01613717565b92505060a0613f3589828a01613717565b9150509295509295509295565b7f4e487b7100000000000000000000000000000000000000000000000000000000600052602260045260246000fd5b60006002820490506001821680613f8957607f821691505b602082108103613f9c57613f9b613f42565b5b50919050565b7f4552433732313a20617070726f76616c20746f2063757272656e74206f776e6560008201527f7200000000000000000000000000000000000000000000000000000000000000602082015250565b6000613ffe6021836134b8565b915061400982613fa2565b604082019050919050565b6000602082019050818103600083015261402d81613ff1565b9050919050565b7f4552433732313a20617070726f76652063616c6c6572206973206e6f7420746f60008201527f6b656e206f776e6572206e6f7220617070726f76656420666f7220616c6c0000602082015250565b6000614090603e836134b8565b915061409b82614034565b604082019050919050565b600060208201905081810360008301526140bf81614083565b9050919050565b60008160601b9050919050565b60006140de826140c6565b9050919050565b60006140f0826140d3565b9050919050565b614108614103826135eb565b6140e5565b82525050565b6000819050919050565b61412961412482613568565b61410e565b82525050565b600061413b82876140f7565b60148201915061414b82866140f7565b60148201915061415b8285614118565b60208201915061416b8284614118565b60208201915081905095945050505050565b600081519050919050565b600081905092915050565b600061419e8261417d565b6141a88185614188565b93506141b88185602086016134c9565b80840191505092915050565b6000819050919050565b6141df6141da826136f6565b6141c4565b82525050565b60006141f18285614193565b91506141fd82846141ce565b6020820191508190509392505050565b614216816136f6565b82525050565b614225816136bd565b82525050565b6000608082019050614240600083018761420d565b61424d602083018661421c565b61425a604083018561420d565b614267606083018461420d565b95945050505050565b7f4552433732313a2063616c6c6572206973206e6f7420746f6b656e206f776e6560008201527f72206e6f7220617070726f766564000000000000000000000000000000000000602082015250565b60006142cc602e836134b8565b91506142d782614270565b604082019050919050565b600060208201905081810360008301526142fb816142bf565b9050919050565b7f4e487b7100000000000000000000000000000000000000000000000000000000600052601160045260246000fd5b600061433c82613568565b915061434783613568565b9250817fffffffffffffffffffffffffffffffffffffffffffffffffffffffffffffffff04831182151516156143805761437f614302565b5b828202905092915050565b7f4e487b7100000000000000000000000000000000000000000000000000000000600052601260045260246000fd5b60006143c582613568565b91506143d083613568565b9250826143e0576143df61438b565b5b828204905092915050565b50565b60006143fb600083614188565b9150614406826143eb565b600082019050919050565b600061441c826143ee565b9150819050919050565b7f4e487b7100000000000000000000000000000000000000000000000000000000600052603260045260246000fd5b600061446082613568565b91507fffffffffffffffffffffffffffffffffffffffffffffffffffffffffffffffff820361449257614491614302565b5b600182019050919050565b60008190508160005260206000209050919050565b60006020601f8301049050919050565b600082821b905092915050565b6000600883026144ff7fffffffffffffffffffffffffffffffffffffffffffffffffffffffffffffffff826144c2565b61450986836144c2565b95508019841693508086168417925050509392505050565b6000819050919050565b600061454661454161453c84613568565b614521565b613568565b9050919050565b6000819050919050565b6145608361452b565b61457461456c8261454d565b8484546144cf565b825550505050565b600090565b61458961457c565b614594818484614557565b505050565b5b818110156145b8576145ad600082614581565b60018101905061459a565b5050565b601f8211156145fd576145ce8161449d565b6145d7846144b2565b810160208510156145e6578190505b6145fa6145f2856144b2565b830182614599565b50505b505050565b600082821c905092915050565b600061462060001984600802614602565b1980831691505092915050565b6000614639838361460f565b9150826002028217905092915050565b614652826134ad565b67ffffffffffffffff81111561466b5761466a613923565b5b6146758254613f71565b6146808282856145bc565b600060209050601f8311600181146146b357600084156146a1578287015190505b6146ab858261462d565b865550614713565b601f1984166146c18661449d565b60005b828110156146e9578489015182556001820191506020850194506020810190506146c4565b868310156147065784890151614702601f89168261460f565b8355505b6001600288020188555050505b505050505050565b7f57726f6e6720696e6465782070726f7669646564000000000000000000000000600082015250565b60006147516014836134b8565b915061475c8261471b565b602082019050919050565b6000602082019050818103600083015261478081614744565b9050919050565b7f54686520636f6e7472616374206973204e4f5420706175736564210000000000600082015250565b60006147bd601b836134b8565b91506147c882614787565b602082019050919050565b600060208201905081810360008301526147ec816147b0565b9050919050565b7f4552433732313a20696e76616c696420746f6b656e2049440000000000000000600082015250565b60006148296018836134b8565b9150614834826147f3565b602082019050919050565b600060208201905081810360008301526148588161481c565b9050919050565b7f4552433732313a2061646472657373207a65726f206973206e6f74206120766160008201527f6c6964206f776e65720000000000000000000000000000000000000000000000602082015250565b60006148bb6029836134b8565b91506148c68261485f565b604082019050919050565b600060208201905081810360008301526148ea816148ae565b9050919050565b7f57726f6e67206461746121000000000000000000000000000000000000000000600082015250565b6000614927600b836134b8565b9150614932826148f1565b602082019050919050565b600060208201905081810360008301526149568161491a565b9050919050565b7f5265656e7472616e637947756172643a207265656e7472616e742063616c6c00600082015250565b6000614993601f836134b8565b915061499e8261495d565b602082019050919050565b600060208201905081810360008301526149c281614986565b9050919050565b7f54686520636f6e74726163742069732070617573656421000000000000000000600082015250565b60006149ff6017836134b8565b9150614a0a826149c9565b602082019050919050565b60006020820190508181036000830152614a2e816149f2565b9050919050565b7f496e76616c6964206d696e7420616d6f756e7421000000000000000000000000600082015250565b6000614a6b6014836134b8565b9150614a7682614a35565b602082019050919050565b60006020820190508181036000830152614a9a81614a5e565b9050919050565b6000614aac82613568565b9150614ab783613568565b9250827fffffffffffffffffffffffffffffffffffffffffffffffffffffffffffffffff03821115614aec57614aeb614302565b5b828201905092915050565b7f4d617820737570706c7920657863656564656421000000000000000000000000600082015250565b6000614b2d6014836134b8565b9150614b3882614af7565b602082019050919050565b60006020820190508181036000830152614b5c81614b20565b9050919050565b7f496e73756666696369656e742066756e64732100000000000000000000000000600082015250565b6000614b996013836134b8565b9150614ba482614b63565b602082019050919050565b60006020820190508181036000830152614bc881614b8c565b9050919050565b7f5468697320636f6e74726163742075736573206d696e742072756c65732c207560008201527f73652063616c6c3a206d696e744d656e74612e00000000000000000000000000602082015250565b6000614c2b6033836134b8565b9150614c3682614bcf565b604082019050919050565b60006020820190508181036000830152614c5a81614c1e565b9050919050565b7f4d656e7461706f72744552433732313a2055524920717565727920666f72206e60008201527f6f6e6578697374656e7420746f6b656e00000000000000000000000000000000602082015250565b6000614cbd6030836134b8565b9150614cc882614c61565b604082019050919050565b60006020820190508181036000830152614cec81614cb0565b9050919050565b600081905092915050565b6000614d09826134ad565b614d138185614cf3565b9350614d238185602086016134c9565b80840191505092915050565b60008154614d3c81613f71565b614d468186614cf3565b94506001821660008114614d615760018114614d7657614da9565b60ff1983168652811515820286019350614da9565b614d7f8561449d565b60005b83811015614da157815481890152600182019150602081019050614d82565b838801955050505b50505092915050565b6000614dbe8286614cfe565b9150614dca8285614cfe565b9150614dd68284614d2f565b9150819050949350505050565b7f4f776e61626c653a206e6577206f776e657220697320746865207a65726f206160008201527f6464726573730000000000000000000000000000000000000000000000000000602082015250565b6000614e3f6026836134b8565b9150614e4a82614de3565b604082019050919050565b60006020820190508181036000830152614e6e81614e32565b9050919050565b7f57726f6e67207369676e61747572650000000000000000000000000000000000600082015250565b6000614eab600f836134b8565b9150614eb682614e75565b602082019050919050565b60006020820190508181036000830152614eda81614e9e565b9050919050565b7f4e6f74207573696e67206d696e742072756c65732c20757365206e6f726d616c60008201527f206d696e742066756e6374696f6e2e0000000000000000000000000000000000602082015250565b6000614f3d602f836134b8565b9150614f4882614ee1565b604082019050919050565b60006020820190508181036000830152614f6c81614f30565b9050919050565b7f55736572206469646e742070617373206d696e742074696d652072756c65732e600082015250565b6000614fa96020836134b8565b9150614fb482614f73565b602082019050919050565b60006020820190508181036000830152614fd881614f9c565b9050919050565b7f4f776e61626c653a2063616c6c6572206973206e6f7420746865206f776e6572600082015250565b60006150156020836134b8565b915061502082614fdf565b602082019050919050565b6000602082019050818103600083015261504481615008565b9050919050565b7f4552433732313a207472616e736665722066726f6d20696e636f72726563742060008201527f6f776e6572000000000000000000000000000000000000000000000000000000602082015250565b60006150a76025836134b8565b91506150b28261504b565b604082019050919050565b600060208201905081810360008301526150d68161509a565b9050919050565b7f4552433732313a207472616e7366657220746f20746865207a65726f2061646460008201527f7265737300000000000000000000000000000000000000000000000000000000602082015250565b60006151396024836134b8565b9150615144826150dd565b604082019050919050565b600060208201905081810360008301526151688161512c565b9050919050565b600061517a82613568565b915061518583613568565b92508282101561519857615197614302565b5b828203905092915050565b7f54696d65206e6f7420696e697469616c697a6564000000000000000000000000600082015250565b60006151d96014836134b8565b91506151e4826151a3565b602082019050919050565b60006020820190508181036000830152615208816151cc565b9050919050565b7f4552433732313a20617070726f766520746f2063616c6c657200000000000000600082015250565b60006152456019836134b8565b91506152508261520f565b602082019050919050565b6000602082019050818103600083015261527481615238565b9050919050565b7f4552433732313a207472616e7366657220746f206e6f6e20455243373231526560008201527f63656976657220696d706c656d656e7465720000000000000000000000000000602082015250565b60006152d76032836134b8565b91506152e28261527b565b604082019050919050565b60006020820190508181036000830152615306816152ca565b9050919050565b600061531882613568565b915061532383613568565b9250826153335761533261438b565b5b828206905092915050565b600082825260208201905092915050565b600061535a8261417d565b615364818561533e565b93506153748185602086016134c9565b61537d816134fc565b840191505092915050565b600060808201905061539d60008301876135fd565b6153aa60208301866135fd565b6153b76040830185613693565b81810360608301526153c9818461534f565b905095945050505050565b6000815190506153e3816133c5565b92915050565b6000602082840312156153ff576153fe61338f565b5b600061540d848285016153d4565b91505092915050565b7f4552433732313a206d696e7420746f20746865207a65726f2061646472657373600082015250565b600061544c6020836134b8565b915061545782615416565b602082019050919050565b6000602082019050818103600083015261547b8161543f565b9050919050565b7f4552433732313a20746f6b656e20616c7265616479206d696e74656400000000600082015250565b60006154b8601c836134b8565b91506154c382615482565b602082019050919050565b600060208201905081810360008301526154e7816154ab565b905091905056fea2646970667358221220aba1e3adc5c0ad1f8350a720020a7ecc4172807663bc18384cc82c1487b4da8864736f6c634300080f0033",
  "immutableReferences": {},
  "source": "//SPDX-License-Identifier: MIT\n\npragma solidity >=0.8.0 <0.9.0;\n\nimport \"./MentaportERC721.sol\";\nimport \"./MentaportVerify.sol\";\n\n/**                                            \n       \n             ___           ___           ___                         ___           ___         ___           ___                   \n     /\\  \\         /\\__\\         /\\  \\                       /\\  \\         /\\  \\       /\\  \\         /\\  \\                  \n    |::\\  \\       /:/ _/_        \\:\\  \\         ___         /::\\  \\       /::\\  \\     /::\\  \\       /::\\  \\         ___     \n    |:|:\\  \\     /:/ /\\__\\        \\:\\  \\       /\\__\\       /:/\\:\\  \\     /:/\\:\\__\\   /:/\\:\\  \\     /:/\\:\\__\\       /\\__\\    \n  __|:|\\:\\  \\   /:/ /:/ _/_   _____\\:\\  \\     /:/  /      /:/ /::\\  \\   /:/ /:/  /  /:/  \\:\\  \\   /:/ /:/  /      /:/  /    \n /::::|_\\:\\__\\ /:/_/:/ /\\__\\ /::::::::\\__\\   /:/__/      /:/_/:/\\:\\__\\ /:/_/:/  /  /:/__/ \\:\\__\\ /:/_/:/__/___   /:/__/     \n \\:\\~~\\  \\/__/ \\:\\/:/ /:/  / \\:\\~~\\~~\\/__/  /::\\  \\      \\:\\/:/  \\/__/ \\:\\/:/  /   \\:\\  \\ /:/  / \\:\\/:::::/  /  /::\\  \\     \n  \\:\\  \\        \\::/_/:/  /   \\:\\  \\       /:/\\:\\  \\      \\::/__/       \\::/__/     \\:\\  /:/  /   \\::/~~/~~~~  /:/\\:\\  \\    \n   \\:\\  \\        \\:\\/:/  /     \\:\\  \\      \\/__\\:\\  \\      \\:\\  \\        \\:\\  \\      \\:\\/:/  /     \\:\\~~\\      \\/__\\:\\  \\   \n    \\:\\__\\        \\::/  /       \\:\\__\\          \\:\\__\\      \\:\\__\\        \\:\\__\\      \\::/  /       \\:\\__\\          \\:\\__\\  \n     \\/__/         \\/__/         \\/__/           \\/__/       \\/__/         \\/__/       \\/__/         \\/__/           \\/__/  \n       \n       \n                                              ,d                                                         ,d     \n                                              88                                                         88     \n88,dPYba,,adPYba,    ,adPPYba,  8b,dPPYba,  MM88MMM  ,adPPYYba,  8b,dPPYba,    ,adPPYba,   8b,dPPYba,  MM88MMM  \n88P'   \"88\"    \"8a  a8P_____88  88P'   `\"8a   88     \"\"     `Y8  88P'    \"8a  a8\"     \"8a  88P'   \"Y8    88    \n88      88      88  8PP\"\"\"\"\"\"\"  88       88   88     ,adPPPPP88  88       d8  8b       d8  88            88     \n88      88      88  \"8b,   ,aa  88       88   88,    88,    ,88  88b,   ,a8\"  \"8a,   ,a8\"  88            88,    \n88      88      88   `\"Ybbd8\"'  88       88   \"Y888  `\"8bbdP\"Y8  88`YbbdP\"'    `\"YbbdP\"'   88            \"Y888  \n                                                                 88                                             \n                                                                 88                                                                                                    \n**/\n\n/**\n * @title MentaportMint\n * @dev Extending MentaportERC721\n   Adds functionality to check rules of who, when and where user can mint NFT\n**/\n\ncontract MentaportMint is MentaportERC721, MentaportVerify {\n  struct Time {\n    bool set;\n    bool useTime;\n    uint256 startTime;\n    uint256 endTime;\n  }\n\n  mapping(uint256 => Time) internal _mintTimeRules;\n  bool public useMintRules = true;\n  \n  constructor(\n        string memory _name,\n        string memory _symbol,\n        string memory _initNotRevealedUri,\n        uint256[] memory _mintTrulesS,\n        uint256[] memory _mintTrulesE\n    ) MentaportERC721(_name, _symbol, _initNotRevealedUri) {\n    maxSupply = 500;\n    \n    // setting initial time map\n    require(_mintTrulesS.length == _mintTrulesE.length, \"Wrong data!\");\n\n    if(_mintTrulesS.length == 0) {\n      _mintTimeRules[0].set = true;\n      _mintTimeRules[0].useTime = false;\n    } else {\n      for(uint i = 0;i < _mintTrulesS.length;i++) {\n        _mintTimeRules[i].set = true;\n        _mintTimeRules[i].useTime = true;\n        _mintTimeRules[i].startTime = _mintTrulesS[i];\n        _mintTimeRules[i].endTime = _mintTrulesE[i];\n      }\n    }\n  }\n \n  //----------------------------------------------------------------------------\n  // External functions\n\n  // mintCompliance: coming from MentaportERC721.\n  //  - checking if contract is pauses, mint amount and max supply\n  function mint(uint256 _mintAmount)\n    override \n    external \n    payable\n    nonReentrant\n    mintCompliance(_mintAmount) \n  {\n    require(msg.value >= cost * _mintAmount, \"Insufficient funds!\");\n    require(!useMintRules, \"This contract uses mint rules, use call: mintMenta.\");\n\n    _mintLoop(msg.sender, _mintAmount);\n  }\n\n  function mintMenta(uint256 _mintAmount, uint256 _rule, uint _timestamp, uint8 _v, bytes32 _r, bytes32 _s)\n    virtual \n    external \n    payable\n    nonReentrant\n    mintCompliance(_mintAmount) \n    onlyValidMessage(_timestamp,totalSupply(),_v,_r,_s)\n  {\n    require(useMintRules, \"Not using mint rules, use normal mint function.\");\n    require(checkMintTimeRules(_rule), \"User didnt pass mint time rules.\");\n    require(msg.value >= cost * _mintAmount, \"Insufficient funds!\");\n    \n    _mintLoop(msg.sender, _mintAmount);\n  }\n  \n  function mintTimeRule(uint _index) external view returns (Time memory) {\n    require(_mintTimeRules[_index].set, \"Wrong index provided\");\n    return _mintTimeRules[_index];\n  }\n\n  //----------------------------------------------------------------------------\n  // Public functions that are View\n\n  function checkMintTimeRules(uint _index) public view returns (bool) {\n    require(_mintTimeRules[_index].set, \"Wrong index provided\");\n\n    if(_mintTimeRules[_index].useTime == false || _checkTimeRule(_mintTimeRules[_index])) {\n      return true;\n    }\n    return false;\n  }\n\n  //----------------------------------------------------------------------------\n  // External Only owner + mentaport\n  \n  function updateMintRules( uint256[] memory _newTimesS, uint256[] memory _newTimesE) external onlyOwner {\n    require(paused, \"The contract is NOT paused!\");\n    require(_newTimesS.length == _newTimesE.length, \"Wrong data!\");\n    //updating map of times\n    for(uint i = 0;i < _newTimesS.length;i++) {\n      _mintTimeRules[i].set = true;\n      if(_newTimesS[i] == 0)\n        _mintTimeRules[i].useTime = false;\n      else \n        _mintTimeRules[i].useTime = true;\n      _mintTimeRules[i].startTime = _newTimesS[i];\n      _mintTimeRules[i].endTime = _newTimesE[i];\n    }\n  }\n\n  function updateMintRule(uint _index, bool _set, bool _useTime, uint256 _newTimeS,uint256 _newTimE) external onlyOwner {\n    require(paused, \"The contract is NOT paused!\");\n    \n    _mintTimeRules[_index].set = _set;\n    _mintTimeRules[_index].useTime = _useTime;\n    _mintTimeRules[_index].startTime = _newTimeS;\n    _mintTimeRules[_index].endTime = _newTimE;\n  }\n\n  function useUseMintRules(bool _state) external onlyOwner {\n    useMintRules = _state;\n  }\n\n  //----------------------------------------------------------------------------\n  // Internal functions that are View\n  function _checkTimeRule(Time memory time) internal view returns (bool) {\n    require(time.startTime > 0, \"Time not initialized\");\n    // given that we are not using timespan for encryption / random number or second acuacy\n    // security vulnerability is being passed as ignored\n\n    if(block.timestamp < time.startTime) {return false;}\n\n    if(time.endTime > 0) {\n      if(time.endTime < block.timestamp) {return false;}\n    }\n    return true;\n  }\n\n  //----------------------------------------------------------------------------\n  // Internal functions that are Pure\n\n  //----------------------------------------------------------------------------\n  // Private functons\n\n}",
  "sourcePath": "/Users/marialemontenegro/Mentaport/Development/blockchain/truffle-project-dev/truffle/contracts/smart-contracts-dev/MentaportMint.sol",
  "compiler": {
    "name": "solc",
    "version": "0.8.15+commit.e14f2714.Emscripten.clang"
  },
  "schemaVersion": "3.4.8",
  "updatedAt": "2022-11-06T03:45:04.818Z",
  "devdoc": {
    "details": "Extending MentaportERC721 Adds functionality to check rules of who, when and where user can mint NFT*",
    "kind": "dev",
    "methods": {
      "approve(address,uint256)": {
        "details": "See {IERC721-approve}."
      },
      "balanceOf(address)": {
        "details": "See {IERC721-balanceOf}."
      },
      "getApproved(uint256)": {
        "details": "See {IERC721-getApproved}."
      },
      "isApprovedForAll(address,address)": {
        "details": "See {IERC721-isApprovedForAll}."
      },
      "name()": {
        "details": "See {IERC721Metadata-name}."
      },
      "owner()": {
        "details": "Returns the address of the current owner."
      },
      "ownerOf(uint256)": {
        "details": "See {IERC721-ownerOf}."
      },
      "renounceOwnership()": {
        "details": "Leaves the contract without owner. It will not be possible to call `onlyOwner` functions anymore. Can only be called by the current owner. NOTE: Renouncing ownership will leave the contract without an owner, thereby removing any functionality that is only available to the owner."
      },
      "safeTransferFrom(address,address,uint256)": {
        "details": "See {IERC721-safeTransferFrom}."
      },
      "safeTransferFrom(address,address,uint256,bytes)": {
        "details": "See {IERC721-safeTransferFrom}."
      },
      "setApprovalForAll(address,bool)": {
        "details": "See {IERC721-setApprovalForAll}."
      },
      "supportsInterface(bytes4)": {
        "details": "See {IERC165-supportsInterface}."
      },
      "symbol()": {
        "details": "See {IERC721Metadata-symbol}."
      },
      "tokenURI(uint256)": {
        "details": "See {IERC721Metadata-tokenURI}."
      },
      "transferFrom(address,address,uint256)": {
        "details": "See {IERC721-transferFrom}."
      },
      "transferOwnership(address)": {
        "details": "Transfers ownership of the contract to a new account (`newOwner`). Can only be called by the current owner."
      }
    },
    "title": "MentaportMint",
    "version": 1
  },
  "userdoc": {
    "kind": "user",
    "methods": {},
    "version": 1
  }
}