{
  "contractName": "MentaportDynamic",
  "abi": [
    {
      "inputs": [
        {
          "internalType": "string",
          "name": "_name",
          "type": "string"
        },
        {
          "internalType": "string",
          "name": "_symbol",
          "type": "string"
        },
        {
          "internalType": "string",
          "name": "_initNotRevealedUri",
          "type": "string"
        },
        {
          "internalType": "uint256[]",
          "name": "_mintTrulesS",
          "type": "uint256[]"
        },
        {
          "internalType": "uint256[]",
          "name": "_mintTrulesE",
          "type": "uint256[]"
        }
      ],
      "stateMutability": "nonpayable",
      "type": "constructor"
    },
    {
      "anonymous": false,
      "inputs": [
        {
          "indexed": true,
          "internalType": "address",
          "name": "owner",
          "type": "address"
        },
        {
          "indexed": true,
          "internalType": "address",
          "name": "approved",
          "type": "address"
        },
        {
          "indexed": true,
          "internalType": "uint256",
          "name": "tokenId",
          "type": "uint256"
        }
      ],
      "name": "Approval",
      "type": "event"
    },
    {
      "anonymous": false,
      "inputs": [
        {
          "indexed": true,
          "internalType": "address",
          "name": "owner",
          "type": "address"
        },
        {
          "indexed": true,
          "internalType": "address",
          "name": "operator",
          "type": "address"
        },
        {
          "indexed": false,
          "internalType": "bool",
          "name": "approved",
          "type": "bool"
        }
      ],
      "name": "ApprovalForAll",
      "type": "event"
    },
    {
      "anonymous": false,
      "inputs": [
        {
          "indexed": true,
          "internalType": "address",
          "name": "previousOwner",
          "type": "address"
        },
        {
          "indexed": true,
          "internalType": "address",
          "name": "newOwner",
          "type": "address"
        }
      ],
      "name": "OwnershipTransferred",
      "type": "event"
    },
    {
      "anonymous": false,
      "inputs": [
        {
          "indexed": true,
          "internalType": "address",
          "name": "from",
          "type": "address"
        },
        {
          "indexed": true,
          "internalType": "address",
          "name": "to",
          "type": "address"
        },
        {
          "indexed": true,
          "internalType": "uint256",
          "name": "tokenId",
          "type": "uint256"
        }
      ],
      "name": "Transfer",
      "type": "event"
    },
    {
      "inputs": [
        {
          "internalType": "address",
          "name": "to",
          "type": "address"
        },
        {
          "internalType": "uint256",
          "name": "tokenId",
          "type": "uint256"
        }
      ],
      "name": "approve",
      "outputs": [],
      "stateMutability": "nonpayable",
      "type": "function"
    },
    {
      "inputs": [
        {
          "internalType": "address",
          "name": "owner",
          "type": "address"
        }
      ],
      "name": "balanceOf",
      "outputs": [
        {
          "internalType": "uint256",
          "name": "",
          "type": "uint256"
        }
      ],
      "stateMutability": "view",
      "type": "function"
    },
    {
      "inputs": [],
      "name": "baseExtension",
      "outputs": [
        {
          "internalType": "string",
          "name": "",
          "type": "string"
        }
      ],
      "stateMutability": "view",
      "type": "function"
    },
    {
      "inputs": [],
      "name": "baseURI",
      "outputs": [
        {
          "internalType": "string",
          "name": "",
          "type": "string"
        }
      ],
      "stateMutability": "view",
      "type": "function"
    },
    {
      "inputs": [
        {
          "internalType": "address",
          "name": "_newAddress",
          "type": "address"
        }
      ],
      "name": "changeMentaportAccount",
      "outputs": [],
      "stateMutability": "nonpayable",
      "type": "function"
    },
    {
      "inputs": [
        {
          "internalType": "uint256",
          "name": "_index",
          "type": "uint256"
        }
      ],
      "name": "checkMintTimeRules",
      "outputs": [
        {
          "internalType": "bool",
          "name": "",
          "type": "bool"
        }
      ],
      "stateMutability": "view",
      "type": "function"
    },
    {
      "inputs": [],
      "name": "cost",
      "outputs": [
        {
          "internalType": "uint256",
          "name": "",
          "type": "uint256"
        }
      ],
      "stateMutability": "view",
      "type": "function"
    },
    {
      "inputs": [
        {
          "internalType": "uint256",
          "name": "tokenId",
          "type": "uint256"
        }
      ],
      "name": "getApproved",
      "outputs": [
        {
          "internalType": "address",
          "name": "",
          "type": "address"
        }
      ],
      "stateMutability": "view",
      "type": "function"
    },
    {
      "inputs": [
        {
          "internalType": "address",
          "name": "owner",
          "type": "address"
        },
        {
          "internalType": "address",
          "name": "operator",
          "type": "address"
        }
      ],
      "name": "isApprovedForAll",
      "outputs": [
        {
          "internalType": "bool",
          "name": "",
          "type": "bool"
        }
      ],
      "stateMutability": "view",
      "type": "function"
    },
    {
      "inputs": [
        {
          "internalType": "address",
          "name": "_address",
          "type": "address"
        },
        {
          "internalType": "uint256",
          "name": "_timestamp",
          "type": "uint256"
        },
        {
          "internalType": "uint256",
          "name": "_token",
          "type": "uint256"
        },
        {
          "internalType": "uint8",
          "name": "_v",
          "type": "uint8"
        },
        {
          "internalType": "bytes32",
          "name": "_r",
          "type": "bytes32"
        },
        {
          "internalType": "bytes32",
          "name": "_s",
          "type": "bytes32"
        }
      ],
      "name": "isValidAccessMessage",
      "outputs": [
        {
          "internalType": "bool",
          "name": "",
          "type": "bool"
        }
      ],
      "stateMutability": "view",
      "type": "function"
    },
    {
      "inputs": [],
      "name": "maxMintAmount",
      "outputs": [
        {
          "internalType": "uint256",
          "name": "",
          "type": "uint256"
        }
      ],
      "stateMutability": "view",
      "type": "function"
    },
    {
      "inputs": [],
      "name": "maxSupply",
      "outputs": [
        {
          "internalType": "uint256",
          "name": "",
          "type": "uint256"
        }
      ],
      "stateMutability": "view",
      "type": "function"
    },
    {
      "inputs": [
        {
          "internalType": "uint256",
          "name": "_mintAmount",
          "type": "uint256"
        }
      ],
      "name": "mint",
      "outputs": [],
      "stateMutability": "payable",
      "type": "function"
    },
    {
      "inputs": [
        {
          "internalType": "uint256",
          "name": "_mintAmount",
          "type": "uint256"
        },
        {
          "internalType": "address",
          "name": "_receiver",
          "type": "address"
        }
      ],
      "name": "mintForAddress",
      "outputs": [],
      "stateMutability": "nonpayable",
      "type": "function"
    },
    {
      "inputs": [
        {
          "internalType": "uint256",
          "name": "_mintAmount",
          "type": "uint256"
        },
        {
          "internalType": "uint256",
          "name": "_rule",
          "type": "uint256"
        },
        {
          "internalType": "uint256",
          "name": "_timestamp",
          "type": "uint256"
        },
        {
          "internalType": "uint8",
          "name": "_v",
          "type": "uint8"
        },
        {
          "internalType": "bytes32",
          "name": "_r",
          "type": "bytes32"
        },
        {
          "internalType": "bytes32",
          "name": "_s",
          "type": "bytes32"
        }
      ],
      "name": "mintMenta",
      "outputs": [],
      "stateMutability": "payable",
      "type": "function"
    },
    {
      "inputs": [
        {
          "internalType": "uint256",
          "name": "_index",
          "type": "uint256"
        }
      ],
      "name": "mintTimeRule",
      "outputs": [
        {
          "components": [
            {
              "internalType": "bool",
              "name": "set",
              "type": "bool"
            },
            {
              "internalType": "bool",
              "name": "useTime",
              "type": "bool"
            },
            {
              "internalType": "uint256",
              "name": "startTime",
              "type": "uint256"
            },
            {
              "internalType": "uint256",
              "name": "endTime",
              "type": "uint256"
            }
          ],
          "internalType": "struct MentaportMint.Time",
          "name": "",
          "type": "tuple"
        }
      ],
      "stateMutability": "view",
      "type": "function"
    },
    {
      "inputs": [],
      "name": "name",
      "outputs": [
        {
          "internalType": "string",
          "name": "",
          "type": "string"
        }
      ],
      "stateMutability": "view",
      "type": "function"
    },
    {
      "inputs": [],
      "name": "notRevealedUri",
      "outputs": [
        {
          "internalType": "string",
          "name": "",
          "type": "string"
        }
      ],
      "stateMutability": "view",
      "type": "function"
    },
    {
      "inputs": [],
      "name": "owner",
      "outputs": [
        {
          "internalType": "address",
          "name": "",
          "type": "address"
        }
      ],
      "stateMutability": "view",
      "type": "function"
    },
    {
      "inputs": [
        {
          "internalType": "uint256",
          "name": "tokenId",
          "type": "uint256"
        }
      ],
      "name": "ownerOf",
      "outputs": [
        {
          "internalType": "address",
          "name": "",
          "type": "address"
        }
      ],
      "stateMutability": "view",
      "type": "function"
    },
    {
      "inputs": [
        {
          "internalType": "bool",
          "name": "_state",
          "type": "bool"
        }
      ],
      "name": "pause",
      "outputs": [],
      "stateMutability": "nonpayable",
      "type": "function"
    },
    {
      "inputs": [],
      "name": "paused",
      "outputs": [
        {
          "internalType": "bool",
          "name": "",
          "type": "bool"
        }
      ],
      "stateMutability": "view",
      "type": "function"
    },
    {
      "inputs": [],
      "name": "renounceOwnership",
      "outputs": [],
      "stateMutability": "nonpayable",
      "type": "function"
    },
    {
      "inputs": [],
      "name": "revealed",
      "outputs": [
        {
          "internalType": "bool",
          "name": "",
          "type": "bool"
        }
      ],
      "stateMutability": "view",
      "type": "function"
    },
    {
      "inputs": [
        {
          "internalType": "address",
          "name": "from",
          "type": "address"
        },
        {
          "internalType": "address",
          "name": "to",
          "type": "address"
        },
        {
          "internalType": "uint256",
          "name": "tokenId",
          "type": "uint256"
        }
      ],
      "name": "safeTransferFrom",
      "outputs": [],
      "stateMutability": "nonpayable",
      "type": "function"
    },
    {
      "inputs": [
        {
          "internalType": "address",
          "name": "from",
          "type": "address"
        },
        {
          "internalType": "address",
          "name": "to",
          "type": "address"
        },
        {
          "internalType": "uint256",
          "name": "tokenId",
          "type": "uint256"
        },
        {
          "internalType": "bytes",
          "name": "data",
          "type": "bytes"
        }
      ],
      "name": "safeTransferFrom",
      "outputs": [],
      "stateMutability": "nonpayable",
      "type": "function"
    },
    {
      "inputs": [
        {
          "internalType": "address",
          "name": "operator",
          "type": "address"
        },
        {
          "internalType": "bool",
          "name": "approved",
          "type": "bool"
        }
      ],
      "name": "setApprovalForAll",
      "outputs": [],
      "stateMutability": "nonpayable",
      "type": "function"
    },
    {
      "inputs": [
        {
          "internalType": "string",
          "name": "_newBaseExtension",
          "type": "string"
        }
      ],
      "name": "setBaseExtension",
      "outputs": [],
      "stateMutability": "nonpayable",
      "type": "function"
    },
    {
      "inputs": [
        {
          "internalType": "string",
          "name": "_newBaseURI",
          "type": "string"
        }
      ],
      "name": "setBaseURI",
      "outputs": [],
      "stateMutability": "nonpayable",
      "type": "function"
    },
    {
      "inputs": [
        {
          "internalType": "uint256",
          "name": "_newCost",
          "type": "uint256"
        }
      ],
      "name": "setCost",
      "outputs": [],
      "stateMutability": "nonpayable",
      "type": "function"
    },
    {
      "inputs": [
        {
          "internalType": "string",
          "name": "_notRevealedURI",
          "type": "string"
        }
      ],
      "name": "setNotRevealedURI",
      "outputs": [],
      "stateMutability": "nonpayable",
      "type": "function"
    },
    {
      "inputs": [
        {
          "internalType": "uint256",
          "name": "_newmaxMintAmount",
          "type": "uint256"
        }
      ],
      "name": "setmaxMintAmount",
      "outputs": [],
      "stateMutability": "nonpayable",
      "type": "function"
    },
    {
      "inputs": [
        {
          "internalType": "bytes4",
          "name": "interfaceId",
          "type": "bytes4"
        }
      ],
      "name": "supportsInterface",
      "outputs": [
        {
          "internalType": "bool",
          "name": "",
          "type": "bool"
        }
      ],
      "stateMutability": "view",
      "type": "function"
    },
    {
      "inputs": [],
      "name": "symbol",
      "outputs": [
        {
          "internalType": "string",
          "name": "",
          "type": "string"
        }
      ],
      "stateMutability": "view",
      "type": "function"
    },
    {
      "inputs": [],
      "name": "totalSupply",
      "outputs": [
        {
          "internalType": "uint256",
          "name": "",
          "type": "uint256"
        }
      ],
      "stateMutability": "view",
      "type": "function"
    },
    {
      "inputs": [
        {
          "internalType": "address",
          "name": "from",
          "type": "address"
        },
        {
          "internalType": "address",
          "name": "to",
          "type": "address"
        },
        {
          "internalType": "uint256",
          "name": "tokenId",
          "type": "uint256"
        }
      ],
      "name": "transferFrom",
      "outputs": [],
      "stateMutability": "nonpayable",
      "type": "function"
    },
    {
      "inputs": [
        {
          "internalType": "address",
          "name": "newOwner",
          "type": "address"
        }
      ],
      "name": "transferOwnership",
      "outputs": [],
      "stateMutability": "nonpayable",
      "type": "function"
    },
    {
      "inputs": [
        {
          "internalType": "uint256",
          "name": "_index",
          "type": "uint256"
        },
        {
          "internalType": "bool",
          "name": "_set",
          "type": "bool"
        },
        {
          "internalType": "bool",
          "name": "_useTime",
          "type": "bool"
        },
        {
          "internalType": "uint256",
          "name": "_newTimeS",
          "type": "uint256"
        },
        {
          "internalType": "uint256",
          "name": "_newTimE",
          "type": "uint256"
        }
      ],
      "name": "updateMintRule",
      "outputs": [],
      "stateMutability": "nonpayable",
      "type": "function"
    },
    {
      "inputs": [
        {
          "internalType": "uint256[]",
          "name": "_newTimesS",
          "type": "uint256[]"
        },
        {
          "internalType": "uint256[]",
          "name": "_newTimesE",
          "type": "uint256[]"
        }
      ],
      "name": "updateMintRules",
      "outputs": [],
      "stateMutability": "nonpayable",
      "type": "function"
    },
    {
      "inputs": [],
      "name": "useDynamicRules",
      "outputs": [
        {
          "internalType": "bool",
          "name": "",
          "type": "bool"
        }
      ],
      "stateMutability": "view",
      "type": "function"
    },
    {
      "inputs": [],
      "name": "useMintRules",
      "outputs": [
        {
          "internalType": "bool",
          "name": "",
          "type": "bool"
        }
      ],
      "stateMutability": "view",
      "type": "function"
    },
    {
      "inputs": [
        {
          "internalType": "bool",
          "name": "_state",
          "type": "bool"
        }
      ],
      "name": "useUseMintRules",
      "outputs": [],
      "stateMutability": "nonpayable",
      "type": "function"
    },
    {
      "inputs": [
        {
          "internalType": "address",
          "name": "_owner",
          "type": "address"
        }
      ],
      "name": "walletOfOwner",
      "outputs": [
        {
          "internalType": "uint256[]",
          "name": "",
          "type": "uint256[]"
        }
      ],
      "stateMutability": "view",
      "type": "function"
    },
    {
      "inputs": [],
      "name": "withdraw",
      "outputs": [],
      "stateMutability": "payable",
      "type": "function"
    },
    {
      "inputs": [
        {
          "internalType": "uint256",
          "name": "tokenId",
          "type": "uint256"
        }
      ],
      "name": "tokenURI",
      "outputs": [
        {
          "internalType": "string",
          "name": "",
          "type": "string"
        }
      ],
      "stateMutability": "view",
      "type": "function"
    },
    {
      "inputs": [],
      "name": "reveal",
      "outputs": [],
      "stateMutability": "nonpayable",
      "type": "function"
    },
    {
      "inputs": [
        {
          "internalType": "string",
          "name": "_newBaseURI",
          "type": "string"
        }
      ],
      "name": "revealDynamic",
      "outputs": [],
      "stateMutability": "nonpayable",
      "type": "function"
    },
    {
      "inputs": [
        {
          "internalType": "bool",
          "name": "_state",
          "type": "bool"
        }
      ],
      "name": "useUseDynamicRules",
      "outputs": [],
      "stateMutability": "nonpayable",
      "type": "function"
    },
    {
      "inputs": [],
      "name": "recentStateSet",
      "outputs": [
        {
          "internalType": "int256",
          "name": "",
          "type": "int256"
        }
      ],
      "stateMutability": "view",
      "type": "function"
    },
    {
      "inputs": [
        {
          "internalType": "int256",
          "name": "nstate",
          "type": "int256"
        },
        {
          "internalType": "string",
          "name": "_newBaseURI",
          "type": "string"
        }
      ],
      "name": "updateDynamicStateAll",
      "outputs": [],
      "stateMutability": "nonpayable",
      "type": "function"
    },
    {
      "inputs": [
        {
          "internalType": "uint256",
          "name": "tokenId",
          "type": "uint256"
        },
        {
          "internalType": "string",
          "name": "_newBaseURI",
          "type": "string"
        },
        {
          "internalType": "int256",
          "name": "_updateState",
          "type": "int256"
        }
      ],
      "name": "updateDynamicState",
      "outputs": [],
      "stateMutability": "nonpayable",
      "type": "function"
    }
  ],
  "bytecode": "0x60806040526040518060400160405280600581526020017f2e6a736f6e000000000000000000000000000000000000000000000000000000815250600b90816200004a9190620007e5565b5066038d7ea4c68000600c556103e8600d556002600e556001600f60006101000a81548160ff0219169083151502179055506000600f60016101000a81548160ff021916908315150217905550733bd3b2d1c0cd18ed91779356702e9b5b1f1bbfb4600f60026101000a81548173ffffffffffffffffffffffffffffffffffffffff021916908373ffffffffffffffffffffffffffffffffffffffff1602179055506001601160006101000a81548160ff0219169083151502179055506001601160016101000a81548160ff02191690831515021790555060006014553480156200013457600080fd5b5060405162006b3e38038062006b3e83398181016040528101906200015a919062000b46565b848484848484848482828160009081620001759190620007e5565b508060019081620001879190620007e5565b505050620001aa6200019e6200039860201b60201c565b620003a060201b60201c565b6001600781905550620001c3816200046660201b60201c565b620001d4816200048b60201b60201c565b5050506101f4600d81905550805182511462000227576040517f08c379a00000000000000000000000000000000000000000000000000000000081526004016200021e9062000cca565b60405180910390fd5b6000825103620002955760016010600080815260200190815260200160002060000160006101000a81548160ff02191690831515021790555060006010600080815260200190815260200160002060000160016101000a81548160ff02191690831515021790555062000388565b60005b8251811015620003865760016010600083815260200190815260200160002060000160006101000a81548160ff02191690831515021790555060016010600083815260200190815260200160002060000160016101000a81548160ff02191690831515021790555082818151811062000316576200031562000cec565b5b602002602001015160106000838152602001908152602001600020600101819055508181815181106200034e576200034d62000cec565b5b6020026020010151601060008381526020019081526020016000206002018190555080806200037d9062000d4a565b91505062000298565b505b5050505050505050505062000e09565b600033905090565b6000600660009054906101000a900473ffffffffffffffffffffffffffffffffffffffff16905081600660006101000a81548173ffffffffffffffffffffffffffffffffffffffff021916908373ffffffffffffffffffffffffffffffffffffffff1602179055508173ffffffffffffffffffffffffffffffffffffffff168173ffffffffffffffffffffffffffffffffffffffff167f8be0079c531659141344cd1fd0a4f28419497f9722a3daafe3b4186f6b6457e060405160405180910390a35050565b62000476620004b060201b60201c565b80600a9081620004879190620007e5565b5050565b6200049b620004b060201b60201c565b8060099081620004ac9190620007e5565b5050565b620004c06200039860201b60201c565b73ffffffffffffffffffffffffffffffffffffffff16620004e66200054160201b60201c565b73ffffffffffffffffffffffffffffffffffffffff16146200053f576040517f08c379a0000000000000000000000000000000000000000000000000000000008152600401620005369062000de7565b60405180910390fd5b565b6000600660009054906101000a900473ffffffffffffffffffffffffffffffffffffffff16905090565b600081519050919050565b7f4e487b7100000000000000000000000000000000000000000000000000000000600052604160045260246000fd5b7f4e487b7100000000000000000000000000000000000000000000000000000000600052602260045260246000fd5b60006002820490506001821680620005ed57607f821691505b602082108103620006035762000602620005a5565b5b50919050565b60008190508160005260206000209050919050565b60006020601f8301049050919050565b600082821b905092915050565b6000600883026200066d7fffffffffffffffffffffffffffffffffffffffffffffffffffffffffffffffff826200062e565b6200067986836200062e565b95508019841693508086168417925050509392505050565b6000819050919050565b6000819050919050565b6000620006c6620006c0620006ba8462000691565b6200069b565b62000691565b9050919050565b6000819050919050565b620006e283620006a5565b620006fa620006f182620006cd565b8484546200063b565b825550505050565b600090565b6200071162000702565b6200071e818484620006d7565b505050565b5b8181101562000746576200073a60008262000707565b60018101905062000724565b5050565b601f82111562000795576200075f8162000609565b6200076a846200061e565b810160208510156200077a578190505b6200079262000789856200061e565b83018262000723565b50505b505050565b600082821c905092915050565b6000620007ba600019846008026200079a565b1980831691505092915050565b6000620007d58383620007a7565b9150826002028217905092915050565b620007f0826200056b565b67ffffffffffffffff8111156200080c576200080b62000576565b5b620008188254620005d4565b620008258282856200074a565b600060209050601f8311600181146200085d576000841562000848578287015190505b620008548582620007c7565b865550620008c4565b601f1984166200086d8662000609565b60005b82811015620008975784890151825560018201915060208501945060208101905062000870565b86831015620008b75784890151620008b3601f891682620007a7565b8355505b6001600288020188555050505b505050505050565b6000604051905090565b600080fd5b600080fd5b600080fd5b600080fd5b6000601f19601f8301169050919050565b6200090682620008ea565b810181811067ffffffffffffffff8211171562000928576200092762000576565b5b80604052505050565b60006200093d620008cc565b90506200094b8282620008fb565b919050565b600067ffffffffffffffff8211156200096e576200096d62000576565b5b6200097982620008ea565b9050602081019050919050565b60005b83811015620009a657808201518184015260208101905062000989565b83811115620009b6576000848401525b50505050565b6000620009d3620009cd8462000950565b62000931565b905082815260208101848484011115620009f257620009f1620008e5565b5b620009ff84828562000986565b509392505050565b600082601f83011262000a1f5762000a1e620008e0565b5b815162000a31848260208601620009bc565b91505092915050565b600067ffffffffffffffff82111562000a585762000a5762000576565b5b602082029050602081019050919050565b600080fd5b62000a798162000691565b811462000a8557600080fd5b50565b60008151905062000a998162000a6e565b92915050565b600062000ab662000ab08462000a3a565b62000931565b9050808382526020820190506020840283018581111562000adc5762000adb62000a69565b5b835b8181101562000b09578062000af4888262000a88565b84526020840193505060208101905062000ade565b5050509392505050565b600082601f83011262000b2b5762000b2a620008e0565b5b815162000b3d84826020860162000a9f565b91505092915050565b600080600080600060a0868803121562000b655762000b64620008d6565b5b600086015167ffffffffffffffff81111562000b865762000b85620008db565b5b62000b948882890162000a07565b955050602086015167ffffffffffffffff81111562000bb85762000bb7620008db565b5b62000bc68882890162000a07565b945050604086015167ffffffffffffffff81111562000bea5762000be9620008db565b5b62000bf88882890162000a07565b935050606086015167ffffffffffffffff81111562000c1c5762000c1b620008db565b5b62000c2a8882890162000b13565b925050608086015167ffffffffffffffff81111562000c4e5762000c4d620008db565b5b62000c5c8882890162000b13565b9150509295509295909350565b600082825260208201905092915050565b7f57726f6e67206461746121000000000000000000000000000000000000000000600082015250565b600062000cb2600b8362000c69565b915062000cbf8262000c7a565b602082019050919050565b6000602082019050818103600083015262000ce58162000ca3565b9050919050565b7f4e487b7100000000000000000000000000000000000000000000000000000000600052603260045260246000fd5b7f4e487b7100000000000000000000000000000000000000000000000000000000600052601160045260246000fd5b600062000d578262000691565b91507fffffffffffffffffffffffffffffffffffffffffffffffffffffffffffffffff820362000d8c5762000d8b62000d1b565b5b600182019050919050565b7f4f776e61626c653a2063616c6c6572206973206e6f7420746865206f776e6572600082015250565b600062000dcf60208362000c69565b915062000ddc8262000d97565b602082019050919050565b6000602082019050818103600083015262000e028162000dc0565b9050919050565b615d258062000e196000396000f3fe6080604052600436106102e45760003560e01c80637c3b641611610190578063bde568ea116100dc578063df6de9af11610095578063efbd73f41161006f578063efbd73f414610b06578063f2c4ce1e14610b2f578063f2fde38b14610b58578063fcfb770b14610b81576102e4565b8063df6de9af14610a75578063e985e9c514610a9e578063efb6f99214610adb576102e4565b8063bde568ea14610967578063c668286214610990578063c87b56dd146109bb578063d0f0d2ac146109f8578063d5abeb0114610a21578063da3ef23f14610a4c576102e4565b8063937cf5ac11610149578063a22cb46511610123578063a22cb465146108d3578063a475b5dd146108fc578063b88d4fde14610913578063bda0baa01461093c576102e4565b8063937cf5ac1461084f57806395d89b411461088c578063a0712d68146108b7576102e4565b80637c3b6416146107555780637e2d92da1461077e5780637f00c7a6146107a75780638da5cb5b146107d05780638f195002146107fb578063921c1b6c14610824576102e4565b806342842e0e1161024f5780635d4b0bc01161020857806363fb825e116101e257806363fb825e146106ad5780636c0360eb146106d657806370a0823114610701578063715018a61461073e576102e4565b80635d4b0bc01461060a57806361a873bb146106475780636352211e14610670576102e4565b806342842e0e146104fc578063438b63001461052557806344a0d68a14610562578063518302271461058b57806355f804b3146105b65780635c975abb146105df576102e4565b806313faede6116102a157806313faede61461040b578063180acece1461043657806318160ddd14610473578063239c70ae1461049e57806323b872dd146104c95780633ccfd60b146104f2576102e4565b806301ffc9a7146102e957806302329a291461032657806306fdde031461034f578063081812fc1461037a578063081c8c44146103b7578063095ea7b3146103e2575b600080fd5b3480156102f557600080fd5b50610310600480360381019061030b91906137e9565b610b9d565b60405161031d9190613831565b60405180910390f35b34801561033257600080fd5b5061034d60048036038101906103489190613878565b610c7f565b005b34801561035b57600080fd5b50610364610ca4565b604051610371919061393e565b60405180910390f35b34801561038657600080fd5b506103a1600480360381019061039c9190613996565b610d36565b6040516103ae9190613a04565b60405180910390f35b3480156103c357600080fd5b506103cc610d7c565b6040516103d9919061393e565b60405180910390f35b3480156103ee57600080fd5b5061040960048036038101906104049190613a4b565b610e0a565b005b34801561041757600080fd5b50610420610f21565b60405161042d9190613a9a565b60405180910390f35b34801561044257600080fd5b5061045d60048036038101906104589190613b24565b610f27565b60405161046a9190613831565b60405180910390f35b34801561047f57600080fd5b5061048861106d565b6040516104959190613a9a565b60405180910390f35b3480156104aa57600080fd5b506104b361107e565b6040516104c09190613a9a565b60405180910390f35b3480156104d557600080fd5b506104f060048036038101906104eb9190613bb1565b611084565b005b6104fa6110e4565b005b34801561050857600080fd5b50610523600480360381019061051e9190613bb1565b61121e565b005b34801561053157600080fd5b5061054c60048036038101906105479190613c04565b61123e565b6040516105599190613cef565b60405180910390f35b34801561056e57600080fd5b5061058960048036038101906105849190613996565b611348565b005b34801561059757600080fd5b506105a061135a565b6040516105ad9190613831565b60405180910390f35b3480156105c257600080fd5b506105dd60048036038101906105d89190613e46565b61136d565b005b3480156105eb57600080fd5b506105f4611388565b6040516106019190613831565b60405180910390f35b34801561061657600080fd5b50610631600480360381019061062c9190613996565b61139b565b60405161063e9190613ef3565b60405180910390f35b34801561065357600080fd5b5061066e60048036038101906106699190613f0e565b611475565b005b34801561067c57600080fd5b5061069760048036038101906106929190613996565b611565565b6040516106a49190613a04565b60405180910390f35b3480156106b957600080fd5b506106d460048036038101906106cf9190613fbf565b611616565b005b3480156106e257600080fd5b506106eb6116da565b6040516106f8919061393e565b60405180910390f35b34801561070d57600080fd5b5061072860048036038101906107239190613c04565b611768565b6040516107359190613a9a565b60405180910390f35b34801561074a57600080fd5b5061075361181f565b005b34801561076157600080fd5b5061077c6004803603810190610777919061402e565b611833565b005b34801561078a57600080fd5b506107a560048036038101906107a09190614152565b6118f5565b005b3480156107b357600080fd5b506107ce60048036038101906107c99190613996565b611ad3565b005b3480156107dc57600080fd5b506107e5611ae5565b6040516107f29190613a04565b60405180910390f35b34801561080757600080fd5b50610822600480360381019061081d9190613e46565b611b0f565b005b34801561083057600080fd5b50610839611b60565b6040516108469190613831565b60405180910390f35b34801561085b57600080fd5b5061087660048036038101906108719190613996565b611b73565b6040516108839190613831565b60405180910390f35b34801561089857600080fd5b506108a1611c92565b6040516108ae919061393e565b60405180910390f35b6108d160048036038101906108cc9190613996565b611d24565b005b3480156108df57600080fd5b506108fa60048036038101906108f591906141ca565b611f22565b005b34801561090857600080fd5b50610911611f38565b005b34801561091f57600080fd5b5061093a600480360381019061093591906142ab565b611fad565b005b34801561094857600080fd5b5061095161200f565b60405161095e9190613831565b60405180910390f35b34801561097357600080fd5b5061098e60048036038101906109899190613878565b612022565b005b34801561099c57600080fd5b506109a5612047565b6040516109b2919061393e565b60405180910390f35b3480156109c757600080fd5b506109e260048036038101906109dd9190613996565b6120d5565b6040516109ef919061393e565b60405180910390f35b348015610a0457600080fd5b50610a1f6004803603810190610a1a9190613878565b6122da565b005b348015610a2d57600080fd5b50610a366122ff565b604051610a439190613a9a565b60405180910390f35b348015610a5857600080fd5b50610a736004803603810190610a6e9190613e46565b612305565b005b348015610a8157600080fd5b50610a9c6004803603810190610a979190613c04565b612320565b005b348015610aaa57600080fd5b50610ac56004803603810190610ac0919061432e565b6123c1565b604051610ad29190613831565b60405180910390f35b348015610ae757600080fd5b50610af0612455565b604051610afd919061437d565b60405180910390f35b348015610b1257600080fd5b50610b2d6004803603810190610b289190614398565b612467565b005b348015610b3b57600080fd5b50610b566004803603810190610b519190613e46565b6125ce565b005b348015610b6457600080fd5b50610b7f6004803603810190610b7a9190613c04565b6125e9565b005b610b9b6004803603810190610b9691906143d8565b61266c565b005b60007f80ac58cd000000000000000000000000000000000000000000000000000000007bffffffffffffffffffffffffffffffffffffffffffffffffffffffff1916827bffffffffffffffffffffffffffffffffffffffffffffffffffffffff19161480610c6857507f5b5e139f000000000000000000000000000000000000000000000000000000007bffffffffffffffffffffffffffffffffffffffffffffffffffffffff1916827bffffffffffffffffffffffffffffffffffffffffffffffffffffffff1916145b80610c785750610c7782612914565b5b9050919050565b610c8761297e565b80600f60006101000a81548160ff02191690831515021790555050565b606060008054610cb390614494565b80601f0160208091040260200160405190810160405280929190818152602001828054610cdf90614494565b8015610d2c5780601f10610d0157610100808354040283529160200191610d2c565b820191906000526020600020905b815481529060010190602001808311610d0f57829003601f168201915b5050505050905090565b6000610d41826129fc565b6004600083815260200190815260200160002060009054906101000a900473ffffffffffffffffffffffffffffffffffffffff169050919050565b60098054610d8990614494565b80601f0160208091040260200160405190810160405280929190818152602001828054610db590614494565b8015610e025780601f10610dd757610100808354040283529160200191610e02565b820191906000526020600020905b815481529060010190602001808311610de557829003601f168201915b505050505081565b6000610e1582611565565b90508073ffffffffffffffffffffffffffffffffffffffff168373ffffffffffffffffffffffffffffffffffffffff1603610e85576040517f08c379a0000000000000000000000000000000000000000000000000000000008152600401610e7c90614537565b60405180910390fd5b8073ffffffffffffffffffffffffffffffffffffffff16610ea4612a47565b73ffffffffffffffffffffffffffffffffffffffff161480610ed35750610ed281610ecd612a47565b6123c1565b5b610f12576040517f08c379a0000000000000000000000000000000000000000000000000000000008152600401610f09906145c9565b60405180910390fd5b610f1c8383612a4f565b505050565b600c5481565b60008030888888604051602001610f419493929190614652565b60405160208183030381529060405280519060200120905060006040518060400160405280601c81526020017f19457468657265756d205369676e6564204d6573736167653a0a333200000000815250905060008183604051602001610fa8929190614708565b604051602081830303815290604052805190602001209050600060018289898960405160008152602001604052604051610fe5949392919061474e565b6020604051602081039080840390855afa158015611007573d6000803e3d6000fd5b50505060206040510351905061101b611ae5565b73ffffffffffffffffffffffffffffffffffffffff168173ffffffffffffffffffffffffffffffffffffffff160361105a576001945050505050611063565b60009450505050505b9695505050505050565b60006110796008612b08565b905090565b600e5481565b61109561108f612a47565b82612b16565b6110d4576040517f08c379a00000000000000000000000000000000000000000000000000000000081526004016110cb90614805565b60405180910390fd5b6110df838383612bab565b505050565b6110ec61297e565b6000600f60029054906101000a900473ffffffffffffffffffffffffffffffffffffffff1673ffffffffffffffffffffffffffffffffffffffff166103e86019476111379190614854565b61114191906148dd565b60405161114d90614934565b60006040518083038185875af1925050503d806000811461118a576040519150601f19603f3d011682016040523d82523d6000602084013e61118f565b606091505b505090508061119d57600080fd5b60006111a7611ae5565b73ffffffffffffffffffffffffffffffffffffffff16476040516111ca90614934565b60006040518083038185875af1925050503d8060008114611207576040519150601f19603f3d011682016040523d82523d6000602084013e61120c565b606091505b505090508061121a57600080fd5b5050565b61123983838360405180602001604052806000815250611fad565b505050565b6060600061124b83611768565b905060008167ffffffffffffffff81111561126957611268613d1b565b5b6040519080825280602002602001820160405280156112975781602001602082028036833780820191505090505b50905060006001905060005b83811080156112b45750600d548211155b1561133c5760006112c483611565565b90508673ffffffffffffffffffffffffffffffffffffffff168173ffffffffffffffffffffffffffffffffffffffff1603611328578284838151811061130d5761130c614949565b5b602002602001018181525050818061132490614978565b9250505b828061133390614978565b935050506112a3565b82945050505050919050565b61135061297e565b80600c8190555050565b600f60019054906101000a900460ff1681565b61137561297e565b80600a90816113849190614b6c565b5050565b600f60009054906101000a900460ff1681565b6113a3613751565b6010600083815260200190815260200160002060000160009054906101000a900460ff16611406576040517f08c379a00000000000000000000000000000000000000000000000000000000081526004016113fd90614c8a565b60405180910390fd5b601060008381526020019081526020016000206040518060800160405290816000820160009054906101000a900460ff161515151581526020016000820160019054906101000a900460ff16151515158152602001600182015481526020016002820154815250509050919050565b61147d61297e565b600f60009054906101000a900460ff166114cc576040517f08c379a00000000000000000000000000000000000000000000000000000000081526004016114c390614cf6565b60405180910390fd5b836010600087815260200190815260200160002060000160006101000a81548160ff021916908315150217905550826010600087815260200190815260200160002060000160016101000a81548160ff0219169083151502179055508160106000878152602001908152602001600020600101819055508060106000878152602001908152602001600020600201819055505050505050565b6000806002600084815260200190815260200160002060009054906101000a900473ffffffffffffffffffffffffffffffffffffffff169050600073ffffffffffffffffffffffffffffffffffffffff168173ffffffffffffffffffffffffffffffffffffffff160361160d576040517f08c379a000000000000000000000000000000000000000000000000000000000815260040161160490614d62565b60405180910390fd5b80915050919050565b61161e61297e565b61162783612e11565b611666576040517f08c379a000000000000000000000000000000000000000000000000000000000815260040161165d90614df4565b60405180910390fd5b60008160126000868152602001908152602001600020546116879190614e14565b9050806012600086815260200190815260200160002081905550826013600083815260200190815260200160002090816116c19190614b6c565b508060145412156116d457806014819055505b50505050565b600a80546116e790614494565b80601f016020809104026020016040519081016040528092919081815260200182805461171390614494565b80156117605780601f1061173557610100808354040283529160200191611760565b820191906000526020600020905b81548152906001019060200180831161174357829003601f168201915b505050505081565b60008073ffffffffffffffffffffffffffffffffffffffff168273ffffffffffffffffffffffffffffffffffffffff16036117d8576040517f08c379a00000000000000000000000000000000000000000000000000000000081526004016117cf90614f1a565b60405180910390fd5b600360008373ffffffffffffffffffffffffffffffffffffffff1673ffffffffffffffffffffffffffffffffffffffff168152602001908152602001600020549050919050565b61182761297e565b6118316000612e7d565b565b61183b61297e565b6001826118489190614f3a565b6014541461188b576040517f08c379a000000000000000000000000000000000000000000000000000000000815260040161188290615040565b60405180910390fd5b60005b61189661106d565b8110156118c85782601260008381526020019081526020016000208190555080806118c090614978565b91505061188e565b5081601481905550806013600084815260200190815260200160002090816118f09190614b6c565b505050565b6118fd61297e565b600f60009054906101000a900460ff1661194c576040517f08c379a000000000000000000000000000000000000000000000000000000000815260040161194390614cf6565b60405180910390fd5b8051825114611990576040517f08c379a0000000000000000000000000000000000000000000000000000000008152600401611987906150ac565b60405180910390fd5b60005b8251811015611ace5760016010600083815260200190815260200160002060000160006101000a81548160ff02191690831515021790555060008382815181106119e0576119df614949565b5b602002602001015103611a215760006010600083815260200190815260200160002060000160016101000a81548160ff021916908315150217905550611a51565b60016010600083815260200190815260200160002060000160016101000a81548160ff0219169083151502179055505b828181518110611a6457611a63614949565b5b60200260200101516010600083815260200190815260200160002060010181905550818181518110611a9957611a98614949565b5b602002602001015160106000838152602001908152602001600020600201819055508080611ac690614978565b915050611993565b505050565b611adb61297e565b80600e8190555050565b6000600660009054906101000a900473ffffffffffffffffffffffffffffffffffffffff16905090565b611b1761297e565b6000601481905550806013600060145481526020019081526020016000209081611b419190614b6c565b506001600f60016101000a81548160ff02191690831515021790555050565b601160009054906101000a900460ff1681565b60006010600083815260200190815260200160002060000160009054906101000a900460ff16611bd8576040517f08c379a0000000000000000000000000000000000000000000000000000000008152600401611bcf90614c8a565b60405180910390fd5b600015156010600084815260200190815260200160002060000160019054906101000a900460ff1615151480611c7a5750611c79601060008481526020019081526020016000206040518060800160405290816000820160009054906101000a900460ff161515151581526020016000820160019054906101000a900460ff1615151515815260200160018201548152602001600282015481525050612f43565b5b15611c885760019050611c8d565b600090505b919050565b606060018054611ca190614494565b80601f0160208091040260200160405190810160405280929190818152602001828054611ccd90614494565b8015611d1a5780601f10611cef57610100808354040283529160200191611d1a565b820191906000526020600020905b815481529060010190602001808311611cfd57829003601f168201915b5050505050905090565b600260075403611d69576040517f08c379a0000000000000000000000000000000000000000000000000000000008152600401611d6090615118565b60405180910390fd5b600260078190555080600f60009054906101000a900460ff1615611dc2576040517f08c379a0000000000000000000000000000000000000000000000000000000008152600401611db990615184565b60405180910390fd5b600081118015611dd45750600e548111155b611e13576040517f08c379a0000000000000000000000000000000000000000000000000000000008152600401611e0a906151f0565b60405180910390fd5b600d5481611e216008612b08565b611e2b9190615210565b1115611e6c576040517f08c379a0000000000000000000000000000000000000000000000000000000008152600401611e63906152b2565b60405180910390fd5b81600c54611e7a9190614854565b341015611ebc576040517f08c379a0000000000000000000000000000000000000000000000000000000008152600401611eb39061531e565b60405180910390fd5b601160009054906101000a900460ff1615611f0c576040517f08c379a0000000000000000000000000000000000000000000000000000000008152600401611f03906153b0565b60405180910390fd5b611f163383612fcd565b50600160078190555050565b611f34611f2d612a47565b838361300d565b5050565b611f4061297e565b601160019054906101000a900460ff1615611f90576040517f08c379a0000000000000000000000000000000000000000000000000000000008152600401611f8790615442565b60405180910390fd5b6001600f60016101000a81548160ff021916908315150217905550565b611fbe611fb8612a47565b83612b16565b611ffd576040517f08c379a0000000000000000000000000000000000000000000000000000000008152600401611ff490614805565b60405180910390fd5b61200984848484613179565b50505050565b601160019054906101000a900460ff1681565b61202a61297e565b80601160016101000a81548160ff02191690831515021790555050565b600b805461205490614494565b80601f016020809104026020016040519081016040528092919081815260200182805461208090614494565b80156120cd5780601f106120a2576101008083540402835291602001916120cd565b820191906000526020600020905b8154815290600101906020018083116120b057829003601f168201915b505050505081565b60606120e082612e11565b61211f576040517f08c379a0000000000000000000000000000000000000000000000000000000008152600401612116906154d4565b60405180910390fd5b60001515600f60019054906101000a900460ff161515036121cc576009805461214790614494565b80601f016020809104026020016040519081016040528092919081815260200182805461217390614494565b80156121c05780601f10612195576101008083540402835291602001916121c0565b820191906000526020600020905b8154815290600101906020018083116121a357829003601f168201915b505050505090506122d5565b600060126000848152602001908152602001600020549050600060136000838152602001908152602001600020805461220490614494565b80601f016020809104026020016040519081016040528092919081815260200182805461223090614494565b801561227d5780601f106122525761010080835404028352916020019161227d565b820191906000526020600020905b81548152906001019060200180831161226057829003601f168201915b5050505050905060008151116122a257604051806020016040528060008152506122d0565b806122ac856131d5565b600b6040516020016122c0939291906155b3565b6040516020818303038152906040525b925050505b919050565b6122e261297e565b80601160006101000a81548160ff02191690831515021790555050565b600d5481565b61230d61297e565b80600b908161231c9190614b6c565b5050565b600260075403612365576040517f08c379a000000000000000000000000000000000000000000000000000000000815260040161235c90615118565b60405180910390fd5b600260078190555061237561297e565b80600f60026101000a81548173ffffffffffffffffffffffffffffffffffffffff021916908373ffffffffffffffffffffffffffffffffffffffff160217905550600160078190555050565b6000600560008473ffffffffffffffffffffffffffffffffffffffff1673ffffffffffffffffffffffffffffffffffffffff16815260200190815260200160002060008373ffffffffffffffffffffffffffffffffffffffff1673ffffffffffffffffffffffffffffffffffffffff16815260200190815260200160002060009054906101000a900460ff16905092915050565b600061245f61297e565b601454905090565b6002600754036124ac576040517f08c379a00000000000000000000000000000000000000000000000000000000081526004016124a390615118565b60405180910390fd5b600260078190555081600f60009054906101000a900460ff1615612505576040517f08c379a00000000000000000000000000000000000000000000000000000000081526004016124fc90615184565b60405180910390fd5b6000811180156125175750600e548111155b612556576040517f08c379a000000000000000000000000000000000000000000000000000000000815260040161254d906151f0565b60405180910390fd5b600d54816125646008612b08565b61256e9190615210565b11156125af576040517f08c379a00000000000000000000000000000000000000000000000000000000081526004016125a6906152b2565b60405180910390fd5b6125b761297e565b6125c18284612fcd565b5060016007819055505050565b6125d661297e565b80600990816125e59190614b6c565b5050565b6125f161297e565b600073ffffffffffffffffffffffffffffffffffffffff168173ffffffffffffffffffffffffffffffffffffffff1603612660576040517f08c379a000000000000000000000000000000000000000000000000000000000815260040161265790615656565b60405180910390fd5b61266981612e7d565b50565b6002600754036126b1576040517f08c379a00000000000000000000000000000000000000000000000000000000081526004016126a890615118565b60405180910390fd5b600260078190555085600f60009054906101000a900460ff161561270a576040517f08c379a000000000000000000000000000000000000000000000000000000000815260040161270190615184565b60405180910390fd5b60008111801561271c5750600e548111155b61275b576040517f08c379a0000000000000000000000000000000000000000000000000000000008152600401612752906151f0565b60405180910390fd5b600d54816127696008612b08565b6127739190615210565b11156127b4576040517f08c379a00000000000000000000000000000000000000000000000000000000081526004016127ab906152b2565b60405180910390fd5b846127bd61106d565b8585856127ce338686868686610f27565b61280d576040517f08c379a0000000000000000000000000000000000000000000000000000000008152600401612804906156c2565b60405180910390fd5b601160009054906101000a900460ff1661285c576040517f08c379a000000000000000000000000000000000000000000000000000000000815260040161285390615754565b60405180910390fd5b6128658b611b73565b6128a4576040517f08c379a000000000000000000000000000000000000000000000000000000000815260040161289b906157c0565b60405180910390fd5b8b600c546128b29190614854565b3410156128f4576040517f08c379a00000000000000000000000000000000000000000000000000000000081526004016128eb9061531e565b60405180910390fd5b6128fe338d612fcd565b5050505050506001600781905550505050505050565b60007f01ffc9a7000000000000000000000000000000000000000000000000000000007bffffffffffffffffffffffffffffffffffffffffffffffffffffffff1916827bffffffffffffffffffffffffffffffffffffffffffffffffffffffff1916149050919050565b612986612a47565b73ffffffffffffffffffffffffffffffffffffffff166129a4611ae5565b73ffffffffffffffffffffffffffffffffffffffff16146129fa576040517f08c379a00000000000000000000000000000000000000000000000000000000081526004016129f19061582c565b60405180910390fd5b565b612a0581612e11565b612a44576040517f08c379a0000000000000000000000000000000000000000000000000000000008152600401612a3b90614d62565b60405180910390fd5b50565b600033905090565b816004600083815260200190815260200160002060006101000a81548173ffffffffffffffffffffffffffffffffffffffff021916908373ffffffffffffffffffffffffffffffffffffffff160217905550808273ffffffffffffffffffffffffffffffffffffffff16612ac283611565565b73ffffffffffffffffffffffffffffffffffffffff167f8c5be1e5ebec7d5bd14f71427d1e84f3dd0314c0f7b2291e5b200ac8c7c3b92560405160405180910390a45050565b600081600001549050919050565b600080612b2283611565565b90508073ffffffffffffffffffffffffffffffffffffffff168473ffffffffffffffffffffffffffffffffffffffff161480612b645750612b6381856123c1565b5b80612ba257508373ffffffffffffffffffffffffffffffffffffffff16612b8a84610d36565b73ffffffffffffffffffffffffffffffffffffffff16145b91505092915050565b8273ffffffffffffffffffffffffffffffffffffffff16612bcb82611565565b73ffffffffffffffffffffffffffffffffffffffff1614612c21576040517f08c379a0000000000000000000000000000000000000000000000000000000008152600401612c18906158be565b60405180910390fd5b600073ffffffffffffffffffffffffffffffffffffffff168273ffffffffffffffffffffffffffffffffffffffff1603612c90576040517f08c379a0000000000000000000000000000000000000000000000000000000008152600401612c8790615950565b60405180910390fd5b612c9b838383613335565b612ca6600082612a4f565b6001600360008573ffffffffffffffffffffffffffffffffffffffff1673ffffffffffffffffffffffffffffffffffffffff1681526020019081526020016000206000828254612cf69190615970565b925050819055506001600360008473ffffffffffffffffffffffffffffffffffffffff1673ffffffffffffffffffffffffffffffffffffffff1681526020019081526020016000206000828254612d4d9190615210565b92505081905550816002600083815260200190815260200160002060006101000a81548173ffffffffffffffffffffffffffffffffffffffff021916908373ffffffffffffffffffffffffffffffffffffffff160217905550808273ffffffffffffffffffffffffffffffffffffffff168473ffffffffffffffffffffffffffffffffffffffff167fddf252ad1be2c89b69c2b068fc378daa952ba7f163c4a11628f55a4df523b3ef60405160405180910390a4612e0c83838361333a565b505050565b60008073ffffffffffffffffffffffffffffffffffffffff166002600084815260200190815260200160002060009054906101000a900473ffffffffffffffffffffffffffffffffffffffff1673ffffffffffffffffffffffffffffffffffffffff1614159050919050565b6000600660009054906101000a900473ffffffffffffffffffffffffffffffffffffffff16905081600660006101000a81548173ffffffffffffffffffffffffffffffffffffffff021916908373ffffffffffffffffffffffffffffffffffffffff1602179055508173ffffffffffffffffffffffffffffffffffffffff168173ffffffffffffffffffffffffffffffffffffffff167f8be0079c531659141344cd1fd0a4f28419497f9722a3daafe3b4186f6b6457e060405160405180910390a35050565b600080826040015111612f8b576040517f08c379a0000000000000000000000000000000000000000000000000000000008152600401612f82906159f0565b60405180910390fd5b8160400151421015612fa05760009050612fc8565b600082606001511115612fc3574282606001511015612fc25760009050612fc8565b5b600190505b919050565b60005b8181101561300857612fe2600861333f565b612ff583612ff06008612b08565b613355565b808061300090614978565b915050612fd0565b505050565b8173ffffffffffffffffffffffffffffffffffffffff168373ffffffffffffffffffffffffffffffffffffffff160361307b576040517f08c379a000000000000000000000000000000000000000000000000000000000815260040161307290615a5c565b60405180910390fd5b80600560008573ffffffffffffffffffffffffffffffffffffffff1673ffffffffffffffffffffffffffffffffffffffff16815260200190815260200160002060008473ffffffffffffffffffffffffffffffffffffffff1673ffffffffffffffffffffffffffffffffffffffff16815260200190815260200160002060006101000a81548160ff0219169083151502179055508173ffffffffffffffffffffffffffffffffffffffff168373ffffffffffffffffffffffffffffffffffffffff167f17307eab39ab6107e8899845ad3d59bd9653f200f220920489ca2b5937696c318360405161316c9190613831565b60405180910390a3505050565b613184848484612bab565b61319084848484613373565b6131cf576040517f08c379a00000000000000000000000000000000000000000000000000000000081526004016131c690615aee565b60405180910390fd5b50505050565b60606000820361321c576040518060400160405280600181526020017f30000000000000000000000000000000000000000000000000000000000000008152509050613330565b600082905060005b6000821461324e57808061323790614978565b915050600a8261324791906148dd565b9150613224565b60008167ffffffffffffffff81111561326a57613269613d1b565b5b6040519080825280601f01601f19166020018201604052801561329c5781602001600182028036833780820191505090505b5090505b60008514613329576001826132b59190615970565b9150600a856132c49190615b0e565b60306132d09190615210565b60f81b8183815181106132e6576132e5614949565b5b60200101907effffffffffffffffffffffffffffffffffffffffffffffffffffffffffffff1916908160001a905350600a8561332291906148dd565b94506132a0565b8093505050505b919050565b505050565b505050565b6001816000016000828254019250508190555050565b61336f8282604051806020016040528060008152506134fa565b5050565b60006133948473ffffffffffffffffffffffffffffffffffffffff16613555565b156134ed578373ffffffffffffffffffffffffffffffffffffffff1663150b7a026133bd612a47565b8786866040518563ffffffff1660e01b81526004016133df9493929190615b89565b6020604051808303816000875af192505050801561341b57506040513d601f19601f820116820180604052508101906134189190615bea565b60015b61349d573d806000811461344b576040519150601f19603f3d011682016040523d82523d6000602084013e613450565b606091505b506000815103613495576040517f08c379a000000000000000000000000000000000000000000000000000000000815260040161348c90615aee565b60405180910390fd5b805181602001fd5b63150b7a0260e01b7bffffffffffffffffffffffffffffffffffffffffffffffffffffffff1916817bffffffffffffffffffffffffffffffffffffffffffffffffffffffff1916149150506134f2565b600190505b949350505050565b6135048383613578565b6135116000848484613373565b613550576040517f08c379a000000000000000000000000000000000000000000000000000000000815260040161354790615aee565b60405180910390fd5b505050565b6000808273ffffffffffffffffffffffffffffffffffffffff163b119050919050565b600073ffffffffffffffffffffffffffffffffffffffff168273ffffffffffffffffffffffffffffffffffffffff16036135e7576040517f08c379a00000000000000000000000000000000000000000000000000000000081526004016135de90615c63565b60405180910390fd5b6135f081612e11565b15613630576040517f08c379a000000000000000000000000000000000000000000000000000000000815260040161362790615ccf565b60405180910390fd5b61363c60008383613335565b6001600360008473ffffffffffffffffffffffffffffffffffffffff1673ffffffffffffffffffffffffffffffffffffffff168152602001908152602001600020600082825461368c9190615210565b92505081905550816002600083815260200190815260200160002060006101000a81548173ffffffffffffffffffffffffffffffffffffffff021916908373ffffffffffffffffffffffffffffffffffffffff160217905550808273ffffffffffffffffffffffffffffffffffffffff16600073ffffffffffffffffffffffffffffffffffffffff167fddf252ad1be2c89b69c2b068fc378daa952ba7f163c4a11628f55a4df523b3ef60405160405180910390a461374d6000838361333a565b5050565b604051806080016040528060001515815260200160001515815260200160008152602001600081525090565b6000604051905090565b600080fd5b600080fd5b60007fffffffff0000000000000000000000000000000000000000000000000000000082169050919050565b6137c681613791565b81146137d157600080fd5b50565b6000813590506137e3816137bd565b92915050565b6000602082840312156137ff576137fe613787565b5b600061380d848285016137d4565b91505092915050565b60008115159050919050565b61382b81613816565b82525050565b60006020820190506138466000830184613822565b92915050565b61385581613816565b811461386057600080fd5b50565b6000813590506138728161384c565b92915050565b60006020828403121561388e5761388d613787565b5b600061389c84828501613863565b91505092915050565b600081519050919050565b600082825260208201905092915050565b60005b838110156138df5780820151818401526020810190506138c4565b838111156138ee576000848401525b50505050565b6000601f19601f8301169050919050565b6000613910826138a5565b61391a81856138b0565b935061392a8185602086016138c1565b613933816138f4565b840191505092915050565b600060208201905081810360008301526139588184613905565b905092915050565b6000819050919050565b61397381613960565b811461397e57600080fd5b50565b6000813590506139908161396a565b92915050565b6000602082840312156139ac576139ab613787565b5b60006139ba84828501613981565b91505092915050565b600073ffffffffffffffffffffffffffffffffffffffff82169050919050565b60006139ee826139c3565b9050919050565b6139fe816139e3565b82525050565b6000602082019050613a1960008301846139f5565b92915050565b613a28816139e3565b8114613a3357600080fd5b50565b600081359050613a4581613a1f565b92915050565b60008060408385031215613a6257613a61613787565b5b6000613a7085828601613a36565b9250506020613a8185828601613981565b9150509250929050565b613a9481613960565b82525050565b6000602082019050613aaf6000830184613a8b565b92915050565b600060ff82169050919050565b613acb81613ab5565b8114613ad657600080fd5b50565b600081359050613ae881613ac2565b92915050565b6000819050919050565b613b0181613aee565b8114613b0c57600080fd5b50565b600081359050613b1e81613af8565b92915050565b60008060008060008060c08789031215613b4157613b40613787565b5b6000613b4f89828a01613a36565b9650506020613b6089828a01613981565b9550506040613b7189828a01613981565b9450506060613b8289828a01613ad9565b9350506080613b9389828a01613b0f565b92505060a0613ba489828a01613b0f565b9150509295509295509295565b600080600060608486031215613bca57613bc9613787565b5b6000613bd886828701613a36565b9350506020613be986828701613a36565b9250506040613bfa86828701613981565b9150509250925092565b600060208284031215613c1a57613c19613787565b5b6000613c2884828501613a36565b91505092915050565b600081519050919050565b600082825260208201905092915050565b6000819050602082019050919050565b613c6681613960565b82525050565b6000613c788383613c5d565b60208301905092915050565b6000602082019050919050565b6000613c9c82613c31565b613ca68185613c3c565b9350613cb183613c4d565b8060005b83811015613ce2578151613cc98882613c6c565b9750613cd483613c84565b925050600181019050613cb5565b5085935050505092915050565b60006020820190508181036000830152613d098184613c91565b905092915050565b600080fd5b600080fd5b7f4e487b7100000000000000000000000000000000000000000000000000000000600052604160045260246000fd5b613d53826138f4565b810181811067ffffffffffffffff82111715613d7257613d71613d1b565b5b80604052505050565b6000613d8561377d565b9050613d918282613d4a565b919050565b600067ffffffffffffffff821115613db157613db0613d1b565b5b613dba826138f4565b9050602081019050919050565b82818337600083830152505050565b6000613de9613de484613d96565b613d7b565b905082815260208101848484011115613e0557613e04613d16565b5b613e10848285613dc7565b509392505050565b600082601f830112613e2d57613e2c613d11565b5b8135613e3d848260208601613dd6565b91505092915050565b600060208284031215613e5c57613e5b613787565b5b600082013567ffffffffffffffff811115613e7a57613e7961378c565b5b613e8684828501613e18565b91505092915050565b613e9881613816565b82525050565b608082016000820151613eb46000850182613e8f565b506020820151613ec76020850182613e8f565b506040820151613eda6040850182613c5d565b506060820151613eed6060850182613c5d565b50505050565b6000608082019050613f086000830184613e9e565b92915050565b600080600080600060a08688031215613f2a57613f29613787565b5b6000613f3888828901613981565b9550506020613f4988828901613863565b9450506040613f5a88828901613863565b9350506060613f6b88828901613981565b9250506080613f7c88828901613981565b9150509295509295909350565b6000819050919050565b613f9c81613f89565b8114613fa757600080fd5b50565b600081359050613fb981613f93565b92915050565b600080600060608486031215613fd857613fd7613787565b5b6000613fe686828701613981565b935050602084013567ffffffffffffffff8111156140075761400661378c565b5b61401386828701613e18565b925050604061402486828701613faa565b9150509250925092565b6000806040838503121561404557614044613787565b5b600061405385828601613faa565b925050602083013567ffffffffffffffff8111156140745761407361378c565b5b61408085828601613e18565b9150509250929050565b600067ffffffffffffffff8211156140a5576140a4613d1b565b5b602082029050602081019050919050565b600080fd5b60006140ce6140c98461408a565b613d7b565b905080838252602082019050602084028301858111156140f1576140f06140b6565b5b835b8181101561411a57806141068882613981565b8452602084019350506020810190506140f3565b5050509392505050565b600082601f83011261413957614138613d11565b5b81356141498482602086016140bb565b91505092915050565b6000806040838503121561416957614168613787565b5b600083013567ffffffffffffffff8111156141875761418661378c565b5b61419385828601614124565b925050602083013567ffffffffffffffff8111156141b4576141b361378c565b5b6141c085828601614124565b9150509250929050565b600080604083850312156141e1576141e0613787565b5b60006141ef85828601613a36565b925050602061420085828601613863565b9150509250929050565b600067ffffffffffffffff82111561422557614224613d1b565b5b61422e826138f4565b9050602081019050919050565b600061424e6142498461420a565b613d7b565b90508281526020810184848401111561426a57614269613d16565b5b614275848285613dc7565b509392505050565b600082601f83011261429257614291613d11565b5b81356142a284826020860161423b565b91505092915050565b600080600080608085870312156142c5576142c4613787565b5b60006142d387828801613a36565b94505060206142e487828801613a36565b93505060406142f587828801613981565b925050606085013567ffffffffffffffff8111156143165761431561378c565b5b6143228782880161427d565b91505092959194509250565b6000806040838503121561434557614344613787565b5b600061435385828601613a36565b925050602061436485828601613a36565b9150509250929050565b61437781613f89565b82525050565b6000602082019050614392600083018461436e565b92915050565b600080604083850312156143af576143ae613787565b5b60006143bd85828601613981565b92505060206143ce85828601613a36565b9150509250929050565b60008060008060008060c087890312156143f5576143f4613787565b5b600061440389828a01613981565b965050602061441489828a01613981565b955050604061442589828a01613981565b945050606061443689828a01613ad9565b935050608061444789828a01613b0f565b92505060a061445889828a01613b0f565b9150509295509295509295565b7f4e487b7100000000000000000000000000000000000000000000000000000000600052602260045260246000fd5b600060028204905060018216806144ac57607f821691505b6020821081036144bf576144be614465565b5b50919050565b7f4552433732313a20617070726f76616c20746f2063757272656e74206f776e6560008201527f7200000000000000000000000000000000000000000000000000000000000000602082015250565b60006145216021836138b0565b915061452c826144c5565b604082019050919050565b6000602082019050818103600083015261455081614514565b9050919050565b7f4552433732313a20617070726f76652063616c6c6572206973206e6f7420746f60008201527f6b656e206f776e6572206e6f7220617070726f76656420666f7220616c6c0000602082015250565b60006145b3603e836138b0565b91506145be82614557565b604082019050919050565b600060208201905081810360008301526145e2816145a6565b9050919050565b60008160601b9050919050565b6000614601826145e9565b9050919050565b6000614613826145f6565b9050919050565b61462b614626826139e3565b614608565b82525050565b6000819050919050565b61464c61464782613960565b614631565b82525050565b600061465e828761461a565b60148201915061466e828661461a565b60148201915061467e828561463b565b60208201915061468e828461463b565b60208201915081905095945050505050565b600081519050919050565b600081905092915050565b60006146c1826146a0565b6146cb81856146ab565b93506146db8185602086016138c1565b80840191505092915050565b6000819050919050565b6147026146fd82613aee565b6146e7565b82525050565b600061471482856146b6565b915061472082846146f1565b6020820191508190509392505050565b61473981613aee565b82525050565b61474881613ab5565b82525050565b60006080820190506147636000830187614730565b614770602083018661473f565b61477d6040830185614730565b61478a6060830184614730565b95945050505050565b7f4552433732313a2063616c6c6572206973206e6f7420746f6b656e206f776e6560008201527f72206e6f7220617070726f766564000000000000000000000000000000000000602082015250565b60006147ef602e836138b0565b91506147fa82614793565b604082019050919050565b6000602082019050818103600083015261481e816147e2565b9050919050565b7f4e487b7100000000000000000000000000000000000000000000000000000000600052601160045260246000fd5b600061485f82613960565b915061486a83613960565b9250817fffffffffffffffffffffffffffffffffffffffffffffffffffffffffffffffff04831182151516156148a3576148a2614825565b5b828202905092915050565b7f4e487b7100000000000000000000000000000000000000000000000000000000600052601260045260246000fd5b60006148e882613960565b91506148f383613960565b925082614903576149026148ae565b5b828204905092915050565b50565b600061491e6000836146ab565b91506149298261490e565b600082019050919050565b600061493f82614911565b9150819050919050565b7f4e487b7100000000000000000000000000000000000000000000000000000000600052603260045260246000fd5b600061498382613960565b91507fffffffffffffffffffffffffffffffffffffffffffffffffffffffffffffffff82036149b5576149b4614825565b5b600182019050919050565b60008190508160005260206000209050919050565b60006020601f8301049050919050565b600082821b905092915050565b600060088302614a227fffffffffffffffffffffffffffffffffffffffffffffffffffffffffffffffff826149e5565b614a2c86836149e5565b95508019841693508086168417925050509392505050565b6000819050919050565b6000614a69614a64614a5f84613960565b614a44565b613960565b9050919050565b6000819050919050565b614a8383614a4e565b614a97614a8f82614a70565b8484546149f2565b825550505050565b600090565b614aac614a9f565b614ab7818484614a7a565b505050565b5b81811015614adb57614ad0600082614aa4565b600181019050614abd565b5050565b601f821115614b2057614af1816149c0565b614afa846149d5565b81016020851015614b09578190505b614b1d614b15856149d5565b830182614abc565b50505b505050565b600082821c905092915050565b6000614b4360001984600802614b25565b1980831691505092915050565b6000614b5c8383614b32565b9150826002028217905092915050565b614b75826138a5565b67ffffffffffffffff811115614b8e57614b8d613d1b565b5b614b988254614494565b614ba3828285614adf565b600060209050601f831160018114614bd65760008415614bc4578287015190505b614bce8582614b50565b865550614c36565b601f198416614be4866149c0565b60005b82811015614c0c57848901518255600182019150602085019450602081019050614be7565b86831015614c295784890151614c25601f891682614b32565b8355505b6001600288020188555050505b505050505050565b7f57726f6e6720696e6465782070726f7669646564000000000000000000000000600082015250565b6000614c746014836138b0565b9150614c7f82614c3e565b602082019050919050565b60006020820190508181036000830152614ca381614c67565b9050919050565b7f54686520636f6e7472616374206973204e4f5420706175736564210000000000600082015250565b6000614ce0601b836138b0565b9150614ceb82614caa565b602082019050919050565b60006020820190508181036000830152614d0f81614cd3565b9050919050565b7f4552433732313a20696e76616c696420746f6b656e2049440000000000000000600082015250565b6000614d4c6018836138b0565b9150614d5782614d16565b602082019050919050565b60006020820190508181036000830152614d7b81614d3f565b9050919050565b7f4d656e7461706f727444796e616d69633a20717565727920666f72206e6f6e6560008201527f78697374656e7420746f6b656e00000000000000000000000000000000000000602082015250565b6000614dde602d836138b0565b9150614de982614d82565b604082019050919050565b60006020820190508181036000830152614e0d81614dd1565b9050919050565b6000614e1f82613f89565b9150614e2a83613f89565b9250817f7fffffffffffffffffffffffffffffffffffffffffffffffffffffffffffffff03831360008312151615614e6557614e64614825565b5b817f8000000000000000000000000000000000000000000000000000000000000000038312600083121615614e9d57614e9c614825565b5b828201905092915050565b7f4552433732313a2061646472657373207a65726f206973206e6f74206120766160008201527f6c6964206f776e65720000000000000000000000000000000000000000000000602082015250565b6000614f046029836138b0565b9150614f0f82614ea8565b604082019050919050565b60006020820190508181036000830152614f3381614ef7565b9050919050565b6000614f4582613f89565b9150614f5083613f89565b9250827f800000000000000000000000000000000000000000000000000000000000000001821260008412151615614f8b57614f8a614825565b5b827f7fffffffffffffffffffffffffffffffffffffffffffffffffffffffffffffff018213600084121615614fc357614fc2614825565b5b828203905092915050565b7f4d656e7461706f727444796e616d69633a2057726f6e6720737461746520707260008201527f6f76696465640000000000000000000000000000000000000000000000000000602082015250565b600061502a6026836138b0565b915061503582614fce565b604082019050919050565b600060208201905081810360008301526150598161501d565b9050919050565b7f57726f6e67206461746121000000000000000000000000000000000000000000600082015250565b6000615096600b836138b0565b91506150a182615060565b602082019050919050565b600060208201905081810360008301526150c581615089565b9050919050565b7f5265656e7472616e637947756172643a207265656e7472616e742063616c6c00600082015250565b6000615102601f836138b0565b915061510d826150cc565b602082019050919050565b60006020820190508181036000830152615131816150f5565b9050919050565b7f54686520636f6e74726163742069732070617573656421000000000000000000600082015250565b600061516e6017836138b0565b915061517982615138565b602082019050919050565b6000602082019050818103600083015261519d81615161565b9050919050565b7f496e76616c6964206d696e7420616d6f756e7421000000000000000000000000600082015250565b60006151da6014836138b0565b91506151e5826151a4565b602082019050919050565b60006020820190508181036000830152615209816151cd565b9050919050565b600061521b82613960565b915061522683613960565b9250827fffffffffffffffffffffffffffffffffffffffffffffffffffffffffffffffff0382111561525b5761525a614825565b5b828201905092915050565b7f4d617820737570706c7920657863656564656421000000000000000000000000600082015250565b600061529c6014836138b0565b91506152a782615266565b602082019050919050565b600060208201905081810360008301526152cb8161528f565b9050919050565b7f496e73756666696369656e742066756e64732100000000000000000000000000600082015250565b60006153086013836138b0565b9150615313826152d2565b602082019050919050565b60006020820190508181036000830152615337816152fb565b9050919050565b7f5468697320636f6e74726163742075736573206d696e742072756c65732c207560008201527f73652063616c6c3a206d696e744d656e74612e00000000000000000000000000602082015250565b600061539a6033836138b0565b91506153a58261533e565b604082019050919050565b600060208201905081810360008301526153c98161538d565b9050919050565b7f4d656e7461706f727444796e616d69633a207573652072657665616c44796e6160008201527f6d69630000000000000000000000000000000000000000000000000000000000602082015250565b600061542c6023836138b0565b9150615437826153d0565b604082019050919050565b6000602082019050818103600083015261545b8161541f565b9050919050565b7f4d656e7461706f727444796e616d69633a2055524920717565727920666f722060008201527f6e6f6e6578697374656e7420746f6b656e000000000000000000000000000000602082015250565b60006154be6031836138b0565b91506154c982615462565b604082019050919050565b600060208201905081810360008301526154ed816154b1565b9050919050565b600081905092915050565b600061550a826138a5565b61551481856154f4565b93506155248185602086016138c1565b80840191505092915050565b6000815461553d81614494565b61554781866154f4565b945060018216600081146155625760018114615577576155aa565b60ff19831686528115158202860193506155aa565b615580856149c0565b60005b838110156155a257815481890152600182019150602081019050615583565b838801955050505b50505092915050565b60006155bf82866154ff565b91506155cb82856154ff565b91506155d78284615530565b9150819050949350505050565b7f4f776e61626c653a206e6577206f776e657220697320746865207a65726f206160008201527f6464726573730000000000000000000000000000000000000000000000000000602082015250565b60006156406026836138b0565b915061564b826155e4565b604082019050919050565b6000602082019050818103600083015261566f81615633565b9050919050565b7f57726f6e67207369676e61747572650000000000000000000000000000000000600082015250565b60006156ac600f836138b0565b91506156b782615676565b602082019050919050565b600060208201905081810360008301526156db8161569f565b9050919050565b7f4e6f74207573696e67206d696e742072756c65732c20757365206e6f726d616c60008201527f206d696e742066756e6374696f6e2e0000000000000000000000000000000000602082015250565b600061573e602f836138b0565b9150615749826156e2565b604082019050919050565b6000602082019050818103600083015261576d81615731565b9050919050565b7f55736572206469646e742070617373206d696e742074696d652072756c65732e600082015250565b60006157aa6020836138b0565b91506157b582615774565b602082019050919050565b600060208201905081810360008301526157d98161579d565b9050919050565b7f4f776e61626c653a2063616c6c6572206973206e6f7420746865206f776e6572600082015250565b60006158166020836138b0565b9150615821826157e0565b602082019050919050565b6000602082019050818103600083015261584581615809565b9050919050565b7f4552433732313a207472616e736665722066726f6d20696e636f72726563742060008201527f6f776e6572000000000000000000000000000000000000000000000000000000602082015250565b60006158a86025836138b0565b91506158b38261584c565b604082019050919050565b600060208201905081810360008301526158d78161589b565b9050919050565b7f4552433732313a207472616e7366657220746f20746865207a65726f2061646460008201527f7265737300000000000000000000000000000000000000000000000000000000602082015250565b600061593a6024836138b0565b9150615945826158de565b604082019050919050565b600060208201905081810360008301526159698161592d565b9050919050565b600061597b82613960565b915061598683613960565b92508282101561599957615998614825565b5b828203905092915050565b7f54696d65206e6f7420696e697469616c697a6564000000000000000000000000600082015250565b60006159da6014836138b0565b91506159e5826159a4565b602082019050919050565b60006020820190508181036000830152615a09816159cd565b9050919050565b7f4552433732313a20617070726f766520746f2063616c6c657200000000000000600082015250565b6000615a466019836138b0565b9150615a5182615a10565b602082019050919050565b60006020820190508181036000830152615a7581615a39565b9050919050565b7f4552433732313a207472616e7366657220746f206e6f6e20455243373231526560008201527f63656976657220696d706c656d656e7465720000000000000000000000000000602082015250565b6000615ad86032836138b0565b9150615ae382615a7c565b604082019050919050565b60006020820190508181036000830152615b0781615acb565b9050919050565b6000615b1982613960565b9150615b2483613960565b925082615b3457615b336148ae565b5b828206905092915050565b600082825260208201905092915050565b6000615b5b826146a0565b615b658185615b3f565b9350615b758185602086016138c1565b615b7e816138f4565b840191505092915050565b6000608082019050615b9e60008301876139f5565b615bab60208301866139f5565b615bb86040830185613a8b565b8181036060830152615bca8184615b50565b905095945050505050565b600081519050615be4816137bd565b92915050565b600060208284031215615c0057615bff613787565b5b6000615c0e84828501615bd5565b91505092915050565b7f4552433732313a206d696e7420746f20746865207a65726f2061646472657373600082015250565b6000615c4d6020836138b0565b9150615c5882615c17565b602082019050919050565b60006020820190508181036000830152615c7c81615c40565b9050919050565b7f4552433732313a20746f6b656e20616c7265616479206d696e74656400000000600082015250565b6000615cb9601c836138b0565b9150615cc482615c83565b602082019050919050565b60006020820190508181036000830152615ce881615cac565b905091905056fea264697066735822122077d7f88867c65716f1728333aed636f81a8142a28a24709124a6cf279c76725164736f6c634300080f0033",
  "immutableReferences": {},
  "source": "//SPDX-License-Identifier: MIT\n\npragma solidity >=0.8.0 <0.9.0;\n\nimport \"@openzeppelin/contracts/utils/Strings.sol\"; \nimport \"./MentaportMint.sol\";\n\n/**                                            \n       \n             ___           ___           ___                         ___           ___         ___           ___                   \n     /\\  \\         /\\__\\         /\\  \\                       /\\  \\         /\\  \\       /\\  \\         /\\  \\                  \n    |::\\  \\       /:/ _/_        \\:\\  \\         ___         /::\\  \\       /::\\  \\     /::\\  \\       /::\\  \\         ___     \n    |:|:\\  \\     /:/ /\\__\\        \\:\\  \\       /\\__\\       /:/\\:\\  \\     /:/\\:\\__\\   /:/\\:\\  \\     /:/\\:\\__\\       /\\__\\    \n  __|:|\\:\\  \\   /:/ /:/ _/_   _____\\:\\  \\     /:/  /      /:/ /::\\  \\   /:/ /:/  /  /:/  \\:\\  \\   /:/ /:/  /      /:/  /    \n /::::|_\\:\\__\\ /:/_/:/ /\\__\\ /::::::::\\__\\   /:/__/      /:/_/:/\\:\\__\\ /:/_/:/  /  /:/__/ \\:\\__\\ /:/_/:/__/___   /:/__/     \n \\:\\~~\\  \\/__/ \\:\\/:/ /:/  / \\:\\~~\\~~\\/__/  /::\\  \\      \\:\\/:/  \\/__/ \\:\\/:/  /   \\:\\  \\ /:/  / \\:\\/:::::/  /  /::\\  \\     \n  \\:\\  \\        \\::/_/:/  /   \\:\\  \\       /:/\\:\\  \\      \\::/__/       \\::/__/     \\:\\  /:/  /   \\::/~~/~~~~  /:/\\:\\  \\    \n   \\:\\  \\        \\:\\/:/  /     \\:\\  \\      \\/__\\:\\  \\      \\:\\  \\        \\:\\  \\      \\:\\/:/  /     \\:\\~~\\      \\/__\\:\\  \\   \n    \\:\\__\\        \\::/  /       \\:\\__\\          \\:\\__\\      \\:\\__\\        \\:\\__\\      \\::/  /       \\:\\__\\          \\:\\__\\  \n     \\/__/         \\/__/         \\/__/           \\/__/       \\/__/         \\/__/       \\/__/         \\/__/           \\/__/  \n       \n       \n                                              ,d                                                         ,d     \n                                              88                                                         88     \n88,dPYba,,adPYba,    ,adPPYba,  8b,dPPYba,  MM88MMM  ,adPPYYba,  8b,dPPYba,    ,adPPYba,   8b,dPPYba,  MM88MMM  \n88P'   \"88\"    \"8a  a8P_____88  88P'   `\"8a   88     \"\"     `Y8  88P'    \"8a  a8\"     \"8a  88P'   \"Y8    88    \n88      88      88  8PP\"\"\"\"\"\"\"  88       88   88     ,adPPPPP88  88       d8  8b       d8  88            88     \n88      88      88  \"8b,   ,aa  88       88   88,    88,    ,88  88b,   ,a8\"  \"8a,   ,a8\"  88            88,    \n88      88      88   `\"Ybbd8\"'  88       88   \"Y888  `\"8bbdP\"Y8  88`YbbdP\"'    `\"YbbdP\"'   88            \"Y888  \n                                                                 88                                             \n                                                                 88                                             \n                                                                    \n**/\n\n/**\n* @title MentaportDynamic\n* @dev Extending MentaportMint - MentaportERC721\nAdds functionality to have dynamic state upgrades of NFT tokens with defined rules\n*/\ncontract MentaportDynamic is MentaportMint {\n\n  bool public useDynamicRules = true;\n  mapping(uint256 => int256) internal _tokenState;\n  mapping(int256 => string) internal _stateURI;\n  int256 private _recentStateSet = 0;\n\n  constructor(\n    string memory _name,\n    string memory _symbol,\n    string memory _initNotRevealedUri,\n    uint256[] memory _mintTrulesS,\n    uint256[] memory _mintTrulesE\n  ) MentaportMint(_name, _symbol, _initNotRevealedUri, _mintTrulesS,_mintTrulesE) \n  {\n\n  }\n\n  //----------------------------------------------------------------------------\n  // Public functions\n\n  //----------------------------------------------------------------------------\n  // Public functions that are View\n  function tokenURI(uint256 tokenId) public view virtual override returns (string memory) {\n    require(_exists(tokenId), \"MentaportDynamic: URI query for nonexistent token\");\n\n    if(revealed == false) {\n      return notRevealedUri;\n    }\n    int256 state = _tokenState[tokenId];\n    string memory currentStateURI = _stateURI[state];\n    return bytes(currentStateURI).length > 0\n      ? string(abi.encodePacked(currentStateURI, Strings.toString(tokenId), baseExtension))\n      : \"\";\n  }\n\n  //----------------------------------------------------------------------------\n  // Public Only owner + mentaport\n  function reveal() override public onlyOwner {\n    require(!useDynamicRules, \"MentaportDynamic: use revealDynamic\");\n    revealed = true;\n  }\n\n  function revealDynamic(string memory _newBaseURI) virtual public onlyOwner {\n    _recentStateSet = 0;\n    _stateURI[_recentStateSet] = _newBaseURI;\n    revealed = true;\n  }\n  \n  function useUseDynamicRules(bool _state) public onlyOwner {\n    useDynamicRules = _state;\n  }\n  function recentStateSet() public view  onlyOwner returns (int256)  {\n    return _recentStateSet;\n  }\n\n  //----------------------------------------------------------------------------\n  // External Only owner + mentaport\n  function updateDynamicStateAll(int256 nstate, string memory _newBaseURI) external onlyOwner {\n    require(_recentStateSet == nstate - 1, \"MentaportDynamic: Wrong state provided\");\n    for(uint i = 0; i < totalSupply(); i++) {\n      _tokenState[i] = nstate;\n    }\n    _recentStateSet = nstate;\n    _stateURI[nstate] = _newBaseURI;\n  }\n\n  function updateDynamicState(uint256 tokenId, string memory _newBaseURI, int256 _updateState) external onlyOwner {\n    require(_exists(tokenId), \"MentaportDynamic: query for nonexistent token\");\n    \n    int256 nstate = _tokenState[tokenId] + _updateState;\n    _tokenState[tokenId] = nstate;\n    _stateURI[nstate] = _newBaseURI;\n    if(_recentStateSet < nstate) {\n      _recentStateSet = nstate;\n    }\n   \n  }\n}",
  "sourcePath": "/Users/marialemontenegro/Mentaport/Development/blockchain/truffle-project-dev/truffle/contracts/smart-contracts-dev/MentaportDynamic.sol",
  "compiler": {
    "name": "solc",
    "version": "0.8.15+commit.e14f2714.Emscripten.clang"
  },
  "schemaVersion": "3.4.8",
  "updatedAt": "2022-11-06T03:45:07.642Z",
  "networkType": "ethereum",
  "devdoc": {
    "details": "Extending MentaportMint - MentaportERC721 Adds functionality to have dynamic state upgrades of NFT tokens with defined rules",
    "kind": "dev",
    "methods": {
      "approve(address,uint256)": {
        "details": "See {IERC721-approve}."
      },
      "balanceOf(address)": {
        "details": "See {IERC721-balanceOf}."
      },
      "getApproved(uint256)": {
        "details": "See {IERC721-getApproved}."
      },
      "isApprovedForAll(address,address)": {
        "details": "See {IERC721-isApprovedForAll}."
      },
      "name()": {
        "details": "See {IERC721Metadata-name}."
      },
      "owner()": {
        "details": "Returns the address of the current owner."
      },
      "ownerOf(uint256)": {
        "details": "See {IERC721-ownerOf}."
      },
      "renounceOwnership()": {
        "details": "Leaves the contract without owner. It will not be possible to call `onlyOwner` functions anymore. Can only be called by the current owner. NOTE: Renouncing ownership will leave the contract without an owner, thereby removing any functionality that is only available to the owner."
      },
      "safeTransferFrom(address,address,uint256)": {
        "details": "See {IERC721-safeTransferFrom}."
      },
      "safeTransferFrom(address,address,uint256,bytes)": {
        "details": "See {IERC721-safeTransferFrom}."
      },
      "setApprovalForAll(address,bool)": {
        "details": "See {IERC721-setApprovalForAll}."
      },
      "supportsInterface(bytes4)": {
        "details": "See {IERC165-supportsInterface}."
      },
      "symbol()": {
        "details": "See {IERC721Metadata-symbol}."
      },
      "tokenURI(uint256)": {
        "details": "See {IERC721Metadata-tokenURI}."
      },
      "transferFrom(address,address,uint256)": {
        "details": "See {IERC721-transferFrom}."
      },
      "transferOwnership(address)": {
        "details": "Transfers ownership of the contract to a new account (`newOwner`). Can only be called by the current owner."
      }
    },
    "title": "MentaportDynamic",
    "version": 1
  },
  "userdoc": {
    "kind": "user",
    "methods": {},
    "version": 1
  }
}