{
  "contractName": "MentaportVerify",
  "abi": [
    {
      "anonymous": false,
      "inputs": [
        {
          "indexed": true,
          "internalType": "address",
          "name": "previousOwner",
          "type": "address"
        },
        {
          "indexed": true,
          "internalType": "address",
          "name": "newOwner",
          "type": "address"
        }
      ],
      "name": "OwnershipTransferred",
      "type": "event"
    },
    {
      "inputs": [],
      "name": "owner",
      "outputs": [
        {
          "internalType": "address",
          "name": "",
          "type": "address"
        }
      ],
      "stateMutability": "view",
      "type": "function"
    },
    {
      "inputs": [],
      "name": "renounceOwnership",
      "outputs": [],
      "stateMutability": "nonpayable",
      "type": "function"
    },
    {
      "inputs": [
        {
          "internalType": "address",
          "name": "newOwner",
          "type": "address"
        }
      ],
      "name": "transferOwnership",
      "outputs": [],
      "stateMutability": "nonpayable",
      "type": "function"
    },
    {
      "inputs": [
        {
          "internalType": "address",
          "name": "_address",
          "type": "address"
        },
        {
          "internalType": "uint256",
          "name": "_timestamp",
          "type": "uint256"
        },
        {
          "internalType": "uint256",
          "name": "_token",
          "type": "uint256"
        },
        {
          "internalType": "uint8",
          "name": "_v",
          "type": "uint8"
        },
        {
          "internalType": "bytes32",
          "name": "_r",
          "type": "bytes32"
        },
        {
          "internalType": "bytes32",
          "name": "_s",
          "type": "bytes32"
        }
      ],
      "name": "isValidAccessMessage",
      "outputs": [
        {
          "internalType": "bool",
          "name": "",
          "type": "bool"
        }
      ],
      "stateMutability": "view",
      "type": "function"
    }
  ],
  "bytecode": "0x608060405234801561001057600080fd5b5061002d61002261003260201b60201c565b61003a60201b60201c565b6100fe565b600033905090565b60008060009054906101000a900473ffffffffffffffffffffffffffffffffffffffff169050816000806101000a81548173ffffffffffffffffffffffffffffffffffffffff021916908373ffffffffffffffffffffffffffffffffffffffff1602179055508173ffffffffffffffffffffffffffffffffffffffff168173ffffffffffffffffffffffffffffffffffffffff167f8be0079c531659141344cd1fd0a4f28419497f9722a3daafe3b4186f6b6457e060405160405180910390a35050565b6109598061010d6000396000f3fe608060405234801561001057600080fd5b506004361061004c5760003560e01c8063180acece14610051578063715018a6146100815780638da5cb5b1461008b578063f2fde38b146100a9575b600080fd5b61006b6004803603810190610066919061051d565b6100c5565b60405161007891906105c5565b60405180910390f35b61008961020b565b005b61009361021f565b6040516100a091906105ef565b60405180910390f35b6100c360048036038101906100be919061060a565b610248565b005b600080308888886040516020016100df94939291906106a0565b60405160208183030381529060405280519060200120905060006040518060400160405280601c81526020017f19457468657265756d205369676e6564204d6573736167653a0a333200000000815250905060008183604051602001610146929190610789565b60405160208183030381529060405280519060200120905060006001828989896040516000815260200160405260405161018394939291906107cf565b6020604051602081039080840390855afa1580156101a5573d6000803e3d6000fd5b5050506020604051035190506101b961021f565b73ffffffffffffffffffffffffffffffffffffffff168173ffffffffffffffffffffffffffffffffffffffff16036101f8576001945050505050610201565b60009450505050505b9695505050505050565b6102136102cb565b61021d6000610349565b565b60008060009054906101000a900473ffffffffffffffffffffffffffffffffffffffff16905090565b6102506102cb565b600073ffffffffffffffffffffffffffffffffffffffff168173ffffffffffffffffffffffffffffffffffffffff16036102bf576040517f08c379a00000000000000000000000000000000000000000000000000000000081526004016102b690610897565b60405180910390fd5b6102c881610349565b50565b6102d361040d565b73ffffffffffffffffffffffffffffffffffffffff166102f161021f565b73ffffffffffffffffffffffffffffffffffffffff1614610347576040517f08c379a000000000000000000000000000000000000000000000000000000000815260040161033e90610903565b60405180910390fd5b565b60008060009054906101000a900473ffffffffffffffffffffffffffffffffffffffff169050816000806101000a81548173ffffffffffffffffffffffffffffffffffffffff021916908373ffffffffffffffffffffffffffffffffffffffff1602179055508173ffffffffffffffffffffffffffffffffffffffff168173ffffffffffffffffffffffffffffffffffffffff167f8be0079c531659141344cd1fd0a4f28419497f9722a3daafe3b4186f6b6457e060405160405180910390a35050565b600033905090565b600080fd5b600073ffffffffffffffffffffffffffffffffffffffff82169050919050565b60006104458261041a565b9050919050565b6104558161043a565b811461046057600080fd5b50565b6000813590506104728161044c565b92915050565b6000819050919050565b61048b81610478565b811461049657600080fd5b50565b6000813590506104a881610482565b92915050565b600060ff82169050919050565b6104c4816104ae565b81146104cf57600080fd5b50565b6000813590506104e1816104bb565b92915050565b6000819050919050565b6104fa816104e7565b811461050557600080fd5b50565b600081359050610517816104f1565b92915050565b60008060008060008060c0878903121561053a57610539610415565b5b600061054889828a01610463565b965050602061055989828a01610499565b955050604061056a89828a01610499565b945050606061057b89828a016104d2565b935050608061058c89828a01610508565b92505060a061059d89828a01610508565b9150509295509295509295565b60008115159050919050565b6105bf816105aa565b82525050565b60006020820190506105da60008301846105b6565b92915050565b6105e98161043a565b82525050565b600060208201905061060460008301846105e0565b92915050565b6000602082840312156106205761061f610415565b5b600061062e84828501610463565b91505092915050565b60008160601b9050919050565b600061064f82610637565b9050919050565b600061066182610644565b9050919050565b6106796106748261043a565b610656565b82525050565b6000819050919050565b61069a61069582610478565b61067f565b82525050565b60006106ac8287610668565b6014820191506106bc8286610668565b6014820191506106cc8285610689565b6020820191506106dc8284610689565b60208201915081905095945050505050565b600081519050919050565b600081905092915050565b60005b83811015610722578082015181840152602081019050610707565b83811115610731576000848401525b50505050565b6000610742826106ee565b61074c81856106f9565b935061075c818560208601610704565b80840191505092915050565b6000819050919050565b61078361077e826104e7565b610768565b82525050565b60006107958285610737565b91506107a18284610772565b6020820191508190509392505050565b6107ba816104e7565b82525050565b6107c9816104ae565b82525050565b60006080820190506107e460008301876107b1565b6107f160208301866107c0565b6107fe60408301856107b1565b61080b60608301846107b1565b95945050505050565b600082825260208201905092915050565b7f4f776e61626c653a206e6577206f776e657220697320746865207a65726f206160008201527f6464726573730000000000000000000000000000000000000000000000000000602082015250565b6000610881602683610814565b915061088c82610825565b604082019050919050565b600060208201905081810360008301526108b081610874565b9050919050565b7f4f776e61626c653a2063616c6c6572206973206e6f7420746865206f776e6572600082015250565b60006108ed602083610814565b91506108f8826108b7565b602082019050919050565b6000602082019050818103600083015261091c816108e0565b905091905056fea26469706673582212200cdd97691b230b1c96bc1390f257a9e2ab359f27c52bc92b877bb9a83e377a4764736f6c634300080f0033",
  "immutableReferences": {},
  "source": "//SPDX-License-Identifier: MIT\npragma solidity >=0.8.0 <0.9.0;\n\nimport \"@openzeppelin/contracts/access/Ownable.sol\";\n\n/**                                            \n       \n             ___           ___           ___                         ___           ___         ___           ___                   \n     /\\  \\         /\\__\\         /\\  \\                       /\\  \\         /\\  \\       /\\  \\         /\\  \\                  \n    |::\\  \\       /:/ _/_        \\:\\  \\         ___         /::\\  \\       /::\\  \\     /::\\  \\       /::\\  \\         ___     \n    |:|:\\  \\     /:/ /\\__\\        \\:\\  \\       /\\__\\       /:/\\:\\  \\     /:/\\:\\__\\   /:/\\:\\  \\     /:/\\:\\__\\       /\\__\\    \n  __|:|\\:\\  \\   /:/ /:/ _/_   _____\\:\\  \\     /:/  /      /:/ /::\\  \\   /:/ /:/  /  /:/  \\:\\  \\   /:/ /:/  /      /:/  /    \n /::::|_\\:\\__\\ /:/_/:/ /\\__\\ /::::::::\\__\\   /:/__/      /:/_/:/\\:\\__\\ /:/_/:/  /  /:/__/ \\:\\__\\ /:/_/:/__/___   /:/__/     \n \\:\\~~\\  \\/__/ \\:\\/:/ /:/  / \\:\\~~\\~~\\/__/  /::\\  \\      \\:\\/:/  \\/__/ \\:\\/:/  /   \\:\\  \\ /:/  / \\:\\/:::::/  /  /::\\  \\     \n  \\:\\  \\        \\::/_/:/  /   \\:\\  \\       /:/\\:\\  \\      \\::/__/       \\::/__/     \\:\\  /:/  /   \\::/~~/~~~~  /:/\\:\\  \\    \n   \\:\\  \\        \\:\\/:/  /     \\:\\  \\      \\/__\\:\\  \\      \\:\\  \\        \\:\\  \\      \\:\\/:/  /     \\:\\~~\\      \\/__\\:\\  \\   \n    \\:\\__\\        \\::/  /       \\:\\__\\          \\:\\__\\      \\:\\__\\        \\:\\__\\      \\::/  /       \\:\\__\\          \\:\\__\\  \n     \\/__/         \\/__/         \\/__/           \\/__/       \\/__/         \\/__/       \\/__/         \\/__/           \\/__/  \n       \n       \n                                              ,d                                                         ,d     \n                                              88                                                         88     \n88,dPYba,,adPYba,    ,adPPYba,  8b,dPPYba,  MM88MMM  ,adPPYYba,  8b,dPPYba,    ,adPPYba,   8b,dPPYba,  MM88MMM  \n88P'   \"88\"    \"8a  a8P_____88  88P'   `\"8a   88     \"\"     `Y8  88P'    \"8a  a8\"     \"8a  88P'   \"Y8    88    \n88      88      88  8PP\"\"\"\"\"\"\"  88       88   88     ,adPPPPP88  88       d8  8b       d8  88            88     \n88      88      88  \"8b,   ,aa  88       88   88,    88,    ,88  88b,   ,a8\"  \"8a,   ,a8\"  88            88,    \n88      88      88   `\"Ybbd8\"'  88       88   \"Y888  `\"8bbdP\"Y8  88`YbbdP\"'    `\"YbbdP\"'   88            \"Y888  \n                                                                 88                                             \n                                                                 88                                                                                                    \n**/\n\n/**\n * @title MentaportVerify\n * @dev Contract allows function to be restricted to users that posess \n * signed authorization from the owner of the contract. This signed\n * message includes the user to give permission to and the contract address to prevent\n * reusing the same authorization message on different contract with same owner. \n**/\n\ncontract MentaportVerify is Ownable {\n\n  modifier onlyValidMessage(uint _timestamp, uint256 _token, uint8 _v, bytes32 _r, bytes32 _s) \n  {\n    //require timestamp valid\n    require(isValidAccessMessage(msg.sender,_timestamp,_token,_v,_r,_s), \"Wrong signature\");\n    _;\n  }\n\n  //----------------------------------------------------------------------------\n  // Public functions that are View\n  // Verifies if message was signed by owner to give access to _add for this contract.\n  function isValidAccessMessage(\n    address _address,\n    uint _timestamp,\n    uint256 _token,\n    uint8 _v, \n    bytes32 _r, \n    bytes32 _s) \n    view public returns (bool)\n  {\n    bytes32 _hashedMessage = keccak256(abi.encodePacked(address(this), _address, _timestamp, _token));\n    bytes memory prefix = \"\\x19Ethereum Signed Message:\\n32\";\n    bytes32 prefixedHashMessage = keccak256(abi.encodePacked(prefix, _hashedMessage));\n    address signer = ecrecover(prefixedHashMessage, _v, _r, _s);\n    if (signer == owner()) {\n      return true;\n    }\n\n    return false;\n  }\n}",
  "sourcePath": "/Users/marialemontenegro/Mentaport/Development/blockchain/truffle-project-dev/truffle/contracts/smart-contracts-dev/MentaportVerify.sol",
  "compiler": {
    "name": "solc",
    "version": "0.8.15+commit.e14f2714.Emscripten.clang"
  },
  "schemaVersion": "3.4.8",
  "updatedAt": "2022-11-02T15:25:02.223Z",
  "devdoc": {
    "details": "Contract allows function to be restricted to users that posess  signed authorization from the owner of the contract. This signed message includes the user to give permission to and the contract address to prevent reusing the same authorization message on different contract with same owner. *",
    "kind": "dev",
    "methods": {
      "owner()": {
        "details": "Returns the address of the current owner."
      },
      "renounceOwnership()": {
        "details": "Leaves the contract without owner. It will not be possible to call `onlyOwner` functions anymore. Can only be called by the current owner. NOTE: Renouncing ownership will leave the contract without an owner, thereby removing any functionality that is only available to the owner."
      },
      "transferOwnership(address)": {
        "details": "Transfers ownership of the contract to a new account (`newOwner`). Can only be called by the current owner."
      }
    },
    "title": "MentaportVerify",
    "version": 1
  },
  "userdoc": {
    "kind": "user",
    "methods": {},
    "version": 1
  }
}