{
  "contractName": "MentaStream",
  "abi": [
    {
      "inputs": [
        {
          "internalType": "string",
          "name": "_name",
          "type": "string"
        },
        {
          "internalType": "string",
          "name": "_symbol",
          "type": "string"
        },
        {
          "internalType": "string",
          "name": "_initNotRevealedUri",
          "type": "string"
        }
      ],
      "stateMutability": "nonpayable",
      "type": "constructor"
    },
    {
      "anonymous": false,
      "inputs": [
        {
          "indexed": true,
          "internalType": "address",
          "name": "owner",
          "type": "address"
        },
        {
          "indexed": true,
          "internalType": "address",
          "name": "approved",
          "type": "address"
        },
        {
          "indexed": true,
          "internalType": "uint256",
          "name": "tokenId",
          "type": "uint256"
        }
      ],
      "name": "Approval",
      "type": "event"
    },
    {
      "anonymous": false,
      "inputs": [
        {
          "indexed": true,
          "internalType": "address",
          "name": "owner",
          "type": "address"
        },
        {
          "indexed": true,
          "internalType": "address",
          "name": "operator",
          "type": "address"
        },
        {
          "indexed": false,
          "internalType": "bool",
          "name": "approved",
          "type": "bool"
        }
      ],
      "name": "ApprovalForAll",
      "type": "event"
    },
    {
      "anonymous": false,
      "inputs": [
        {
          "indexed": true,
          "internalType": "address",
          "name": "previousOwner",
          "type": "address"
        },
        {
          "indexed": true,
          "internalType": "address",
          "name": "newOwner",
          "type": "address"
        }
      ],
      "name": "OwnershipTransferred",
      "type": "event"
    },
    {
      "anonymous": false,
      "inputs": [
        {
          "indexed": true,
          "internalType": "address",
          "name": "from",
          "type": "address"
        },
        {
          "indexed": true,
          "internalType": "address",
          "name": "to",
          "type": "address"
        },
        {
          "indexed": true,
          "internalType": "uint256",
          "name": "tokenId",
          "type": "uint256"
        }
      ],
      "name": "Transfer",
      "type": "event"
    },
    {
      "inputs": [
        {
          "internalType": "address",
          "name": "to",
          "type": "address"
        },
        {
          "internalType": "uint256",
          "name": "tokenId",
          "type": "uint256"
        }
      ],
      "name": "approve",
      "outputs": [],
      "stateMutability": "nonpayable",
      "type": "function"
    },
    {
      "inputs": [
        {
          "internalType": "address",
          "name": "owner",
          "type": "address"
        }
      ],
      "name": "balanceOf",
      "outputs": [
        {
          "internalType": "uint256",
          "name": "",
          "type": "uint256"
        }
      ],
      "stateMutability": "view",
      "type": "function",
      "constant": true
    },
    {
      "inputs": [],
      "name": "baseExtension",
      "outputs": [
        {
          "internalType": "string",
          "name": "",
          "type": "string"
        }
      ],
      "stateMutability": "view",
      "type": "function",
      "constant": true
    },
    {
      "inputs": [],
      "name": "baseURI",
      "outputs": [
        {
          "internalType": "string",
          "name": "",
          "type": "string"
        }
      ],
      "stateMutability": "view",
      "type": "function",
      "constant": true
    },
    {
      "inputs": [
        {
          "internalType": "address",
          "name": "_newAddress",
          "type": "address"
        }
      ],
      "name": "changeMentaportAccount",
      "outputs": [],
      "stateMutability": "nonpayable",
      "type": "function"
    },
    {
      "inputs": [],
      "name": "cost",
      "outputs": [
        {
          "internalType": "uint256",
          "name": "",
          "type": "uint256"
        }
      ],
      "stateMutability": "view",
      "type": "function",
      "constant": true
    },
    {
      "inputs": [
        {
          "internalType": "uint256",
          "name": "tokenId",
          "type": "uint256"
        }
      ],
      "name": "getApproved",
      "outputs": [
        {
          "internalType": "address",
          "name": "",
          "type": "address"
        }
      ],
      "stateMutability": "view",
      "type": "function",
      "constant": true
    },
    {
      "inputs": [
        {
          "internalType": "address",
          "name": "owner",
          "type": "address"
        },
        {
          "internalType": "address",
          "name": "operator",
          "type": "address"
        }
      ],
      "name": "isApprovedForAll",
      "outputs": [
        {
          "internalType": "bool",
          "name": "",
          "type": "bool"
        }
      ],
      "stateMutability": "view",
      "type": "function",
      "constant": true
    },
    {
      "inputs": [],
      "name": "maxMintAmount",
      "outputs": [
        {
          "internalType": "uint256",
          "name": "",
          "type": "uint256"
        }
      ],
      "stateMutability": "view",
      "type": "function",
      "constant": true
    },
    {
      "inputs": [],
      "name": "maxSupply",
      "outputs": [
        {
          "internalType": "uint256",
          "name": "",
          "type": "uint256"
        }
      ],
      "stateMutability": "view",
      "type": "function",
      "constant": true
    },
    {
      "inputs": [
        {
          "internalType": "uint256",
          "name": "_mintAmount",
          "type": "uint256"
        }
      ],
      "name": "mint",
      "outputs": [],
      "stateMutability": "payable",
      "type": "function",
      "payable": true
    },
    {
      "inputs": [
        {
          "internalType": "uint256",
          "name": "_mintAmount",
          "type": "uint256"
        },
        {
          "internalType": "address",
          "name": "_receiver",
          "type": "address"
        }
      ],
      "name": "mintForAddress",
      "outputs": [],
      "stateMutability": "nonpayable",
      "type": "function"
    },
    {
      "inputs": [],
      "name": "name",
      "outputs": [
        {
          "internalType": "string",
          "name": "",
          "type": "string"
        }
      ],
      "stateMutability": "view",
      "type": "function",
      "constant": true
    },
    {
      "inputs": [],
      "name": "notRevealedUri",
      "outputs": [
        {
          "internalType": "string",
          "name": "",
          "type": "string"
        }
      ],
      "stateMutability": "view",
      "type": "function",
      "constant": true
    },
    {
      "inputs": [],
      "name": "owner",
      "outputs": [
        {
          "internalType": "address",
          "name": "",
          "type": "address"
        }
      ],
      "stateMutability": "view",
      "type": "function",
      "constant": true
    },
    {
      "inputs": [
        {
          "internalType": "uint256",
          "name": "tokenId",
          "type": "uint256"
        }
      ],
      "name": "ownerOf",
      "outputs": [
        {
          "internalType": "address",
          "name": "",
          "type": "address"
        }
      ],
      "stateMutability": "view",
      "type": "function",
      "constant": true
    },
    {
      "inputs": [
        {
          "internalType": "bool",
          "name": "_state",
          "type": "bool"
        }
      ],
      "name": "pause",
      "outputs": [],
      "stateMutability": "nonpayable",
      "type": "function"
    },
    {
      "inputs": [],
      "name": "paused",
      "outputs": [
        {
          "internalType": "bool",
          "name": "",
          "type": "bool"
        }
      ],
      "stateMutability": "view",
      "type": "function",
      "constant": true
    },
    {
      "inputs": [],
      "name": "renounceOwnership",
      "outputs": [],
      "stateMutability": "nonpayable",
      "type": "function"
    },
    {
      "inputs": [],
      "name": "reveal",
      "outputs": [],
      "stateMutability": "nonpayable",
      "type": "function"
    },
    {
      "inputs": [],
      "name": "revealed",
      "outputs": [
        {
          "internalType": "bool",
          "name": "",
          "type": "bool"
        }
      ],
      "stateMutability": "view",
      "type": "function",
      "constant": true
    },
    {
      "inputs": [
        {
          "internalType": "address",
          "name": "from",
          "type": "address"
        },
        {
          "internalType": "address",
          "name": "to",
          "type": "address"
        },
        {
          "internalType": "uint256",
          "name": "tokenId",
          "type": "uint256"
        }
      ],
      "name": "safeTransferFrom",
      "outputs": [],
      "stateMutability": "nonpayable",
      "type": "function"
    },
    {
      "inputs": [
        {
          "internalType": "address",
          "name": "from",
          "type": "address"
        },
        {
          "internalType": "address",
          "name": "to",
          "type": "address"
        },
        {
          "internalType": "uint256",
          "name": "tokenId",
          "type": "uint256"
        },
        {
          "internalType": "bytes",
          "name": "data",
          "type": "bytes"
        }
      ],
      "name": "safeTransferFrom",
      "outputs": [],
      "stateMutability": "nonpayable",
      "type": "function"
    },
    {
      "inputs": [
        {
          "internalType": "address",
          "name": "operator",
          "type": "address"
        },
        {
          "internalType": "bool",
          "name": "approved",
          "type": "bool"
        }
      ],
      "name": "setApprovalForAll",
      "outputs": [],
      "stateMutability": "nonpayable",
      "type": "function"
    },
    {
      "inputs": [
        {
          "internalType": "string",
          "name": "_newBaseExtension",
          "type": "string"
        }
      ],
      "name": "setBaseExtension",
      "outputs": [],
      "stateMutability": "nonpayable",
      "type": "function"
    },
    {
      "inputs": [
        {
          "internalType": "string",
          "name": "_newBaseURI",
          "type": "string"
        }
      ],
      "name": "setBaseURI",
      "outputs": [],
      "stateMutability": "nonpayable",
      "type": "function"
    },
    {
      "inputs": [
        {
          "internalType": "uint256",
          "name": "_newCost",
          "type": "uint256"
        }
      ],
      "name": "setCost",
      "outputs": [],
      "stateMutability": "nonpayable",
      "type": "function"
    },
    {
      "inputs": [
        {
          "internalType": "string",
          "name": "_notRevealedURI",
          "type": "string"
        }
      ],
      "name": "setNotRevealedURI",
      "outputs": [],
      "stateMutability": "nonpayable",
      "type": "function"
    },
    {
      "inputs": [
        {
          "internalType": "uint256",
          "name": "_newmaxMintAmount",
          "type": "uint256"
        }
      ],
      "name": "setmaxMintAmount",
      "outputs": [],
      "stateMutability": "nonpayable",
      "type": "function"
    },
    {
      "inputs": [
        {
          "internalType": "bytes4",
          "name": "interfaceId",
          "type": "bytes4"
        }
      ],
      "name": "supportsInterface",
      "outputs": [
        {
          "internalType": "bool",
          "name": "",
          "type": "bool"
        }
      ],
      "stateMutability": "view",
      "type": "function",
      "constant": true
    },
    {
      "inputs": [],
      "name": "symbol",
      "outputs": [
        {
          "internalType": "string",
          "name": "",
          "type": "string"
        }
      ],
      "stateMutability": "view",
      "type": "function",
      "constant": true
    },
    {
      "inputs": [
        {
          "internalType": "uint256",
          "name": "tokenId",
          "type": "uint256"
        }
      ],
      "name": "tokenURI",
      "outputs": [
        {
          "internalType": "string",
          "name": "",
          "type": "string"
        }
      ],
      "stateMutability": "view",
      "type": "function",
      "constant": true
    },
    {
      "inputs": [],
      "name": "totalSupply",
      "outputs": [
        {
          "internalType": "uint256",
          "name": "",
          "type": "uint256"
        }
      ],
      "stateMutability": "view",
      "type": "function",
      "constant": true
    },
    {
      "inputs": [
        {
          "internalType": "address",
          "name": "from",
          "type": "address"
        },
        {
          "internalType": "address",
          "name": "to",
          "type": "address"
        },
        {
          "internalType": "uint256",
          "name": "tokenId",
          "type": "uint256"
        }
      ],
      "name": "transferFrom",
      "outputs": [],
      "stateMutability": "nonpayable",
      "type": "function"
    },
    {
      "inputs": [
        {
          "internalType": "address",
          "name": "newOwner",
          "type": "address"
        }
      ],
      "name": "transferOwnership",
      "outputs": [],
      "stateMutability": "nonpayable",
      "type": "function"
    },
    {
      "inputs": [
        {
          "internalType": "address",
          "name": "_owner",
          "type": "address"
        }
      ],
      "name": "walletOfOwner",
      "outputs": [
        {
          "internalType": "uint256[]",
          "name": "",
          "type": "uint256[]"
        }
      ],
      "stateMutability": "view",
      "type": "function",
      "constant": true
    },
    {
      "inputs": [],
      "name": "withdraw",
      "outputs": [],
      "stateMutability": "payable",
      "type": "function",
      "payable": true
    }
  ],
  "bytecode": "0x60806040526040518060400160405280600581526020017f2e6a736f6e000000000000000000000000000000000000000000000000000000815250600b90816200004a9190620005fe565b5066038d7ea4c68000600c556103e8600d556002600e556001600f60006101000a81548160ff0219169083151502179055506000600f60016101000a81548160ff021916908315150217905550733bd3b2d1c0cd18ed91779356702e9b5b1f1bbfb4600f60026101000a81548173ffffffffffffffffffffffffffffffffffffffff021916908373ffffffffffffffffffffffffffffffffffffffff160217905550348015620000f957600080fd5b50604051620049fc380380620049fc83398181016040528101906200011f919062000853565b82828282828160009081620001359190620005fe565b508060019081620001479190620005fe565b5050506200016a6200015e620001b160201b60201c565b620001b960201b60201c565b600160078190555062000183816200027f60201b60201c565b6200019481620002a460201b60201c565b5050506101f4600d819055506000600c819055505050506200098f565b600033905090565b6000600660009054906101000a900473ffffffffffffffffffffffffffffffffffffffff16905081600660006101000a81548173ffffffffffffffffffffffffffffffffffffffff021916908373ffffffffffffffffffffffffffffffffffffffff1602179055508173ffffffffffffffffffffffffffffffffffffffff168173ffffffffffffffffffffffffffffffffffffffff167f8be0079c531659141344cd1fd0a4f28419497f9722a3daafe3b4186f6b6457e060405160405180910390a35050565b6200028f620002c960201b60201c565b80600a9081620002a09190620005fe565b5050565b620002b4620002c960201b60201c565b8060099081620002c59190620005fe565b5050565b620002d9620001b160201b60201c565b73ffffffffffffffffffffffffffffffffffffffff16620002ff6200035a60201b60201c565b73ffffffffffffffffffffffffffffffffffffffff161462000358576040517f08c379a00000000000000000000000000000000000000000000000000000000081526004016200034f906200096d565b60405180910390fd5b565b6000600660009054906101000a900473ffffffffffffffffffffffffffffffffffffffff16905090565b600081519050919050565b7f4e487b7100000000000000000000000000000000000000000000000000000000600052604160045260246000fd5b7f4e487b7100000000000000000000000000000000000000000000000000000000600052602260045260246000fd5b600060028204905060018216806200040657607f821691505b6020821081036200041c576200041b620003be565b5b50919050565b60008190508160005260206000209050919050565b60006020601f8301049050919050565b600082821b905092915050565b600060088302620004867fffffffffffffffffffffffffffffffffffffffffffffffffffffffffffffffff8262000447565b62000492868362000447565b95508019841693508086168417925050509392505050565b6000819050919050565b6000819050919050565b6000620004df620004d9620004d384620004aa565b620004b4565b620004aa565b9050919050565b6000819050919050565b620004fb83620004be565b620005136200050a82620004e6565b84845462000454565b825550505050565b600090565b6200052a6200051b565b62000537818484620004f0565b505050565b5b818110156200055f576200055360008262000520565b6001810190506200053d565b5050565b601f821115620005ae57620005788162000422565b620005838462000437565b8101602085101562000593578190505b620005ab620005a28562000437565b8301826200053c565b50505b505050565b600082821c905092915050565b6000620005d360001984600802620005b3565b1980831691505092915050565b6000620005ee8383620005c0565b9150826002028217905092915050565b620006098262000384565b67ffffffffffffffff8111156200062557620006246200038f565b5b620006318254620003ed565b6200063e82828562000563565b600060209050601f83116001811462000676576000841562000661578287015190505b6200066d8582620005e0565b865550620006dd565b601f198416620006868662000422565b60005b82811015620006b05784890151825560018201915060208501945060208101905062000689565b86831015620006d05784890151620006cc601f891682620005c0565b8355505b6001600288020188555050505b505050505050565b6000604051905090565b600080fd5b600080fd5b600080fd5b600080fd5b6000601f19601f8301169050919050565b6200071f8262000703565b810181811067ffffffffffffffff821117156200074157620007406200038f565b5b80604052505050565b600062000756620006e5565b905062000764828262000714565b919050565b600067ffffffffffffffff8211156200078757620007866200038f565b5b620007928262000703565b9050602081019050919050565b60005b83811015620007bf578082015181840152602081019050620007a2565b83811115620007cf576000848401525b50505050565b6000620007ec620007e68462000769565b6200074a565b9050828152602081018484840111156200080b576200080a620006fe565b5b620008188482856200079f565b509392505050565b600082601f830112620008385762000837620006f9565b5b81516200084a848260208601620007d5565b91505092915050565b6000806000606084860312156200086f576200086e620006ef565b5b600084015167ffffffffffffffff81111562000890576200088f620006f4565b5b6200089e8682870162000820565b935050602084015167ffffffffffffffff811115620008c257620008c1620006f4565b5b620008d08682870162000820565b925050604084015167ffffffffffffffff811115620008f457620008f3620006f4565b5b620009028682870162000820565b9150509250925092565b600082825260208201905092915050565b7f4f776e61626c653a2063616c6c6572206973206e6f7420746865206f776e6572600082015250565b6000620009556020836200090c565b915062000962826200091d565b602082019050919050565b60006020820190508181036000830152620009888162000946565b9050919050565b61405d806200099f6000396000f3fe60806040526004361061021a5760003560e01c80636c0360eb11610123578063b88d4fde116100ab578063df6de9af1161006f578063df6de9af1461077f578063e985e9c5146107a8578063efbd73f4146107e5578063f2c4ce1e1461080e578063f2fde38b146108375761021a565b8063b88d4fde1461069a578063c6682862146106c3578063c87b56dd146106ee578063d5abeb011461072b578063da3ef23f146107565761021a565b80638da5cb5b116100f25780638da5cb5b146105e857806395d89b4114610613578063a0712d681461063e578063a22cb4651461065a578063a475b5dd146106835761021a565b80636c0360eb1461054057806370a082311461056b578063715018a6146105a85780637f00c7a6146105bf5761021a565b806323b872dd116101a657806344a0d68a1161017557806344a0d68a1461045b578063518302271461048457806355f804b3146104af5780635c975abb146104d85780636352211e146105035761021a565b806323b872dd146103c25780633ccfd60b146103eb57806342842e0e146103f5578063438b63001461041e5761021a565b8063081c8c44116101ed578063081c8c44146102ed578063095ea7b31461031857806313faede61461034157806318160ddd1461036c578063239c70ae146103975761021a565b806301ffc9a71461021f57806302329a291461025c57806306fdde0314610285578063081812fc146102b0575b600080fd5b34801561022b57600080fd5b506102466004803603810190610241919061282d565b610860565b6040516102539190612875565b60405180910390f35b34801561026857600080fd5b50610283600480360381019061027e91906128bc565b610942565b005b34801561029157600080fd5b5061029a610967565b6040516102a79190612982565b60405180910390f35b3480156102bc57600080fd5b506102d760048036038101906102d291906129da565b6109f9565b6040516102e49190612a48565b60405180910390f35b3480156102f957600080fd5b50610302610a3f565b60405161030f9190612982565b60405180910390f35b34801561032457600080fd5b5061033f600480360381019061033a9190612a8f565b610acd565b005b34801561034d57600080fd5b50610356610be4565b6040516103639190612ade565b60405180910390f35b34801561037857600080fd5b50610381610bea565b60405161038e9190612ade565b60405180910390f35b3480156103a357600080fd5b506103ac610bfb565b6040516103b99190612ade565b60405180910390f35b3480156103ce57600080fd5b506103e960048036038101906103e49190612af9565b610c01565b005b6103f3610c61565b005b34801561040157600080fd5b5061041c60048036038101906104179190612af9565b610d9b565b005b34801561042a57600080fd5b5061044560048036038101906104409190612b4c565b610dbb565b6040516104529190612c37565b60405180910390f35b34801561046757600080fd5b50610482600480360381019061047d91906129da565b610ec5565b005b34801561049057600080fd5b50610499610ed7565b6040516104a69190612875565b60405180910390f35b3480156104bb57600080fd5b506104d660048036038101906104d19190612d8e565b610eea565b005b3480156104e457600080fd5b506104ed610f05565b6040516104fa9190612875565b60405180910390f35b34801561050f57600080fd5b5061052a600480360381019061052591906129da565b610f18565b6040516105379190612a48565b60405180910390f35b34801561054c57600080fd5b50610555610fc9565b6040516105629190612982565b60405180910390f35b34801561057757600080fd5b50610592600480360381019061058d9190612b4c565b611057565b60405161059f9190612ade565b60405180910390f35b3480156105b457600080fd5b506105bd61110e565b005b3480156105cb57600080fd5b506105e660048036038101906105e191906129da565b611122565b005b3480156105f457600080fd5b506105fd611134565b60405161060a9190612a48565b60405180910390f35b34801561061f57600080fd5b5061062861115e565b6040516106359190612982565b60405180910390f35b610658600480360381019061065391906129da565b6111f0565b005b34801561066657600080fd5b50610681600480360381019061067c9190612dd7565b61139e565b005b34801561068f57600080fd5b506106986113b4565b005b3480156106a657600080fd5b506106c160048036038101906106bc9190612eb8565b6113d9565b005b3480156106cf57600080fd5b506106d861143b565b6040516106e59190612982565b60405180910390f35b3480156106fa57600080fd5b50610715600480360381019061071091906129da565b6114c9565b6040516107229190612982565b60405180910390f35b34801561073757600080fd5b50610740611621565b60405161074d9190612ade565b60405180910390f35b34801561076257600080fd5b5061077d60048036038101906107789190612d8e565b611627565b005b34801561078b57600080fd5b506107a660048036038101906107a19190612b4c565b611642565b005b3480156107b457600080fd5b506107cf60048036038101906107ca9190612f3b565b6116e3565b6040516107dc9190612875565b60405180910390f35b3480156107f157600080fd5b5061080c60048036038101906108079190612f7b565b611777565b005b34801561081a57600080fd5b5061083560048036038101906108309190612d8e565b6118de565b005b34801561084357600080fd5b5061085e60048036038101906108599190612b4c565b6118f9565b005b60007f80ac58cd000000000000000000000000000000000000000000000000000000007bffffffffffffffffffffffffffffffffffffffffffffffffffffffff1916827bffffffffffffffffffffffffffffffffffffffffffffffffffffffff1916148061092b57507f5b5e139f000000000000000000000000000000000000000000000000000000007bffffffffffffffffffffffffffffffffffffffffffffffffffffffff1916827bffffffffffffffffffffffffffffffffffffffffffffffffffffffff1916145b8061093b575061093a8261197c565b5b9050919050565b61094a6119e6565b80600f60006101000a81548160ff02191690831515021790555050565b60606000805461097690612fea565b80601f01602080910402602001604051908101604052809291908181526020018280546109a290612fea565b80156109ef5780601f106109c4576101008083540402835291602001916109ef565b820191906000526020600020905b8154815290600101906020018083116109d257829003601f168201915b5050505050905090565b6000610a0482611a64565b6004600083815260200190815260200160002060009054906101000a900473ffffffffffffffffffffffffffffffffffffffff169050919050565b60098054610a4c90612fea565b80601f0160208091040260200160405190810160405280929190818152602001828054610a7890612fea565b8015610ac55780601f10610a9a57610100808354040283529160200191610ac5565b820191906000526020600020905b815481529060010190602001808311610aa857829003601f168201915b505050505081565b6000610ad882610f18565b90508073ffffffffffffffffffffffffffffffffffffffff168373ffffffffffffffffffffffffffffffffffffffff1603610b48576040517f08c379a0000000000000000000000000000000000000000000000000000000008152600401610b3f9061308d565b60405180910390fd5b8073ffffffffffffffffffffffffffffffffffffffff16610b67611aaf565b73ffffffffffffffffffffffffffffffffffffffff161480610b965750610b9581610b90611aaf565b6116e3565b5b610bd5576040517f08c379a0000000000000000000000000000000000000000000000000000000008152600401610bcc9061311f565b60405180910390fd5b610bdf8383611ab7565b505050565b600c5481565b6000610bf66008611b70565b905090565b600e5481565b610c12610c0c611aaf565b82611b7e565b610c51576040517f08c379a0000000000000000000000000000000000000000000000000000000008152600401610c48906131b1565b60405180910390fd5b610c5c838383611c13565b505050565b610c696119e6565b6000600f60029054906101000a900473ffffffffffffffffffffffffffffffffffffffff1673ffffffffffffffffffffffffffffffffffffffff166103e8601947610cb49190613200565b610cbe9190613289565b604051610cca906132eb565b60006040518083038185875af1925050503d8060008114610d07576040519150601f19603f3d011682016040523d82523d6000602084013e610d0c565b606091505b5050905080610d1a57600080fd5b6000610d24611134565b73ffffffffffffffffffffffffffffffffffffffff1647604051610d47906132eb565b60006040518083038185875af1925050503d8060008114610d84576040519150601f19603f3d011682016040523d82523d6000602084013e610d89565b606091505b5050905080610d9757600080fd5b5050565b610db6838383604051806020016040528060008152506113d9565b505050565b60606000610dc883611057565b905060008167ffffffffffffffff811115610de657610de5612c63565b5b604051908082528060200260200182016040528015610e145781602001602082028036833780820191505090505b50905060006001905060005b8381108015610e315750600d548211155b15610eb9576000610e4183610f18565b90508673ffffffffffffffffffffffffffffffffffffffff168173ffffffffffffffffffffffffffffffffffffffff1603610ea55782848381518110610e8a57610e89613300565b5b6020026020010181815250508180610ea19061332f565b9250505b8280610eb09061332f565b93505050610e20565b82945050505050919050565b610ecd6119e6565b80600c8190555050565b600f60019054906101000a900460ff1681565b610ef26119e6565b80600a9081610f019190613523565b5050565b600f60009054906101000a900460ff1681565b6000806002600084815260200190815260200160002060009054906101000a900473ffffffffffffffffffffffffffffffffffffffff169050600073ffffffffffffffffffffffffffffffffffffffff168173ffffffffffffffffffffffffffffffffffffffff1603610fc0576040517f08c379a0000000000000000000000000000000000000000000000000000000008152600401610fb790613641565b60405180910390fd5b80915050919050565b600a8054610fd690612fea565b80601f016020809104026020016040519081016040528092919081815260200182805461100290612fea565b801561104f5780601f106110245761010080835404028352916020019161104f565b820191906000526020600020905b81548152906001019060200180831161103257829003601f168201915b505050505081565b60008073ffffffffffffffffffffffffffffffffffffffff168273ffffffffffffffffffffffffffffffffffffffff16036110c7576040517f08c379a00000000000000000000000000000000000000000000000000000000081526004016110be906136d3565b60405180910390fd5b600360008373ffffffffffffffffffffffffffffffffffffffff1673ffffffffffffffffffffffffffffffffffffffff168152602001908152602001600020549050919050565b6111166119e6565b6111206000611e79565b565b61112a6119e6565b80600e8190555050565b6000600660009054906101000a900473ffffffffffffffffffffffffffffffffffffffff16905090565b60606001805461116d90612fea565b80601f016020809104026020016040519081016040528092919081815260200182805461119990612fea565b80156111e65780601f106111bb576101008083540402835291602001916111e6565b820191906000526020600020905b8154815290600101906020018083116111c957829003601f168201915b5050505050905090565b600260075403611235576040517f08c379a000000000000000000000000000000000000000000000000000000000815260040161122c9061373f565b60405180910390fd5b600260078190555080600f60009054906101000a900460ff161561128e576040517f08c379a0000000000000000000000000000000000000000000000000000000008152600401611285906137ab565b60405180910390fd5b6000811180156112a05750600e548111155b6112df576040517f08c379a00000000000000000000000000000000000000000000000000000000081526004016112d690613817565b60405180910390fd5b600d54816112ed6008611b70565b6112f79190613837565b1115611338576040517f08c379a000000000000000000000000000000000000000000000000000000000815260040161132f906138d9565b60405180910390fd5b81600c546113469190613200565b341015611388576040517f08c379a000000000000000000000000000000000000000000000000000000000815260040161137f90613945565b60405180910390fd5b6113923383611f3f565b50600160078190555050565b6113b06113a9611aaf565b8383611f7f565b5050565b6113bc6119e6565b6001600f60016101000a81548160ff021916908315150217905550565b6113ea6113e4611aaf565b83611b7e565b611429576040517f08c379a0000000000000000000000000000000000000000000000000000000008152600401611420906131b1565b60405180910390fd5b611435848484846120eb565b50505050565b600b805461144890612fea565b80601f016020809104026020016040519081016040528092919081815260200182805461147490612fea565b80156114c15780601f10611496576101008083540402835291602001916114c1565b820191906000526020600020905b8154815290600101906020018083116114a457829003601f168201915b505050505081565b60606114d482612147565b611513576040517f08c379a000000000000000000000000000000000000000000000000000000000815260040161150a906139d7565b60405180910390fd5b60001515600f60019054906101000a900460ff161515036115c0576009805461153b90612fea565b80601f016020809104026020016040519081016040528092919081815260200182805461156790612fea565b80156115b45780601f10611589576101008083540402835291602001916115b4565b820191906000526020600020905b81548152906001019060200180831161159757829003601f168201915b5050505050905061161c565b60006115ca6121b3565b905060008151116115ea5760405180602001604052806000815250611618565b806115f484612245565b600b60405160200161160893929190613ab6565b6040516020818303038152906040525b9150505b919050565b600d5481565b61162f6119e6565b80600b908161163e9190613523565b5050565b600260075403611687576040517f08c379a000000000000000000000000000000000000000000000000000000000815260040161167e9061373f565b60405180910390fd5b60026007819055506116976119e6565b80600f60026101000a81548173ffffffffffffffffffffffffffffffffffffffff021916908373ffffffffffffffffffffffffffffffffffffffff160217905550600160078190555050565b6000600560008473ffffffffffffffffffffffffffffffffffffffff1673ffffffffffffffffffffffffffffffffffffffff16815260200190815260200160002060008373ffffffffffffffffffffffffffffffffffffffff1673ffffffffffffffffffffffffffffffffffffffff16815260200190815260200160002060009054906101000a900460ff16905092915050565b6002600754036117bc576040517f08c379a00000000000000000000000000000000000000000000000000000000081526004016117b39061373f565b60405180910390fd5b600260078190555081600f60009054906101000a900460ff1615611815576040517f08c379a000000000000000000000000000000000000000000000000000000000815260040161180c906137ab565b60405180910390fd5b6000811180156118275750600e548111155b611866576040517f08c379a000000000000000000000000000000000000000000000000000000000815260040161185d90613817565b60405180910390fd5b600d54816118746008611b70565b61187e9190613837565b11156118bf576040517f08c379a00000000000000000000000000000000000000000000000000000000081526004016118b6906138d9565b60405180910390fd5b6118c76119e6565b6118d18284611f3f565b5060016007819055505050565b6118e66119e6565b80600990816118f59190613523565b5050565b6119016119e6565b600073ffffffffffffffffffffffffffffffffffffffff168173ffffffffffffffffffffffffffffffffffffffff1603611970576040517f08c379a000000000000000000000000000000000000000000000000000000000815260040161196790613b59565b60405180910390fd5b61197981611e79565b50565b60007f01ffc9a7000000000000000000000000000000000000000000000000000000007bffffffffffffffffffffffffffffffffffffffffffffffffffffffff1916827bffffffffffffffffffffffffffffffffffffffffffffffffffffffff1916149050919050565b6119ee611aaf565b73ffffffffffffffffffffffffffffffffffffffff16611a0c611134565b73ffffffffffffffffffffffffffffffffffffffff1614611a62576040517f08c379a0000000000000000000000000000000000000000000000000000000008152600401611a5990613bc5565b60405180910390fd5b565b611a6d81612147565b611aac576040517f08c379a0000000000000000000000000000000000000000000000000000000008152600401611aa390613641565b60405180910390fd5b50565b600033905090565b816004600083815260200190815260200160002060006101000a81548173ffffffffffffffffffffffffffffffffffffffff021916908373ffffffffffffffffffffffffffffffffffffffff160217905550808273ffffffffffffffffffffffffffffffffffffffff16611b2a83610f18565b73ffffffffffffffffffffffffffffffffffffffff167f8c5be1e5ebec7d5bd14f71427d1e84f3dd0314c0f7b2291e5b200ac8c7c3b92560405160405180910390a45050565b600081600001549050919050565b600080611b8a83610f18565b90508073ffffffffffffffffffffffffffffffffffffffff168473ffffffffffffffffffffffffffffffffffffffff161480611bcc5750611bcb81856116e3565b5b80611c0a57508373ffffffffffffffffffffffffffffffffffffffff16611bf2846109f9565b73ffffffffffffffffffffffffffffffffffffffff16145b91505092915050565b8273ffffffffffffffffffffffffffffffffffffffff16611c3382610f18565b73ffffffffffffffffffffffffffffffffffffffff1614611c89576040517f08c379a0000000000000000000000000000000000000000000000000000000008152600401611c8090613c57565b60405180910390fd5b600073ffffffffffffffffffffffffffffffffffffffff168273ffffffffffffffffffffffffffffffffffffffff1603611cf8576040517f08c379a0000000000000000000000000000000000000000000000000000000008152600401611cef90613ce9565b60405180910390fd5b611d038383836123a5565b611d0e600082611ab7565b6001600360008573ffffffffffffffffffffffffffffffffffffffff1673ffffffffffffffffffffffffffffffffffffffff1681526020019081526020016000206000828254611d5e9190613d09565b925050819055506001600360008473ffffffffffffffffffffffffffffffffffffffff1673ffffffffffffffffffffffffffffffffffffffff1681526020019081526020016000206000828254611db59190613837565b92505081905550816002600083815260200190815260200160002060006101000a81548173ffffffffffffffffffffffffffffffffffffffff021916908373ffffffffffffffffffffffffffffffffffffffff160217905550808273ffffffffffffffffffffffffffffffffffffffff168473ffffffffffffffffffffffffffffffffffffffff167fddf252ad1be2c89b69c2b068fc378daa952ba7f163c4a11628f55a4df523b3ef60405160405180910390a4611e748383836123aa565b505050565b6000600660009054906101000a900473ffffffffffffffffffffffffffffffffffffffff16905081600660006101000a81548173ffffffffffffffffffffffffffffffffffffffff021916908373ffffffffffffffffffffffffffffffffffffffff1602179055508173ffffffffffffffffffffffffffffffffffffffff168173ffffffffffffffffffffffffffffffffffffffff167f8be0079c531659141344cd1fd0a4f28419497f9722a3daafe3b4186f6b6457e060405160405180910390a35050565b60005b81811015611f7a57611f5460086123af565b611f6783611f626008611b70565b6123c5565b8080611f729061332f565b915050611f42565b505050565b8173ffffffffffffffffffffffffffffffffffffffff168373ffffffffffffffffffffffffffffffffffffffff1603611fed576040517f08c379a0000000000000000000000000000000000000000000000000000000008152600401611fe490613d89565b60405180910390fd5b80600560008573ffffffffffffffffffffffffffffffffffffffff1673ffffffffffffffffffffffffffffffffffffffff16815260200190815260200160002060008473ffffffffffffffffffffffffffffffffffffffff1673ffffffffffffffffffffffffffffffffffffffff16815260200190815260200160002060006101000a81548160ff0219169083151502179055508173ffffffffffffffffffffffffffffffffffffffff168373ffffffffffffffffffffffffffffffffffffffff167f17307eab39ab6107e8899845ad3d59bd9653f200f220920489ca2b5937696c31836040516120de9190612875565b60405180910390a3505050565b6120f6848484611c13565b612102848484846123e3565b612141576040517f08c379a000000000000000000000000000000000000000000000000000000000815260040161213890613e1b565b60405180910390fd5b50505050565b60008073ffffffffffffffffffffffffffffffffffffffff166002600084815260200190815260200160002060009054906101000a900473ffffffffffffffffffffffffffffffffffffffff1673ffffffffffffffffffffffffffffffffffffffff1614159050919050565b6060600a80546121c290612fea565b80601f01602080910402602001604051908101604052809291908181526020018280546121ee90612fea565b801561223b5780601f106122105761010080835404028352916020019161223b565b820191906000526020600020905b81548152906001019060200180831161221e57829003601f168201915b5050505050905090565b60606000820361228c576040518060400160405280600181526020017f300000000000000000000000000000000000000000000000000000000000000081525090506123a0565b600082905060005b600082146122be5780806122a79061332f565b915050600a826122b79190613289565b9150612294565b60008167ffffffffffffffff8111156122da576122d9612c63565b5b6040519080825280601f01601f19166020018201604052801561230c5781602001600182028036833780820191505090505b5090505b60008514612399576001826123259190613d09565b9150600a856123349190613e3b565b60306123409190613837565b60f81b81838151811061235657612355613300565b5b60200101907effffffffffffffffffffffffffffffffffffffffffffffffffffffffffffff1916908160001a905350600a856123929190613289565b9450612310565b8093505050505b919050565b505050565b505050565b6001816000016000828254019250508190555050565b6123df82826040518060200160405280600081525061256a565b5050565b60006124048473ffffffffffffffffffffffffffffffffffffffff166125c5565b1561255d578373ffffffffffffffffffffffffffffffffffffffff1663150b7a0261242d611aaf565b8786866040518563ffffffff1660e01b815260040161244f9493929190613ec1565b6020604051808303816000875af192505050801561248b57506040513d601f19601f820116820180604052508101906124889190613f22565b60015b61250d573d80600081146124bb576040519150601f19603f3d011682016040523d82523d6000602084013e6124c0565b606091505b506000815103612505576040517f08c379a00000000000000000000000000000000000000000000000000000000081526004016124fc90613e1b565b60405180910390fd5b805181602001fd5b63150b7a0260e01b7bffffffffffffffffffffffffffffffffffffffffffffffffffffffff1916817bffffffffffffffffffffffffffffffffffffffffffffffffffffffff191614915050612562565b600190505b949350505050565b61257483836125e8565b61258160008484846123e3565b6125c0576040517f08c379a00000000000000000000000000000000000000000000000000000000081526004016125b790613e1b565b60405180910390fd5b505050565b6000808273ffffffffffffffffffffffffffffffffffffffff163b119050919050565b600073ffffffffffffffffffffffffffffffffffffffff168273ffffffffffffffffffffffffffffffffffffffff1603612657576040517f08c379a000000000000000000000000000000000000000000000000000000000815260040161264e90613f9b565b60405180910390fd5b61266081612147565b156126a0576040517f08c379a000000000000000000000000000000000000000000000000000000000815260040161269790614007565b60405180910390fd5b6126ac600083836123a5565b6001600360008473ffffffffffffffffffffffffffffffffffffffff1673ffffffffffffffffffffffffffffffffffffffff16815260200190815260200160002060008282546126fc9190613837565b92505081905550816002600083815260200190815260200160002060006101000a81548173ffffffffffffffffffffffffffffffffffffffff021916908373ffffffffffffffffffffffffffffffffffffffff160217905550808273ffffffffffffffffffffffffffffffffffffffff16600073ffffffffffffffffffffffffffffffffffffffff167fddf252ad1be2c89b69c2b068fc378daa952ba7f163c4a11628f55a4df523b3ef60405160405180910390a46127bd600083836123aa565b5050565b6000604051905090565b600080fd5b600080fd5b60007fffffffff0000000000000000000000000000000000000000000000000000000082169050919050565b61280a816127d5565b811461281557600080fd5b50565b60008135905061282781612801565b92915050565b600060208284031215612843576128426127cb565b5b600061285184828501612818565b91505092915050565b60008115159050919050565b61286f8161285a565b82525050565b600060208201905061288a6000830184612866565b92915050565b6128998161285a565b81146128a457600080fd5b50565b6000813590506128b681612890565b92915050565b6000602082840312156128d2576128d16127cb565b5b60006128e0848285016128a7565b91505092915050565b600081519050919050565b600082825260208201905092915050565b60005b83811015612923578082015181840152602081019050612908565b83811115612932576000848401525b50505050565b6000601f19601f8301169050919050565b6000612954826128e9565b61295e81856128f4565b935061296e818560208601612905565b61297781612938565b840191505092915050565b6000602082019050818103600083015261299c8184612949565b905092915050565b6000819050919050565b6129b7816129a4565b81146129c257600080fd5b50565b6000813590506129d4816129ae565b92915050565b6000602082840312156129f0576129ef6127cb565b5b60006129fe848285016129c5565b91505092915050565b600073ffffffffffffffffffffffffffffffffffffffff82169050919050565b6000612a3282612a07565b9050919050565b612a4281612a27565b82525050565b6000602082019050612a5d6000830184612a39565b92915050565b612a6c81612a27565b8114612a7757600080fd5b50565b600081359050612a8981612a63565b92915050565b60008060408385031215612aa657612aa56127cb565b5b6000612ab485828601612a7a565b9250506020612ac5858286016129c5565b9150509250929050565b612ad8816129a4565b82525050565b6000602082019050612af36000830184612acf565b92915050565b600080600060608486031215612b1257612b116127cb565b5b6000612b2086828701612a7a565b9350506020612b3186828701612a7a565b9250506040612b42868287016129c5565b9150509250925092565b600060208284031215612b6257612b616127cb565b5b6000612b7084828501612a7a565b91505092915050565b600081519050919050565b600082825260208201905092915050565b6000819050602082019050919050565b612bae816129a4565b82525050565b6000612bc08383612ba5565b60208301905092915050565b6000602082019050919050565b6000612be482612b79565b612bee8185612b84565b9350612bf983612b95565b8060005b83811015612c2a578151612c118882612bb4565b9750612c1c83612bcc565b925050600181019050612bfd565b5085935050505092915050565b60006020820190508181036000830152612c518184612bd9565b905092915050565b600080fd5b600080fd5b7f4e487b7100000000000000000000000000000000000000000000000000000000600052604160045260246000fd5b612c9b82612938565b810181811067ffffffffffffffff82111715612cba57612cb9612c63565b5b80604052505050565b6000612ccd6127c1565b9050612cd98282612c92565b919050565b600067ffffffffffffffff821115612cf957612cf8612c63565b5b612d0282612938565b9050602081019050919050565b82818337600083830152505050565b6000612d31612d2c84612cde565b612cc3565b905082815260208101848484011115612d4d57612d4c612c5e565b5b612d58848285612d0f565b509392505050565b600082601f830112612d7557612d74612c59565b5b8135612d85848260208601612d1e565b91505092915050565b600060208284031215612da457612da36127cb565b5b600082013567ffffffffffffffff811115612dc257612dc16127d0565b5b612dce84828501612d60565b91505092915050565b60008060408385031215612dee57612ded6127cb565b5b6000612dfc85828601612a7a565b9250506020612e0d858286016128a7565b9150509250929050565b600067ffffffffffffffff821115612e3257612e31612c63565b5b612e3b82612938565b9050602081019050919050565b6000612e5b612e5684612e17565b612cc3565b905082815260208101848484011115612e7757612e76612c5e565b5b612e82848285612d0f565b509392505050565b600082601f830112612e9f57612e9e612c59565b5b8135612eaf848260208601612e48565b91505092915050565b60008060008060808587031215612ed257612ed16127cb565b5b6000612ee087828801612a7a565b9450506020612ef187828801612a7a565b9350506040612f02878288016129c5565b925050606085013567ffffffffffffffff811115612f2357612f226127d0565b5b612f2f87828801612e8a565b91505092959194509250565b60008060408385031215612f5257612f516127cb565b5b6000612f6085828601612a7a565b9250506020612f7185828601612a7a565b9150509250929050565b60008060408385031215612f9257612f916127cb565b5b6000612fa0858286016129c5565b9250506020612fb185828601612a7a565b9150509250929050565b7f4e487b7100000000000000000000000000000000000000000000000000000000600052602260045260246000fd5b6000600282049050600182168061300257607f821691505b60208210810361301557613014612fbb565b5b50919050565b7f4552433732313a20617070726f76616c20746f2063757272656e74206f776e6560008201527f7200000000000000000000000000000000000000000000000000000000000000602082015250565b60006130776021836128f4565b91506130828261301b565b604082019050919050565b600060208201905081810360008301526130a68161306a565b9050919050565b7f4552433732313a20617070726f76652063616c6c6572206973206e6f7420746f60008201527f6b656e206f776e6572206e6f7220617070726f76656420666f7220616c6c0000602082015250565b6000613109603e836128f4565b9150613114826130ad565b604082019050919050565b60006020820190508181036000830152613138816130fc565b9050919050565b7f4552433732313a2063616c6c6572206973206e6f7420746f6b656e206f776e6560008201527f72206e6f7220617070726f766564000000000000000000000000000000000000602082015250565b600061319b602e836128f4565b91506131a68261313f565b604082019050919050565b600060208201905081810360008301526131ca8161318e565b9050919050565b7f4e487b7100000000000000000000000000000000000000000000000000000000600052601160045260246000fd5b600061320b826129a4565b9150613216836129a4565b9250817fffffffffffffffffffffffffffffffffffffffffffffffffffffffffffffffff048311821515161561324f5761324e6131d1565b5b828202905092915050565b7f4e487b7100000000000000000000000000000000000000000000000000000000600052601260045260246000fd5b6000613294826129a4565b915061329f836129a4565b9250826132af576132ae61325a565b5b828204905092915050565b600081905092915050565b50565b60006132d56000836132ba565b91506132e0826132c5565b600082019050919050565b60006132f6826132c8565b9150819050919050565b7f4e487b7100000000000000000000000000000000000000000000000000000000600052603260045260246000fd5b600061333a826129a4565b91507fffffffffffffffffffffffffffffffffffffffffffffffffffffffffffffffff820361336c5761336b6131d1565b5b600182019050919050565b60008190508160005260206000209050919050565b60006020601f8301049050919050565b600082821b905092915050565b6000600883026133d97fffffffffffffffffffffffffffffffffffffffffffffffffffffffffffffffff8261339c565b6133e3868361339c565b95508019841693508086168417925050509392505050565b6000819050919050565b600061342061341b613416846129a4565b6133fb565b6129a4565b9050919050565b6000819050919050565b61343a83613405565b61344e61344682613427565b8484546133a9565b825550505050565b600090565b613463613456565b61346e818484613431565b505050565b5b818110156134925761348760008261345b565b600181019050613474565b5050565b601f8211156134d7576134a881613377565b6134b18461338c565b810160208510156134c0578190505b6134d46134cc8561338c565b830182613473565b50505b505050565b600082821c905092915050565b60006134fa600019846008026134dc565b1980831691505092915050565b600061351383836134e9565b9150826002028217905092915050565b61352c826128e9565b67ffffffffffffffff81111561354557613544612c63565b5b61354f8254612fea565b61355a828285613496565b600060209050601f83116001811461358d576000841561357b578287015190505b6135858582613507565b8655506135ed565b601f19841661359b86613377565b60005b828110156135c35784890151825560018201915060208501945060208101905061359e565b868310156135e057848901516135dc601f8916826134e9565b8355505b6001600288020188555050505b505050505050565b7f4552433732313a20696e76616c696420746f6b656e2049440000000000000000600082015250565b600061362b6018836128f4565b9150613636826135f5565b602082019050919050565b6000602082019050818103600083015261365a8161361e565b9050919050565b7f4552433732313a2061646472657373207a65726f206973206e6f74206120766160008201527f6c6964206f776e65720000000000000000000000000000000000000000000000602082015250565b60006136bd6029836128f4565b91506136c882613661565b604082019050919050565b600060208201905081810360008301526136ec816136b0565b9050919050565b7f5265656e7472616e637947756172643a207265656e7472616e742063616c6c00600082015250565b6000613729601f836128f4565b9150613734826136f3565b602082019050919050565b600060208201905081810360008301526137588161371c565b9050919050565b7f54686520636f6e74726163742069732070617573656421000000000000000000600082015250565b60006137956017836128f4565b91506137a08261375f565b602082019050919050565b600060208201905081810360008301526137c481613788565b9050919050565b7f496e76616c6964206d696e7420616d6f756e7421000000000000000000000000600082015250565b60006138016014836128f4565b915061380c826137cb565b602082019050919050565b60006020820190508181036000830152613830816137f4565b9050919050565b6000613842826129a4565b915061384d836129a4565b9250827fffffffffffffffffffffffffffffffffffffffffffffffffffffffffffffffff03821115613882576138816131d1565b5b828201905092915050565b7f4d617820737570706c7920657863656564656421000000000000000000000000600082015250565b60006138c36014836128f4565b91506138ce8261388d565b602082019050919050565b600060208201905081810360008301526138f2816138b6565b9050919050565b7f496e73756666696369656e742066756e64732100000000000000000000000000600082015250565b600061392f6013836128f4565b915061393a826138f9565b602082019050919050565b6000602082019050818103600083015261395e81613922565b9050919050565b7f4d656e7461706f72744552433732313a2055524920717565727920666f72206e60008201527f6f6e6578697374656e7420746f6b656e00000000000000000000000000000000602082015250565b60006139c16030836128f4565b91506139cc82613965565b604082019050919050565b600060208201905081810360008301526139f0816139b4565b9050919050565b600081905092915050565b6000613a0d826128e9565b613a1781856139f7565b9350613a27818560208601612905565b80840191505092915050565b60008154613a4081612fea565b613a4a81866139f7565b94506001821660008114613a655760018114613a7a57613aad565b60ff1983168652811515820286019350613aad565b613a8385613377565b60005b83811015613aa557815481890152600182019150602081019050613a86565b838801955050505b50505092915050565b6000613ac28286613a02565b9150613ace8285613a02565b9150613ada8284613a33565b9150819050949350505050565b7f4f776e61626c653a206e6577206f776e657220697320746865207a65726f206160008201527f6464726573730000000000000000000000000000000000000000000000000000602082015250565b6000613b436026836128f4565b9150613b4e82613ae7565b604082019050919050565b60006020820190508181036000830152613b7281613b36565b9050919050565b7f4f776e61626c653a2063616c6c6572206973206e6f7420746865206f776e6572600082015250565b6000613baf6020836128f4565b9150613bba82613b79565b602082019050919050565b60006020820190508181036000830152613bde81613ba2565b9050919050565b7f4552433732313a207472616e736665722066726f6d20696e636f72726563742060008201527f6f776e6572000000000000000000000000000000000000000000000000000000602082015250565b6000613c416025836128f4565b9150613c4c82613be5565b604082019050919050565b60006020820190508181036000830152613c7081613c34565b9050919050565b7f4552433732313a207472616e7366657220746f20746865207a65726f2061646460008201527f7265737300000000000000000000000000000000000000000000000000000000602082015250565b6000613cd36024836128f4565b9150613cde82613c77565b604082019050919050565b60006020820190508181036000830152613d0281613cc6565b9050919050565b6000613d14826129a4565b9150613d1f836129a4565b925082821015613d3257613d316131d1565b5b828203905092915050565b7f4552433732313a20617070726f766520746f2063616c6c657200000000000000600082015250565b6000613d736019836128f4565b9150613d7e82613d3d565b602082019050919050565b60006020820190508181036000830152613da281613d66565b9050919050565b7f4552433732313a207472616e7366657220746f206e6f6e20455243373231526560008201527f63656976657220696d706c656d656e7465720000000000000000000000000000602082015250565b6000613e056032836128f4565b9150613e1082613da9565b604082019050919050565b60006020820190508181036000830152613e3481613df8565b9050919050565b6000613e46826129a4565b9150613e51836129a4565b925082613e6157613e6061325a565b5b828206905092915050565b600081519050919050565b600082825260208201905092915050565b6000613e9382613e6c565b613e9d8185613e77565b9350613ead818560208601612905565b613eb681612938565b840191505092915050565b6000608082019050613ed66000830187612a39565b613ee36020830186612a39565b613ef06040830185612acf565b8181036060830152613f028184613e88565b905095945050505050565b600081519050613f1c81612801565b92915050565b600060208284031215613f3857613f376127cb565b5b6000613f4684828501613f0d565b91505092915050565b7f4552433732313a206d696e7420746f20746865207a65726f2061646472657373600082015250565b6000613f856020836128f4565b9150613f9082613f4f565b602082019050919050565b60006020820190508181036000830152613fb481613f78565b9050919050565b7f4552433732313a20746f6b656e20616c7265616479206d696e74656400000000600082015250565b6000613ff1601c836128f4565b9150613ffc82613fbb565b602082019050919050565b6000602082019050818103600083015261402081613fe4565b905091905056fea2646970667358221220d53db99283a87bcd36e7ebc10ef494c2f98229bd3561dc027103d3ad12bd50b664736f6c634300080f0033",
  "immutableReferences": {},
  "source": "//SPDX-License-Identifier: MIT\n\npragma solidity >=0.8.0 <0.9.0;\n\nimport \"./MentaportERC721.sol\";\n\n/**                                            \n       \n             ___           ___           ___                         ___           ___         ___           ___                   \n     /\\  \\         /\\__\\         /\\  \\                       /\\  \\         /\\  \\       /\\  \\         /\\  \\                  \n    |::\\  \\       /:/ _/_        \\:\\  \\         ___         /::\\  \\       /::\\  \\     /::\\  \\       /::\\  \\         ___     \n    |:|:\\  \\     /:/ /\\__\\        \\:\\  \\       /\\__\\       /:/\\:\\  \\     /:/\\:\\__\\   /:/\\:\\  \\     /:/\\:\\__\\       /\\__\\    \n  __|:|\\:\\  \\   /:/ /:/ _/_   _____\\:\\  \\     /:/  /      /:/ /::\\  \\   /:/ /:/  /  /:/  \\:\\  \\   /:/ /:/  /      /:/  /    \n /::::|_\\:\\__\\ /:/_/:/ /\\__\\ /::::::::\\__\\   /:/__/      /:/_/:/\\:\\__\\ /:/_/:/  /  /:/__/ \\:\\__\\ /:/_/:/__/___   /:/__/     \n \\:\\~~\\  \\/__/ \\:\\/:/ /:/  / \\:\\~~\\~~\\/__/  /::\\  \\      \\:\\/:/  \\/__/ \\:\\/:/  /   \\:\\  \\ /:/  / \\:\\/:::::/  /  /::\\  \\     \n  \\:\\  \\        \\::/_/:/  /   \\:\\  \\       /:/\\:\\  \\      \\::/__/       \\::/__/     \\:\\  /:/  /   \\::/~~/~~~~  /:/\\:\\  \\    \n   \\:\\  \\        \\:\\/:/  /     \\:\\  \\      \\/__\\:\\  \\      \\:\\  \\        \\:\\  \\      \\:\\/:/  /     \\:\\~~\\      \\/__\\:\\  \\   \n    \\:\\__\\        \\::/  /       \\:\\__\\          \\:\\__\\      \\:\\__\\        \\:\\__\\      \\::/  /       \\:\\__\\          \\:\\__\\  \n     \\/__/         \\/__/         \\/__/           \\/__/       \\/__/         \\/__/       \\/__/         \\/__/           \\/__/  \n       \n       \n                                              ,d                                                         ,d     \n                                              88                                                         88     \n88,dPYba,,adPYba,    ,adPPYba,  8b,dPPYba,  MM88MMM  ,adPPYYba,  8b,dPPYba,    ,adPPYba,   8b,dPPYba,  MM88MMM  \n88P'   \"88\"    \"8a  a8P_____88  88P'   `\"8a   88     \"\"     `Y8  88P'    \"8a  a8\"     \"8a  88P'   \"Y8    88    \n88      88      88  8PP\"\"\"\"\"\"\"  88       88   88     ,adPPPPP88  88       d8  8b       d8  88            88     \n88      88      88  \"8b,   ,aa  88       88   88,    88,    ,88  88b,   ,a8\"  \"8a,   ,a8\"  88            88,    \n88      88      88   `\"Ybbd8\"'  88       88   \"Y888  `\"8bbdP\"Y8  88`YbbdP\"'    `\"YbbdP\"'   88            \"Y888  \n                                                                 88                                             \n                                                                 88                                                                                                    \n**/\n\n/**\n * @title MentaStream\n * @dev Extending MentaportERC721\n  Uses mentaport ERC721 contract.\n**/\n\ncontract MentaStream is MentaportERC721 {\n  \n  constructor(\n        string memory _name,\n        string memory _symbol,\n        string memory _initNotRevealedUri\n    ) MentaportERC721(_name, _symbol, _initNotRevealedUri) {\n    maxSupply = 500;\n    cost = 0.000 ether;\n  }\n}\n ",
  "sourcePath": "/Users/marialemontenegro/Mentaport/Development/blockchain/truffle-project-dev/truffle/contracts/smart-contracts-dev/MentaStream.sol",
  "compiler": {
    "name": "solc",
    "version": "0.8.15+commit.e14f2714.Emscripten.clang"
  },
  "schemaVersion": "3.4.8",
  "updatedAt": "2022-11-06T14:16:57.623Z",
  "networkType": "ethereum",
  "devdoc": {
    "details": "Extending MentaportERC721 Uses mentaport ERC721 contract.*",
    "kind": "dev",
    "methods": {
      "approve(address,uint256)": {
        "details": "See {IERC721-approve}."
      },
      "balanceOf(address)": {
        "details": "See {IERC721-balanceOf}."
      },
      "getApproved(uint256)": {
        "details": "See {IERC721-getApproved}."
      },
      "isApprovedForAll(address,address)": {
        "details": "See {IERC721-isApprovedForAll}."
      },
      "name()": {
        "details": "See {IERC721Metadata-name}."
      },
      "owner()": {
        "details": "Returns the address of the current owner."
      },
      "ownerOf(uint256)": {
        "details": "See {IERC721-ownerOf}."
      },
      "renounceOwnership()": {
        "details": "Leaves the contract without owner. It will not be possible to call `onlyOwner` functions anymore. Can only be called by the current owner. NOTE: Renouncing ownership will leave the contract without an owner, thereby removing any functionality that is only available to the owner."
      },
      "safeTransferFrom(address,address,uint256)": {
        "details": "See {IERC721-safeTransferFrom}."
      },
      "safeTransferFrom(address,address,uint256,bytes)": {
        "details": "See {IERC721-safeTransferFrom}."
      },
      "setApprovalForAll(address,bool)": {
        "details": "See {IERC721-setApprovalForAll}."
      },
      "supportsInterface(bytes4)": {
        "details": "See {IERC165-supportsInterface}."
      },
      "symbol()": {
        "details": "See {IERC721Metadata-symbol}."
      },
      "tokenURI(uint256)": {
        "details": "See {IERC721Metadata-tokenURI}."
      },
      "transferFrom(address,address,uint256)": {
        "details": "See {IERC721-transferFrom}."
      },
      "transferOwnership(address)": {
        "details": "Transfers ownership of the contract to a new account (`newOwner`). Can only be called by the current owner."
      }
    },
    "title": "MentaStream",
    "version": 1
  },
  "userdoc": {
    "kind": "user",
    "methods": {},
    "version": 1
  }
}